S01500004672656552544F532D546573742E7372656378
S11300000C943E000C945B000C945B000C945B001D
S11300100C945B000C945B000C945B000C945B00F0
S11300200C945B000C945B000C945B000C945B00E0
S11300300C945B000C9490030C945B000C945B0098
S11300400C940E010C945B000C945B000C945B000C
S11300500C9486040C94C4040C945B000C945B0014
S11300600C945B000C945B000C945B000C945B00A0
S11300700C940C050C944A050C945B0011241FBECF
S1130080CFEFD8E0DEBFCDBF11E0A0E0B1E0E2EBFE
S1130090F6E102C005900D92A835B107D9F725E025
S11300A0A8E5B1E001C01D92A63FB207E1F70E94A6
S11300B0C5000C94570B0C94000096B136B126B1D0
S11300C086B149B180FD06C065E08AE091E00E94F6
S11300D03701F3CF91FD06C066E080E191E00E9414
S11300E03701EBCF26FD06C063E087E191E00E9473
S11300F03701E3CF332334F065E08BE191E00E94D4
S11301003701DBCF43FDD9CF66E081E291E00E9465
S11301103701D3CF5A9A08955D9A5D985C9A5C989A
S11301205A980895809582B985B1836085B985B15F
S113013093709095892385B90895CF93C091580100
S1130140C1110CC00E948A0080E090E00E949200DD
S11301500E948C0081E08093580114C0EC2FF0E0E1
S1130160EE0FFF1FEA5CFE4F808191810E94920096
S11301700E948C00CE3020F4CF5FC093580102C09F
S113018010925801CF91089508950E9440015E98FD
S1130190E12CF12C00E020E030E045E550E068E29D
S11301A071E08DE590E00E944A068DE990E00E949E
S11301B0FC0078940E945F07FFCFCF93DF9300D0B9
S11301C0CDB7DEB76A838091A1019091A201009717
S11301D071F0198220E0AE014F5F5F4FBE016E5F88
S11301E07F4F0E94F105898181110E94DB020F90EB
S11301F00F90DF91CF9108959093A00180939F0178
S11302008AE087BD84B5826084BDEEE6F0E080813B
S11302108260808385B5856085BD08951F920F92A5
S11302200FB60F9211242F933F934F935F936F93C5
S11302307F938F939F93AF93BF93EF93FF93E0913B
S11302409F01F091A001309709F00995FF91EF917A
S1130250BF91AF919F918F917F916F915F914F91DA
S11302603F912F910F900FBE0F901F901895462F1E
S1130270BC018091A3019091A4010E9443040895BC
S11302808F929F92AF92BF92CF92DF92EF920F9391
S11302908CE791E00E94990189E591E00E9499011F
S11302A00F2EFDED8F2EF0E09F2EF02D0F2EF9E591
S11302B0AF2EF1E0BF2EF02D0F2EFCE7CF2EF1E094
S11302C0DF2EF02DE12C00E023E040E052EC61E071
S11302D070E080E00E94C9039093A4018093A3017D
S11302E088B1836C88B95B9A8AB184678AB95E9A4B
S11302F081B18FEF81B984B1836084B984B18C6397
S113030084B90F91EF90DF90CF90BF90AF909F9002
S11303108F90089595B1937C95B925B134E0839F6E
S1130320C0011124822B85B9089585B1837C85B9D8
S11303300895FC0110A211A212A20895FC0182A149
S11303408823D9F081A1DF01A80FB11D8C91DB01B5
S11303508C9321A130E02F5F3F4F2F7130783323EE
S113036034F421503109206E3F6F2F5F3F4F21A39A
S113037082A1815082A380E0089581E00895FC0168
S113038042A14032B8F420A130E0E20FF31F6083B1
S11303902F5F3F4F2F713078332334F421503109CC
S11303A0206E3F6F2F5F3F4FFC0120A34F5F42A39E
S11303B080E0089582E00895FC010396928381838E
S11303C02FEF3FEF3483238396838583908787833E
S11303D010820895FC01118610860895CF93DF934F
S11303E09C01FB01DC011196CD91DC911297D38322
S11303F0C2838C819D81958384838C819D81DC0162
S113040013967C936E9312977D836C833187208738
S1130410F90180818F5F8083DF91CF910895CF931D
S1130420DF93FC01A085B185C281D381848195814C
S11304309D838C83C481D581828193819B838A83AC
S113044011968D919C911297E817F90731F48481E4
S1130450958112969C938E931197118610868C9198
S113046081508C93DF91CF91089531E1FC01308369
S1130470319722E220833197A3E3A08331976083ED
S11304803197708331971082319760E86083319798
S11304901082319762E06083319763E06083319723
S11304A064E06083319765E06083319766E0608340
S11304B0319767E06083319768E06083319769E042
S11304C06083319760E1608331973083319732E103
S11304D03083319733E13083319734E1308331977E
S11304E035E13083319736E13083319737E130831A
S11304F0319738E13083319739E13083319730E2F5
S11305003083319731E2308331972083319723E26E
S113051020833197408331975083319726E220839B
S1130520319727E22083319728E22083319729E20B
S11305302083319720E32083319721E3208386971A
S113054008951092890085EE809388008BE0809353
S11305508100EFE6F0E0808182608083A091F00565
S1130560B091F105CD91CDBFDD91DEBFFF91EF914B
S1130570DF91CF91BF91AF919F918F917F916F91B7
S11305805F914F913F912F911F910F91FF90EF90A9
S1130590DF90CF90BF90AF909F908F907F906F909F
S11305A05F904F903F902F901F900F900FBE0F9031
S11305B0089581E008950F920FB6F8940F921F9258
S11305C011242F923F924F925F926F927F928F925B
S11305D09F92AF92BF92CF92DF92EF92FF920F93CE
S11305E01F932F933F934F935F936F937F938F93B7
S11305F09F93AF93BF93CF93DF93EF93FF93A09118
S1130600F005B091F1050DB60D920EB60D920E9453
S11306100809A091F005B091F105CD91CDBFDD9110
S1130620DEBFFF91EF91DF91CF91BF91AF919F9189
S11306308F917F916F915F914F913F912F911F9176
S11306400F91FF90EF90DF90CF90BF90AF909F906D
S11306508F907F906F905F904F903F902F901F905E
S11306600F900FBE0F9008950F920FB6F8940F924B
S11306701F9211242F923F924F925F926F927F921A
S11306808F929F92AF92BF92CF92DF92EF92FF929E
S11306900F931F932F933F934F935F936F937F9386
S11306A08F939F93AF93BF93CF93DF93EF93FF9376
S11306B0A091F005B091F1050DB60D920EB60D9214
S11306C00E948F0781110E940809A091F005B09142
S11306D0F105CD91CDBFDD91DEBFFF91EF91DF91AB
S11306E0CF91BF91AF919F918F917F916F915F91C6
S11306F04F913F912F911F910F91FF90EF90DF90B9
S1130700CF90BF90AF909F908F907F906F905F90AD
S11307104F903F902F901F900F900FBE0F90089511
S11307200E9434031895CF93DF93EC010E9489074C
S11307308091A5019091A601892B31F48AEA91E078
S11307409093A6018093A5012091A7013091A8015F
S1130750C9018C0F9D1F873E43E0940770F428174E
S1130760390770F4C091A501D091A601C20FD31F1F
S11307709093A8018093A70105C0C0E0D0E002C017
S1130780C0E0D0E00E944A08CE01DF91CF910895E5
S113079008954F925F926F927F928F929F92AF9241
S11307A0BF92CF92DF92FF920F931F93CF93DF9369
S11307B0CDB7DEB7F82E2A013B0188E090E00E9415
S11307C0260A8C018F2D90E0880F991FFC01EF56AB
S11307D0FA4F11830083FC01EA5FFE4F808191810F
S11307E0D80111969C938E931396BC92AE92129755
S11307F01596DC92CE92149717969C928E92169729
S1130800FFB6F894ED91FC91119736978081826040
S11308108083CD90DC90D301C201880F991FAA1F59
S1130820BB1F880F991FAA1FBB1F9C01AD01220F7C
S1130830331F441F551F60E070E081EE90E00E947A
S1130840040A2150F60132972083D801ED91FC91DE
S11308501197359788E98083ED91FC91349786E070
S11308608083FFBEC801DF91CF911F910F91FF904C
S1130870DF90CF90BF90AF909F908F907F906F90BC
S11308805F904F900895EF92FF920F931F93CF9331
S1130890DF93FC01A281B381109779F0E42FF0E09B
S11308A092965C9120E230E0251B31092E173F0718
S11308B01CF17C01411104C016C04230F8F4F9CF98
S11308C0EB014150042F10E00F5F1F4F060F171F5D
S11308D06991D70112968D919C9113970E94BF0143
S11308E0C017D107A9F7D701ED91FC913597808105
S11308F08062808380E003C082E001C082E0DF91F7
S1130900CF911F910F91FF90EF9008951F920F9236
S11309100FB60F9211242F933F934F935F936F93CE
S11309207F938F939F93AF93BF93CF93EF93FF9353
S1130930E0919105F09192053097A1F0C091C60025
S11309406C2F848195810E94BF01809191059091C3
S11309509205DC011696ED91FC911797309711F0F2
S11309606C2F0995FF91EF91CF91BF91AF919F911A
S11309708F917F916F915F914F913F912F910F9044
S11309800FBE0F901F9018951F920F920FB60F92E3
S113099011242F933F934F935F936F937F938F9380
S11309A09F93AF93BF93EF93FF93CF93DF931F92E4
S11309B0CDB7DEB7E0919105F0919205309799F0AB
S11309C0BE016F5F7F4F828193810E949E018111DE
S11309D004C089818093C6000BC0E1ECF0E0808103
S11309E08F7D808305C0E1ECF0E080818F7D808382
S11309F00F90DF91CF91FF91EF91BF91AF919F91B4
S1130A008F917F916F915F914F913F912F910F90B3
S1130A100FBE0F901F9018951F920F920FB60F9252
S1130A2011242F933F934F935F936F937F938F93EF
S1130A309F93AF93BF93CF93EF93FF93E09193056D
S1130A40F09194053097A1F0C091CE006C2F848171
S1130A5095810E94BF018091930590919405DC01DA
S1130A601696ED91FC911797309711F06C2F09951C
S1130A70FF91EF91CF91BF91AF919F918F917F9112
S1130A806F915F914F913F912F910F900FBE0F90F7
S1130A901F9018951F920F920FB60F9211242F9347
S1130AA03F934F935F936F937F938F939F93AF93F2
S1130AB0BF93EF93FF93CF93DF931F92CDB7DEB72E
S1130AC0E0919305F0919405309799F0BE016F5F22
S1130AD07F4F828193810E949E01811104C089818C
S1130AE08093CE000BC0E9ECF0E080818F7D8083A1
S1130AF005C0E9ECF0E080818F7D80830F90DF9169
S1130B00CF91FF91EF91BF91AF919F918F917F9181
S1130B106F915F914F913F912F910F900FBE0F9066
S1130B201F9018950F931F93CF93DF93EC01042F1D
S1130B301A8D4C8D41110CC088819981892B09F043
S1130B4042C08A819B810E94C4091B821A8242C0CE
S1130B50011117C050E08C819D810E94470B2C8DA0
S1130B608C819D81820F911D9D838C832A813B8181
S1130B708217930750F1888199819D838C8380E04B
S1130B8029C050E08E819F810E94470B8C8D90E09C
S1130B909195819591092E813F81280F391F3F83BB
S1130BA02E83488159812417350730F42A813B81EB
S1130BB0820F931F9F838E83023049F4112349F0DF
S1130BC0115080E007C080E005C080E003C080E0F1
S1130BD001C080E01F5F1A8FDF91CF911F910F91A9
S1130BE00895EF92FF920F931F93CF93DF938A019F
S1130BF0FC01528D338D531710F02230F1F4422F43
S1130C007801EC011E8D0E9492051F3F81F48989B1
S1130C108823A9F0CE0141960E947C09882389F09B
S1130C20E114F10481F081E0F70180830DC0FF2419
S1130C30F394F10EFE8E81E007C080E005C081E0F0
S1130C4003C081E001C081E0DF91CF911F910F913A
S1130C50FF90EF900895E091B805F091B905808177
S1130C60811107C08FEF9FEF9093990580939805AA
S1130C700895E091B805F091B9050580F681E02D5D
S1130C800680F781E02D828193819093990580936A
S1130C90980508954F925F926F927F928F929F92E0
S1130CA0AF92BF92CF92DF92EF92FF920F93CF93C6
S1130CB0DF934C016B015A012901CA010E9493037D
S1130CC03C01892B09F4EAC08CE290E00E94930372
S1130CD0EC01892BB1F0788E6F8AA50165EA70E08A
S1130CE0C3010E94500B81E0A81AB1088F89988D26
S1130CF0A80EB91ED6018C91898F8C91811105C0E3
S1130D0018C0C3010E94C803C9C0AE01465E5F4F4C
S1130D10F6013196B8E0CB0ED11CCF012191DA0156
S1130D202D93AD01DC018C91882319F0EC15FD05A0
S1130D30A1F718A2043008F003E00E8B0BA31CA249
S1130D406E01B2E0CB0ED11CC6010E94EA01CE01B5
S1130D500C960E94EA01D987C88784E090E0801B42
S1130D6091099D878C87DB8BCA8B1EA21DA21FA2B3
S1130D7018A619A61AA61BA6A201B401C5010E94B1
S1130D80350299838883E114F10419F0F701D183C2
S1130D90C0830FB6F8940F928091A2058F5F809361
S1130DA0A2058091F0059091F105892BA9F5D093C6
S1130DB0F105C093F0058091A2058130E9F58CEC32
S1130DC095E00E94DC0185ED95E00E94DC018EED4A
S1130DD095E00E94DC0187EE95E00E94DC0183EC43
S1130DE095E00E94DC018AEB95E00E94DC018DEA2B
S1130DF095E00E94DC0184EA95E00E94DC0183EC2A
S1130E0095E09093B9058093B8058AEB95E09093AB
S1130E10B7058093B60510C080919E0581110CC062
S1130E20E091F005F091F10596898E89891720F0FB
S1130E30D093F105C093F00580919A058F5F80935C
S1130E409A0589A38E8990919F05981710F4809331
S1130E509F0590E09C01220F331F220F331F220FA6
S1130E60331F820F931FB60184539A4F0E94EE01E1
S1130E700F900FBE80919E05882361F0E091F005EC
S1130E80F091F10596898E89981730F40E94DB025F
S1130E9081E005C081E003C081E001C08FEFDF91F4
S1130EA0CF910F91FF90EF90DF90CF90BF90AF90D4
S1130EB09F908F907F906F905F904F900895EF92E6
S1130EC0FF920F930F2EF6E9EF2EF5E0FF2EF02D93
S1130ED000E020E030E045E550E062E571E089ECB7
S1130EE098E00E944A06813081F4F8948FEF9FEFD6
S1130EF0909399058093980581E080939E051092C4
S1130F00A1051092A0050E94A1020F91FF90EF90FD
S1130F100895809195058F5F809395050895CF92EC
S1130F20DF92EF92FF920F931F93CF93DF93809101
S1130F309505811199C0E090A005F090A1058FEF6F
S1130F40E81AF80AF092A105E092A005E114F10470
S1130F50B9F48091B8059091B9052091B605309106
S1130F60B7053093B9052093B8059093B7058093DE
S1130F70B60580919B058F5F80939B050E942B068D
S1130F808091980590919905E816F90610F4D12CF2
S1130F9053C0D12CCC24C394E091B805F091B90589
S1130FA08081811107C08FEF9FEF90939905809303
S1130FB0980542C0E091B805F091B9050580F68125
S1130FC0E02DC681D7818A819B81E816F90628F431
S1130FD090939905809398052FC08E010E5F1F4F43
S1130FE0C8010E940F028C899D89892B21F0CE01B2
S1130FF00C960E940F028E8990919F05981710F409
S113100080939F0590E09C01220F331F220F331F12
S1131010220F331F820F931FB80184539A4F0E94EB
S1131020EE01E091F005F091F1059E89868998170B
S113103008F4B2CFDC2CB0CFE091F005F091F105CB
S1131040868990E0FC01EE0FFF1FEE0FFF1FEE0FED
S1131050FF1F8E0F9F1FFC01E453FA4F80818230E3
S113106048F0DD24D39406C080919D058F5F809362
S11310709D05D12C80919C05882311F0DD24D39407
S11310808D2DDF91CF911F910F91FF90EF90DF9005
S1131090CF900895DF92EF92FF920F931F93CF9317
S11310A0DF930FB6F8940F92809195058150809349
S11310B095058091950581115FC08091A2058111EC
S11310C033C05DC0D7011596ED91FC911697C6818A
S11310D0D781CE010C960E940F028E010E5F1F4F26
S11310E0C8010E940F028E8990919F05981710F4F1
S11310F080939F0590E09C01220F331F220F331F22
S1131100220F331F820F931FB80184539A4F0E94FA
S1131110EE01E091F005F091F1059E89868998171A
S113112068F0D0929C050AC0C0E0D0E00F2EFDEA22
S1131130EF2EF5E0FF2EF02DDD24D394F70180810E
S11311408111C0CFCD2B11F00E942B06C0919D05BB
S1131150CC2351F0D1E00E948F078111D0939C05DC
S1131160C150C9F710929D0580919C05882331F0E8
S11311700E94DB0281E003C080E001C080E00F90A8
S11311800FBEDF91CF911F910F91FF90EF90DF90F1
S1131190089504EA15E00F2EFCECEF2EF5E0FF2E87
S11311A0F02D29C00E948907D801CC910E944A08D9
S11311B0CC2309F10FB6F8940F92D8011596ED914E
S11311C0FC911697C681D781CE0102960E940F0228
S11311D08091A20581508093A2058091A30581503E
S11311E08093A3050F900FBE8F89988D0E94C8032A
S11311F0CE010E94C8038091A3058111D3CFF701CA
S11312008081823010F00E94DB020E94C400F3CF80
S113121080919505882321F081E080939C050895B1
S113122010929C05E091F005F091F10585A10E94D2
S1131230950120919F05822F90E0FC01EE0FFF1F86
S1131240EE0FFF1FEE0FFF1FE80FF91FE453FA4FD5
S11312503081311111C02150822F90E0FC01EE0F3A
S1131260FF1FEE0FFF1FEE0FFF1FE80FF91FE453E0
S1131270FA4F3081332379F3AC01440F551F440FE7
S1131280551F440F551F480F591FDA01A453BA4F75
S11312901196ED91FC9112970280F381E02D129644
S11312A0FC93EE93119741535A4FE417F50729F431
S11312B042815381FD0152834183FC01EE0FFF1FE4
S11312C0EE0FFF1FEE0FFF1F8E0F9F1FFC01E45355
S11312D0FA4F0180F281E02D868197819093F10588
S11312E08093F00520939F05E091F005F091F105BE
S11312F085A10E948A0108950F931F93CF93DF93D2
S1131300DC011596ED91FC911697C681D7818E016B
S1131310045F1F4FC8010E940F028091950581113F
S11313201CC00A501109C8010E940F028E899091B5
S11313309F05981710F480939F0590E09C01220F5D
S1131340331F220F331F220F331F820F931FB80145
S113135084539A4F0E94EE0105C0B8018DEA95E0CE
S11313600E94EE01E091F005F091F1059E898689D5
S1131370891720F481E080939C0501C080E0DF910F
S1131380CF911F910F9108950F931F93CF93DF93E4
S1131390FC01892B79F184A1815084A3268993A12E
S11313A0291751F181112AC0EF018F010E5F1F4FE0
S11313B0C8010E940F028BA18E8B24E030E0281B11
S11313C031093D872C8790919F05981710F48093DD
S11313D09F0590E09C01220F331F220F331F220F21
S11313E0331F820F931FB80184539A4F0E94EE015A
S11313F081E005C080E003C080E001C080E0DF91AF
S1131400CF911F910F910895A1E21A2EAA1BBB1B25
S1131410FD010DC0AA1FBB1FEE1FFF1FA217B307BC
S1131420E407F50720F0A21BB30BE40BF50B661FD2
S1131430771F881F991F1A9469F760957095809596
S113144090959B01AC01BD01CF0108950F931F93AB
S1131450CF93DF938230910510F482E090E0E09125
S1131460F405F091F50520E030E0A0E0B0E030971D
S113147019F1408151810281138148175907C8F03D
S11314808417950769F4109731F012960C9312970C
S113149013961C9327C00093F4051093F50522C0FE
S11314A02115310519F04217530718F49A01BD01AB
S11314B0EF01DF01F801DBCF21153105F9F0281B1D
S11314C0390B2430310580F48A819B8161157105C3
S11314D021F0FB019383828304C09093F5058093EC
S11314E0F405FE01329644C0FE01E20FF31F81931E
S11314F0919322503109398328833AC02091F2050F
S11315003091F305232B41F4209102013091030122
S11315103093F3052093F2052091000130910101ED
S11315202115310541F42DB73EB740910401509186
S11315300501241B350BE091F205F091F305E21748
S1131540F307A0F42E1B3F0B2817390778F0AC01E2
S11315504E5F5F4F2417350748F04E0F5F1F5093BF
S1131560F3054093F2058193919302C0E0E0F0E02B
S1131570CF01DF91CF911F910F910895CF93DF9306
S1131580009709F481C0FC01329713821282A09162
S1131590F405B091F505109781F420813181820F13
S11315A0931F2091F2053091F3052817390751F55F
S11315B0F093F305E093F20567C0ED0120E030E01D
S11315C0CE17DF0740F44A815B819E014115510526
S11315D0F1F0EA01F5CFD383C28340815181840FB6
S11315E0951FC817D90759F488819981840F951FCD
S11315F00296918380838A819B81938382832115C0
S1131600310529F4F093F505E093F4053DC0E901B3
S1131610FB83EA8349915991C40FD51FEC17FD0749
S113162061F480819181840F951F0296E901998369
S11316308883828193819B838A83E0E0F0E0129621
S11316408D919C911397009719F0FD01DC01F7CF60
S11316508D919C9111979D012E5F3F4F820F931F97
S11316602091F2053091F3052817390769F4309772
S113167029F41092F5051092F40502C01382128227
S1131680B093F305A093F205DF91CF910895FB0188
S1131690DC0102C001900D9241505040D8F70895EA
S11316A0DC0101C06D9341505040E0F70895F89477
S10516B0FFCF66
S11316B20000F6052000C600CE00446F776E0A00D3
S11316C252696768740A0055700A004C6566740AA8
S11316D20050617573650A0052656164206A6F790E
S11316E2737469636B0000000000000000000000D6
S11316F200000000000000000000000000000000E4
S10B1702000049444C450000BD
S9030000FC
