S01500004672656552544F532D546573742E7372656378
S11300000C943E000C945B000C945B000C945B001D
S11300100C945B000C945B000C945B000C945B00F0
S11300200C945B000C945B000C945B000C945B00E0
S11300300C945B000C94C9080C945B000C945B005A
S11300400C94BE020C945B000C945B000C945B005B
S11300500C94680A0C94C10A0C945B000C945B0029
S11300600C945B000C945B000C945B000C945B00A0
S11300700C941C0B0C94750B0C945B0011241FBE88
S1130080CFEFD8E0DEBFCDBF11E0A0E0B1E0EEEEEF
S1130090FFE202C005900D92A433B107D9F725E021
S11300A0A4E3B1E001C01D92AF3FB207E1F70E94A3
S11300B01C020C94F5170C940000EF92FF920F931E
S11300C01F93CF93DF93CDB7DEB72C970FB6F89479
S11300D0DEBF0FBECDBF9C878B871A828FE08D83D6
S11300E01B821C8286E290E0FC0180818695882F29
S11300F090E08170992721E0892B09F020E02E837C
S113010086E290E0FC018081881F8827881F882F61
S113011090E08170992721E0892B09F020E02F835A
S113012086E290E0FC0180818295869586958370B5
S1130130882F90E08170992721E0892B09F020E035
S1130140288786E290E0FC018081882F90E081700E
S1130150992721E0892B09F020E0298789E290E0A2
S1130160FC018081869586958695882F90E0817024
S1130170992721E0892B09F020E02A8789858823A3
S113018039F083E0898381E08B8381E08C8323C011
S11301908E81882339F081E0898381E08B8381E03B
S11301A08C8319C08885882339F082E0898381E0B3
S11301B08B8381E08C830FC08F81882331F0198277
S11301C081E08B8381E08C8306C08A85882311F0CB
S11301D01A8201C01C828B81882309F483CF8C810D
S11301E0882309F07FCF8A818F5F8A839A818D81EA
S11301F0981708F477CF64E08CE191E00E94F5024F
S11302008981882F90E07C01009150011091510167
S11302102091520130915301409154015091550164
S11302206091560170915701809158010E941B0101
S11302301B821A8257CFEF920F931F93CF93DF93B2
S1130240CDB7DEB72A970FB6F894DEBF0FBECDBF89
S113025009831A832B833C834D835E836F83788762
S11302608987EA868A85882F90E08130910539F163
S1130270823091051CF4892BC9F031C0823091057C
S113028019F0039751F02BC08D81882319F08D81CB
S11302908130F1F48A858D831BC08D81882319F008
S11302A08D818130B9F48A858D8314C08D8182302B
S11302B019F08D81833081F48A858D830DC08D8101
S11302C0823019F08D81833049F48A858D8306C08C
S11302D0000005C0000003C0000001C000000000D1
S11302E02A960FB6F894DEBF0FBECDBFDF91CF9133
S11302F01F910F91EF900895CF93DF93CDB7DEB7A1
S11303008BE290E02BE230E0F90120812460FC01D3
S113031020830000DF91CF910895CF93DF93CDB771
S1130320DEB78BE290E02BE230E0F901208120621D
S1130330FC0120838BE290E02BE230E0F901208184
S11303402F7DFC0120838BE290E02BE230E0F90169
S113035020812061FC0120838BE290E02BE230E0DD
S1130360F90120812F7EFC0120838BE290E02BE2B7
S113037030E0F90120812B7FFC0120830000DF9114
S1130380CF910895CF93DF9300D0CDB7DEB79A8392
S1130390898382E290E029812095FC01208385E213
S11303A090E025E230E0F90120812360FC01208304
S11303B085E290E025E230E0F901408129813A812B
S11303C0232F3327237020952423FC01208300004E
S11303D00F900F90DF91CF910895CF93DF93CDB716
S11303E0DEB780916101882311F40E947C01809121
S11303F06101882F90E0880F991F8C5C9E4FFC014F
S1130400808191810E94C2010E948D0180916101CD
S113041091E0980F909361018E3010F01092610179
S11304200000DF91CF910895CF93DF93CDB7DEB76E
S11304300000DF91CF910895EF92FF920F93CF9335
S1130440DF931F92CDB7DEB70E940F038BE290E0DB
S11304502BE230E0F90120812F7BFC01208381E035
S11304600E941D0D90935A018093590181E00E94CE
S11304701D0D90935C0180935B0181E00E941D0D32
S113048090935E0180935D0181E00E941D0D909325
S1130490600180935F01E12CF12C00E020E030E06A
S11304A045E550E061E271E08DE590E00E949D0F2A
S11304B089838DEE91E00E948B0278940E947A11D8
S11304C0FFCFCF93DF9300D000D0CDB7DEB79B83AF
S11304D08A836C838091640190916501892B99F0E2
S11304E019828091640190916501BE016C5F7F4F18
S11304F020E0AE014F5F5F4F0E94EE0D898188239B
S113050011F00E94AF0700000F900F900F900F9012
S1130510DF91CF910895CF93DF9300D0CDB7DEB7AD
S11305209A83898389819A81909367018093660174
S113053087E490E02AE0FC01208384E490E024E452
S113054030E0F90120812260FC0120838EE690E0F6
S11305502EE630E0F90120812260FC01208385E44D
S113056090E025E430E0F90120812560FC0120833E
S113057000000F900F90DF91CF9108951F920F927A
S113058000905F000F9211242F933F934F935F933A
S11305906F937F938F939F93AF93BF93EF93FF9347
S11305A0CF93DF93CDB7DEB7809166019091670159
S11305B0892B31F08091660190916701FC010995C6
S11305C00000DF91CF91FF91EF91BF91AF919F9187
S11305D08F917F916F915F914F913F912F910F90E8
S11305E000925F000F901F901895CF93DF9300D077
S11305F01F92CDB7DEB79A8389836B8380916201A2
S11306009091630129813A814B81B9010E94090AC1
S113061000000F900F900F90DF91CF9108958F926B
S11306209F92AF92BF92CF92DF92EF920F93CF93AC
S1130630DF93CDB7DEB788E691E00E94C7038BE86D
S113064091E00E94C7030F2EF1E68F2EF2E09F2E59
S1130650F02D0F2EFBE8AF2EF1E0BF2EF02D0F2E64
S1130660F8E6CF2EF1E0DF2EF02DE12C00E023E0C0
S113067040E052EC61E070E080E00E944809909311
S113068063018093620188E290E028E230E0F9019E
S11306902081236CFC0120838BE290E02BE230E08C
S11306A0F90120812860FC0120838AE290E02AE29B
S11306B030E0F90120812467FC0120838BE290E083
S11306C02BE230E0F90120812064FC01208381E2E7
S11306D090E0FC01808181E290E02FEFFC01208317
S11306E084E290E024E230E0F90120812360FC01FF
S11306F0208384E290E024E230E0F90120812C633D
S1130700FC0120830000DF91CF910F91EF90DF90E7
S1130710CF90BF90AF909F908F900895CF93DF9329
S11307201F92CDB7DEB7898385E290E025E230E001
S1130730F9012081237CFC01208385E290E025E2FD
S113074030E0F9012081422F2981222F30E0220F4D
S1130750331F220F331F242BFC01208300000F9032
S1130760DF91CF910895CF93DF931F92CDB7DEB77A
S1130770898385E290E025E230E0F9012081237C41
S1130780FC01208300000F90DF91CF910895CF9357
S1130790DF9300D0CDB7DEB79A83898389819A81AC
S11307A0FC0110A289819A81FC0111A289819A819C
S11307B0FC0112A200000F900F90DF91CF910895D9
S11307C0CF93DF9300D000D0CDB7DEB79A8389836F
S11307D07C836B8389819A81FC0182A1882381F1C6
S11307E089819A81FC0181A1882F90E029813A8135
S11307F0820F931FFC0120818B819C81FC0120834B
S113080089819A81FC0181A1882F90E001968F71E2
S11308109078992324F40197806E9F6F0196282F76
S113082089819A81FC0121A389819A81FC0182A199
S11308302FEF280F89819A81FC0122A380E001C057
S113084081E00F900F900F900F90DF91CF9108955A
S1130850CF93DF9300D01F92CDB7DEB79A838983FD
S11308606B8389819A81FC0182A1803268F5898138
S11308709A81FC0180A1882F90E029813A81820F1E
S1130880931F2B81FC01208389819A81FC0180A123
S1130890882F90E001968F719078992324F4019722
S11308A0806E9F6F0196282F89819A81FC0120A375
S11308B089819A81FC0182A121E0280F89819A8192
S11308C0FC0122A380E001C082E00F900F900F9002
S11308D0DF91CF910895CF93DF9300D0CDB7DEB7EA
S11308E09A83898389819A819C012D5F3F4F8981F5
S11308F09A81FC013283218389819A812FEF3FEF12
S1130900FC013483238389819A819C012D5F3F4FAD
S113091089819A81FC013683258389819A819C018E
S11309202D5F3F4F89819A81FC013087278389811C
S11309309A81FC01108200000F900F90DF91CF91FB
S11309400895CF93DF9300D0CDB7DEB79A83898320
S113095089819A81FC011186108600000F900F9006
S1130960DF91CF910895CF93DF9300D000D000D0D2
S1130970CDB7DEB79C838B837E836D838B819C8113
S1130980FC01818192819A8389838D819E81298151
S11309903A81FC013383228389819A81FC01248179
S11309A035818D819E81FC013583248389819A81DF
S11309B0FC01848195812D813E81FC013383228356
S11309C089819A812D813E81FC01358324838D8127
S11309D09E812B813C81FC01318720878B819C8106
S11309E0FC01808121E0280F8B819C81FC01208304
S11309F0000026960FB6F894DEBF0FBECDBFDF9180
S1130A00CF910895CF93DF93CDB7DEB728970FB674
S1130A10F894DEBF0FBECDBF9E838D8378876F832E
S1130A208F819885FC01808191819C838B838B814C
S1130A309C81019641F48D819E81FC018781908582
S1130A409A8389831AC08D819E8103969A838983B0
S1130A5007C089819A81FC01828193819A83898369
S1130A6089819A81FC0182819381FC0120813181F9
S1130A708B819C818217930760F789819A81FC019D
S1130A80228133818F819885FC01338322838F8176
S1130A909885FC01828193812F813885FC013583FF
S1130AA024838F81988529813A81FC0135832483AD
S1130AB089819A812F813885FC01338322838F8138
S1130AC098852D813E81FC01318720878D819E810F
S1130AD0FC01808121E0280F8D819E81FC0120830F
S1130AE0000028960FB6F894DEBF0FBECDBFDF918D
S1130AF0CF910895CF93DF9300D000D0CDB7DEB768
S1130B009C838B838B819C81FC01808591859A8356
S1130B1089838B819C81FC01828193812B813C811F
S1130B20F90124813581FC01358324838B819C81E7
S1130B30FC01848195812B813C81F90122813381DF
S1130B40FC013383228389819A81FC0121813281D2
S1130B508B819C812817390751F48B819C81FC017E
S1130B602481358189819A81FC01328321838B819F
S1130B709C81FC011186108689819A81FC01808107
S1130B802FEF280F89819A81FC01208389819A8122
S1130B90FC0180810F900F900F900F90DF91CF9107
S1130BA00895CF93DF93CDB7DEB728970FB6F894A7
S1130BB0DEBF0FBECDBF9C838B837E836D8358873E
S1130BC04F838B819C8121E1FC0120838B819C815B
S1130BD001979C838B838B819C8122E2FC0120837F
S1130BE08B819C8101979C838B838B819C8123E3E4
S1130BF0FC0120838B819C8101979C838B838D8155
S1130C009E819A83898329818B819C81FC01208325
S1130C108B819C8101979C838B8389819A81892F05
S1130C2099279A83898329818B819C81FC01208364
S1130C308B819C8101979C838B838B819C81FC019C
S1130C4010828B819C8101979C838B838B819C81F7
S1130C5020E8FC0120838B819C8101979C838B83FA
S1130C608B819C81FC0110828B819C8101979C83E8
S1130C708B838B819C8122E0FC0120838B819C816E
S1130C8001979C838B838B819C8123E0FC012083CF
S1130C908B819C8101979C838B838B819C8124E035
S1130CA0FC0120838B819C8101979C838B838B81A6
S1130CB09C8125E0FC0120838B819C8101979C838E
S1130CC08B838B819C8126E0FC0120838B819C811A
S1130CD001979C838B838B819C8127E0FC0120837B
S1130CE08B819C8101979C838B838B819C8128E0E1
S1130CF0FC0120838B819C8101979C838B838B8156
S1130D009C8129E0FC0120838B819C8101979C8339
S1130D108B838B819C8120E1FC0120838B819C81CE
S1130D2001979C838B838B819C8121E1FC0120832F
S1130D308B819C8101979C838B838B819C8122E195
S1130D40FC0120838B819C8101979C838B838B8105
S1130D509C8123E1FC0120838B819C8101979C83EE
S1130D608B838B819C8124E1FC0120838B819C817A
S1130D7001979C838B838B819C8125E1FC012083DB
S1130D808B819C8101979C838B838B819C8126E141
S1130D90FC0120838B819C8101979C838B838B81B5
S1130DA09C8127E1FC0120838B819C8101979C839A
S1130DB08B838B819C8128E1FC0120838B819C8126
S1130DC001979C838B838B819C8129E1FC01208387
S1130DD08B819C8101979C838B838B819C8120E2F6
S1130DE0FC0120838B819C8101979C838B838B8165
S1130DF09C8121E2FC0120838B819C8101979C834F
S1130E008B838B819C8122E2FC0120838B819C81DA
S1130E1001979C838B838B819C8123E2FC0120833B
S1130E208B819C8101979C838B838F8198859A8386
S1130E30898329818B819C81FC0120838B819C8106
S1130E4001979C838B8389819A81892F99279A831F
S1130E50898329818B819C81FC0120838B819C81E6
S1130E6001979C838B838B819C8126E2FC012083E8
S1130E708B819C8101979C838B838B819C8127E24E
S1130E80FC0120838B819C8101979C838B838B81C4
S1130E909C8128E2FC0120838B819C8101979C83A7
S1130EA08B838B819C8129E2FC0120838B819C8133
S1130EB001979C838B838B819C8120E3FC0120839D
S1130EC08B819C8101979C838B838B819C8121E303
S1130ED0FC0120838B819C8101979C838B838B8174
S1130EE09C8128960FB6F894DEBF0FBECDBFDF916C
S1130EF0CF910895CF93DF93CDB7DEB70E946708F3
S1130F00A0919E05B0919F05CD91CDBFDD91DEBF2F
S1130F10FF91EF91DF91CF91BF91AF919F918F910D
S1130F207F916F915F914F913F912F911F910F91FD
S1130F30FF90EF90DF90CF90BF90AF909F908F90F5
S1130F407F906F905F904F903F902F901F900F90E5
S1130F500FBE0F90089581E0DF91CF9108950F9215
S1130F600FB6F8940F921F9211242F923F924F9232
S1130F705F926F927F928F929F92AF92BF92CF9225
S1130F80DF92EF92FF920F931F932F933F934F9310
S1130F905F936F937F938F939F93AF93BF93CF93FD
S1130FA0DF93EF93FF93A0919E05B0919F050DB63B
S1130FB00D920EB60D920E944013A0919E05B09121
S1130FC09F05CD91CDBFDD91DEBFFF91EF91DF9104
S1130FD0CF91BF91AF919F918F917F916F915F91CD
S1130FE04F913F912F911F910F91FF90EF90DF90C0
S1130FF0CF90BF90AF909F908F907F906F905F90B5
S11310004F903F902F901F900F900FBE0F90089518
S113101000000F920FB6F8940F921F9211242F9292
S11310203F924F925F926F927F928F929F92AF9274
S1131030BF92CF92DF92EF92FF920F931F932F9361
S11310403F934F935F936F937F938F939F93AF934C
S1131050BF93CF93DF93EF93FF93A0919E05B0913D
S11310609F050DB60D920EB60D920E945312882361
S113107011F00E944013A0919E05B0919F05CD915F
S1131080CDBFDD91DEBFFF91EF91DF91CF91BF9195
S1131090AF919F918F917F916F915F914F913F910C
S11310A02F911F910F91FF90EF90DF90CF90BF9001
S11310B0AF909F908F907F906F905F904F903F90F4
S11310C02F901F900F900FBE0F9008950000CF93A4
S11310D0DF9300D000D000D0CDB7DEB789E999E323
S11310E0A0E0B0E089839A83AB83BC8389819A8131
S11310F0AB81BC81689415F8B695A79597958795AB
S11311001694D1F789839A83AB83BC8389819A81AE
S1131110AB81BC810197A109B10989839A83AB830F
S1131120BC8389818D8389819A81AB81BC81892F1C
S11311309A2FAB2FBB2789839A83AB83BC83898186
S11311408E8389E890E02E81FC01208388E890E07A
S11311502D81FC0120838BE08D8381E890E02D813B
S1131160FC0120838FE690E0FC0180818D838D81DA
S113117082608D838FE690E02D81FC012083000046
S113118026960FB6F894DEBF0FBECDBFDF91CF9188
S113119008950E94090818950000CF93DF9300D0AA
S11311A000D0CDB7DEB79C838B831A8219820E944C
S11311B0AF118091980590919905892B31F48FEAAC
S11311C091E090939905809398052091960530912C
S11311D097058B819C81820F931F873E934038F53E
S11311E020919605309197058B819C81280F391F9A
S11311F0809196059091970582179307C0F42091EA
S11312009805309199058091960590919705820FE4
S1131210931F9A83898320919605309197058B813A
S11312209C81820F931F90939705809396050E944B
S1131230BC1189819A810F900F900F900F90DF91CC
S1131240CF910895CF93DF9300D0CDB7DEB79A83C3
S1131250898300000F900F90DF91CF910895CF9371
S1131260DF9300D0CDB7DEB79A83898389819A81D1
S1131270059729813A8125503109F901208120629D
S1131280FC01208300000F900F90DF91CF9108950F
S11312908F929F92AF92BF92CF92DF92EF920F9371
S11312A01F93CF93DF93CDB7DEB761970FB6F89452
S11312B0DEBF0FBECDBF8C834D835E836F83788783
S11312C029870A87EB86DD86CC86BF86AE86998A17
S11312D0888A88E090E00E94C4169A8389838C816E
S11312E0882F90E0880F991F86569A4F29813A815A
S11312F0FC01318320838C81882F90E0880F991F13
S11313008A5F9E4FFC012081318189819A81FC0191
S11313103183208389819A812E853F85FC01338323
S1131320228389819A812C853D85FC013583248320
S113133089819A8128893989FC01378326838FE53D
S113134090E0FC0180818B83F89489819A81FC016F
S113135080819181069729813A81F9012081318127
S113136026503109F90120812260FC012083898102
S11313709A81FC01808191818C01025011098D8137
S11313809E81AF81B885880F991FAA1FBB1F880F44
S1131390991FAA1FBB1F880F991FAA1FBB1F9C015F
S11313A0AD0180E090E0A1EEB0E0BC01CD010E946F
S11313B0A216DA01C9018150F801808389819A81DA
S11313C0FC0180819181059728E9FC0120838981B2
S11313D09A81FC0180819181049726E0FC0120839D
S11313E08FE590E02B81FC01208389819A816196AD
S11313F00FB6F894DEBF0FBECDBFDF91CF911F9122
S11314000F91EF90DF90CF90BF90AF909F908F900F
S11314100895CF93DF9300D000D000D0CDB7DEB7CE
S11314209B838A837D836C834E838A819B81FC01A9
S113143082819381892BA9F08E81282F30E08A81C3
S11314409B81FC0182819381FC0182A1882F90E021
S113145040E250E0BA01681B790BCB018217930775
S113146054F08A819B81FC0182819381892B29F428
S11314708E81823010F082E022C0198214C08981EA
S1131480882F90E02C813D81820F931FFC012081E5
S11314908A819B81FC0182819381622F0E942804AE
S11314A089818F5F898399818E81981740F38A811E
S11314B09B81FC01808191810E942F0980E0269606
S11314C00FB6F894DEBF0FBECDBFDF91CF91089564
S11314D01F920F9200905F000F9211242F933F935D
S11314E04F935F936F937F938F939F93AF93BF9328
S11314F0EF93FF93CF93DF931F92CDB7DEB7809125
S11315009A0590919B05892B31F186EC90E0FC01C2
S11315108081898380919A0590919B05FC01848147
S1131520958169810E94280480919A0590919B0578
S1131530FC0186819781892B71F080919A059091A5
S11315409B05FC012681378180919A0590919B052A
S11315506981F901099500000F90DF91CF91FF9106
S1131560EF91BF91AF919F918F917F916F915F9117
S11315704F913F912F910F9000925F000F901F9019
S113158018951F920F9200905F000F9211242F93D1
S11315903F934F935F936F937F938F939F93AF93F7
S11315A0BF93EF93FF93CF93DF931F92CDB7DEB733
S11315B080919A0590919B05892BF9F080919A0569
S11315C090919B05FC01828193819E012F5F3F4F87
S11315D0B9010E94E003882331F486EC90E029816C
S11315E0FC01208313C081EC90E021EC30E0F90190
S11315F020812F7DFC01208309C081EC90E021EC47
S113160030E0F90120812F7DFC01208300000F9040
S1131610DF91CF91FF91EF91BF91AF919F918F9106
S11316207F916F915F914F913F912F910F90009215
S11316305F000F901F9018951F920F9200905F000B
S11316400F9211242F933F934F935F936F937F9344
S11316508F939F93AF93BF93EF93FF93CF93DF93B6
S11316601F92CDB7DEB780919C0590919D05892B83
S113167031F18EEC90E0FC018081898380919C059E
S113168090919D05FC018481958169810E942804C3
S113169080919C0590919D05FC0186819781892B01
S11316A071F080919C0590919D05FC012681378104
S11316B080919C0590919D056981F901099500002F
S11316C00F90DF91CF91FF91EF91BF91AF919F91D7
S11316D08F917F916F915F914F913F912F910F90D7
S11316E000925F000F901F9018951F920F92009028
S11316F05F000F9211242F933F934F935F936F9347
S11317007F938F939F93AF93BF93EF93FF93CF9365
S1131710DF931F92CDB7DEB780919C0590919D0514
S1131720892BF9F080919C0590919D05FC018281A3
S113173093819E012F5F3F4FB9010E94E0038823EC
S113174031F48EEC90E02981FC01208313C089ECF4
S113175090E029EC30E0F90120812F7DFC01208309
S113176009C089EC90E029EC30E0F90120812F7D5B
S1131770FC01208300000F90DF91CF91FF91EF9146
S1131780BF91AF919F918F917F916F915F914F9195
S11317903F912F910F9000925F000F901F9018952A
S11317A0CF93DF9300D000D01F92CDB7DEB79C83D8
S11317B08B836D838B819C819A8389830FB6F89484
S11317C00F9289819A81FC018081918129813A81DA
S11317D0F901238D422F50E029813A81F901248DAA
S11317E0222F30E0429FB001439F700D529F700D35
S11317F011249B01280F391F89819A81FC013383AD
S1131800228389819A81FC01128E89819A81FC014B
S11318102081318189819A81FC01358324838981E6
S11318209A81FC018081918129813A81F901238D7A
S1131830222F30E0A9014150510929813A81F9014F
S1131840248D222F30E0429FB001439F700D529FA0
S1131850700D11249B01280F391F89819A81FC0185
S11318603783268389819A812FEFFC01258F898113
S11318709A812FEFFC01268F8D81882381F4898141
S11318809A81FC0180858823A1F089819A81089638
S11318900E94E913882369F00E94AF070AC0898176
S11318A09A8108960E946B0489819A8141960E94CC
S11318B06B040F900FBE81E00F900F900F900F906C
S11318C00F90DF91CF9108950F931F93CF93DF93E0
S11318D0CDB7DEB729970FB6F894DEBF0FBECDBFE4
S11318E08F83688749878885882319F41A82198227
S11318F00FC08F81482F50E08885282F30E0429F09
S1131900C001439F900D529F900D11249A838983A7
S113191089819A8181960E94CD089C838B838B81D7
S11319209C81892B81F08B819C8181969E838D8300
S11319302B813C818D819E8189012985AC0168853B
S11319408F810E94B00C8B819C8129960FB6F894EC
S1131950DEBF0FBECDBFDF91CF911F910F910895D0
S11319600F931F93CF93DF93CDB7DEB727970FB6AF
S1131970F894DEBF0FBECDBF89836A835C834B833B
S11319802D831F830E838A81882341F48E819F8156
S11319902E813F81FC013183208307C08E819F818A
S11319A02B813C81FC01318320838E819F8129819D
S11319B0FC01238F8E819F812A81FC01248F8E81DB
S11319C09F8161E00E94D00B8E819F812D81FC015B
S11319D020A3000027960FB6F894DEBF0FBECDBF3C
S11319E0DF91CF911F910F910895CF93DF9300D092
S11319F0CDB7DEB79A83898389819A81892BB9F01F
S1131A0089819A81FC011382128289819A81FC0165
S1131A101182108289819A81FC01168289819A81BE
S1131A2020E040E050E060E070E00E943D0D0000E6
S1131A300F900F90DF91CF910895CF93DF9300D053
S1131A4000D01F92CDB7DEB78D8381E089831A82DF
S1131A504D816A8189810E94640C9C838B838B8174
S1131A609C810E94F50C8B819C810F900F900F90AC
S1131A700F900F90DF91CF910895CF93DF93CDB75F
S1131A80DEB72E970FB6F894DEBF0FBECDBF998791
S1131A9088877B876A875D874C872E87198288852C
S1131AA099859B838A830FB6F8940F928A819B81D0
S1131AB0FC01228D8A819B81FC01838D281718F0FB
S1131AC08E85823011F52A853B858A819B814E85DE
S1131AD0B9010E944D0E8C838A819B81FC0181890E
S1131AE0882351F08A819B8141960E94E9138823BF
S1131AF041F00E94AF0705C08C81882311F00E9439
S1131B00AF070F900FBE81E060C08C859D85892B47
S1131B1021F40F900FBE80E058C08981882331F4EE
S1131B20CE0105960E94561481E089830F900FBE62
S1131B300E94AF110FB6F8940F928A819B81FC0129
S1131B40858D8F3F21F48A819B81FC01158E8A81CA
S1131B509B81FC01868D8F3F21F48A819B81FC014E
S1131B60168E0F900FBE9E01245F3F4FCE01059647
S1131B70B9010E947214882309F58A819B810E940D
S1131B807B0F8823A1F02C853D858A819B81089653
S1131B90B9010E94C6138A819B810E941D0F0E9475
S1131BA0BC11882309F07FCF0E94AF077CCF8A81C4
S1131BB09B810E941D0F0E94BC1175CF8A819B815D
S1131BC00E941D0F0E94BC1180E02E960FB6F8945F
S1131BD0DEBF0FBECDBFDF91CF910895CF93DF93CA
S1131BE0CDB7DEB72C970FB6F894DEBF0FBECDBFCE
S1131BF09F838E83798768875B874A872C878E814A
S1131C009F819B838A831C828A819B81FC01228D14
S1131C108A819B81FC01838D281718F08C85823082
S1131C2089F58A819B81FC01868D8D832885398580
S1131C308A819B814C85B9010E944D0E8D818F3F15
S1131C40B9F48A819B81FC0181898823C1F08A814E
S1131C509B8141960E94E913882389F08A859B859C
S1131C60892B69F08A859B8521E0FC01208307C0CC
S1131C708D818F5F282F8A819B81FC01268F81E0D3
S1131C80898301C0198289812C960FB6F894DEBF2E
S1131C900FBECDBFDF91CF910895CF93DF93CDB722
S1131CA0DEB727970FB6F894DEBF0FBECDBF9C8377
S1131CB08B837E836D834F8319828B819C81FC018E
S1131CC0828D8A838B819C81FC01848D8823B1F46D
S1131CD08B819C81FC0180819181892B09F09CC0BE
S1131CE08B819C81FC01828193810E94BD15898333
S1131CF08B819C81FC01138212828EC08F81882388
S1131D00D9F58B819C81FC01848D482F50E08B8117
S1131D109C81FC01848195812D813E81B9010E94C1
S1131D20E5178B819C81FC01248135818B819C8109
S1131D30FC01848D882F90E0280F391F8B819C81B2
S1131D40FC01358324838B819C81FC0124813581B2
S1131D508B819C81FC01828193812817390708F4C7
S1131D605BC08B819C81FC01208131818B819C81B2
S1131D70FC013583248350C08B819C81FC01848DBC
S1131D80482F50E08B819C81FC01868197812D81B5
S1131D903E81B9010E94E5178B819C81FC0126815B
S1131DA037818B819C81FC01848D882F90E09195F3
S1131DB081959109280F391F8B819C81FC01378300
S1131DC026838B819C81FC01268137818B819C81B8
S1131DD0FC018081918128173907A8F48B819C81AB
S1131DE0FC01228133818B819C81FC01848D882FAD
S1131DF090E0919581959109280F391F8B819C81E1
S1131E00FC01378326838F81823031F48A818823D1
S1131E1019F08A8181508A838A8121E0280F8B817D
S1131E209C81FC01228F898127960FB6F894DEBF2E
S1131E300FBECDBFDF91CF910895CF93DF9300D034
S1131E4000D0CDB7DEB79C838B830FB6F8940F9286
S1131E508B819C81FC01868D898312C08B819C813E
S1131E60FC018189882381F08B819C8141960E94A9
S1131E70E913882311F00E94DA148981815089833F
S1131E80898118165CF301C000008B819C812FEFBF
S1131E90FC01268F0F900FBE0FB6F8940F928B8122
S1131EA09C81FC01858D8A8312C08B819C81FC01FD
S1131EB08085882381F08B819C8108960E94E91398
S1131EC0882311F00E94DA148A8181508A838A81DE
S1131ED018165CF301C000008B819C812FEFFC017C
S1131EE0258F0F900FBE00000F900F900F900F9052
S1131EF0DF91CF910895CF93DF9300D01F92CDB798
S1131F00DEB79B838A830FB6F8940F928A819B81F4
S1131F10FC01228D8A819B81FC01838D281719F491
S1131F2081E0898301C019820F900FBE89810F90CF
S1131F300F900F90DF91CF9108958F929F92AF925F
S1131F40BF92CF92DF92EF92FF920F931F93CF93A2
S1131F50DF93CDB7DEB760970FB6F894DEBF0FBE40
S1131F60CDBF9F838E83798768875B874A873D8748
S1131F702C870E87F88AEF868A859B850E94CD0878
S1131F809D838C838C819D81892BB9F08CE290E0B8
S1131F900E94CD089A83898389819A81892B41F093
S1131FA089819A812C813D81FC01308F278B07C068
S1131FB08C819D810E94220902C01A821982898122
S1131FC09A81892B09F18A859B85CC01A0E0B0E038
S1131FD009811A814F8558892C853D8568857985C5
S1131FE0EE81FF81812C912C58016A01EE848901D4
S1131FF09C01AD01CF010E941A1089819A810E942F
S1132000F61081E08B8302C08FEF8B838B81609607
S11320100FB6F894DEBF0FBECDBFDF91CF911F91F5
S11320200F91FF90EF90DF90CF90BF90AF909F9073
S11320308F9008958F929F92AF92BF92CF92DF922A
S1132040EF920F931F93CF93DF93CDB7DEB76497CF
S11320500FB6F894DEBF0FBECDBF9D838C837F8304
S11320606E83288739874A875B871D870C87EE86AE
S1132070D88ACF86BA8AA98A9C8A8B8A2885398588
S113208089899A89FC018789908DA90165EA70E0A4
S11320900E94EE1789899A89FC012789308D8885E9
S11320A099850197820F931F9B838A83198221C08C
S11320B08981882F90E02981222F30E04E815F8131
S11320C0240F351FF901408129893A89820F931F12
S11320D04996FC0140838981882F90E02E813F81BD
S11320E0820F931FFC018081882339F089818F5FDF
S11320F0898389818830E0F201C0000089899A8946
S1132100FC0110A28E85843010F083E08E878989CB
S11321109A892E85FC01268B89899A892E85FC0152
S113212023A389899A89FC0114A289899A89029630
S11321300E94A10489899A890C960E94A104898924
S11321409A8929893A89FC01318720878E85882FCD
S113215090E024E030E0281B390B89899A89FC013E
S11321603587248789899A8929893A89FC01338B9F
S1132170228B89899A89FC0116A215A289899A89D8
S1132180FC0117A210A611A612A689899A89FC013E
S113219013A64C855D852C813D818A819B81B90183
S11321A00E94D1059C0189899A89FC01318320838D
S11321B08F859889892B39F08F85988929893A895F
S11321C0FC0131832083000064960FB6F894DEBFCF
S11321D00FBECDBFDF91CF911F910F91EF90DF9094
S11321E0CF90BF90AF909F908F900895CF93DF933F
S11321F000D0CDB7DEB79A8389830FB6F8940F92D7
S11322008091ED058F5F8093ED0580919E059091FF
S11322109F05892B69F489819A8190939F05809306
S11322209E058091ED058130C9F40E94F71416C013
S11322308091F105882391F480919E0590919F05EA
S1132240FC01268989819A81FC018689821730F0F4
S113225089819A8190939F0580939E058091F505CD
S11322608F5F8093F5052091F50589819A81FC01A2
S113227021A389819A81FC0196898091F0058917AF
S113228030F489819A81FC0186898093F0058981E3
S11322909A81AC014E5F5F4F89819A81FC018689E6
S11322A0282F30E0C901880F991F880F991F880FC4
S11322B0991F820F931F80569A4FBA010E94B3044C
S11322C00F900FBE8091F105882371F080919E05D7
S11322D090919F05FC01268989819A81FC01868958
S11322E0281710F40E94AF0700000F900F90DF91A1
S11322F0CF910895EF92FF920F93CF93DF931F92A4
S1132300CDB7DEB70F2EF8EFEF2EF5E0FF2EF02D50
S113231000E020E030E045E550E06FE271E085EE5A
S113232094E10E949D0F89838981813081F4F8941E
S11323308FEF9FEF9093F7058093F60581E08093EC
S1132340F1051092EF051092EE050E947A07000045
S11323500F90DF91CF910F91FF90EF900895CF935D
S1132360DF93CDB7DEB78091FA058F5F8093FA05CE
S11323700000DF91CF910895CF93DF9300D000D078
S1132380CDB7DEB71A8219821B820FB6F8940F926A
S11323908091FA0581508093FA058091FA0588238B
S11323A009F077C08091ED05882309F472C049C013
S11323B08091DF059091E005FC01868197819A83E5
S11323C0898389819A810C960E947A0589819A81F0
S11323D002960E947A0589819A81FC0196898091EE
S11323E0F005891730F489819A81FC0186898093EC
S11323F0F00589819A81AC014E5F5F4F89819A8192
S1132400FC018689282F30E0C901880F991F880FA5
S1132410991F880F991F820F931F80569A4FBA01F4
S11324200E94B30489819A81FC01268980919E05CA
S113243090919F05FC018689281718F081E080930C
S1132440F3058091DA05882309F0B2CF89819A8156
S1132450892B11F00E948E158091F2058C838C815A
S1132460882379F00E945312882319F081E0809325
S1132470F3058C8181508C838C81882399F7109289
S1132480F2058091F305882321F081E08B830E947B
S1132490AF070F900FBE8B810F900F900F900F908E
S11324A0DF91CF910895CF93DF93CDB7DEB729970E
S11324B00FB6F894DEBF0FBECDBF19828091FA0526
S11324C0882309F0C8C08091EE059091EF0501962C
S11324D09B838A838A819B819093EF058093EE0589
S11324E08A819B81892BD9F48091D6059091D70557
S11324F09D838C838091D8059091D9059093D705BD
S11325008093D6058C819D819093D9058093D805BD
S11325108091F4058F5F8093F4050E948E1580915D
S1132520F6059091F7052A813B812817390708F4AD
S113253078C08091D6059091D705FC0180818823CD
S113254039F48FEF9FEF9093F7058093F60569C0F8
S11325508091D6059091D705FC0185819681FC0177
S1132560868197819F838E838E819F81FC018281E6
S11325709381998788872A813B8188859985281743
S1132580390738F4888599859093F7058093F60583
S113259048C08E819F8102960E947A058E819F8118
S11325A0FC0184899589892B29F08E819F810C9661
S11325B00E947A058E819F81FC0196898091F005A5
S11325C0891730F48E819F81FC0186898093F00500
S11325D08E819F81AC014E5F5F4F8E819F81FC0194
S11325E08689282F30E0C901880F991F880F991F09
S11325F0880F991F820F931F80569A4FBA010E9429
S1132600B3048E819F81FC01268980919E0590915F
S11326109F05FC018689281708F48BCF81E0898304
S113262088CF80919E0590919F05FC018689282F73
S113263030E0C901880F991F880F991F880F991FCF
S1132640820F931F80569A4FFC018081823040F0A4
S113265081E0898305C08091F2058F5F8093F20544
S11326608091F305882311F081E08983898129967B
S11326700FB6F894DEBF0FBECDBFDF91CF910895A2
S1132680CF93DF9300D01F92CDB7DEB78091FA05C8
S1132690882321F081E08093F30571C01092F30543
S11326A080919E0590919F05FC0185A196A10E94B1
S11326B0B3038091F005898303C0898181508983A4
S11326C08981282F30E0C901880F991F880F991F2D
S11326D0880F991F820F931F80569A4FFC018081A7
S11326E0882359F38981282F30E0C901880F991F65
S11326F0880F991F880F991F820F931F80569A4F36
S11327009B838A838A819B81FC0181819281FC0164
S1132710228133818A819B81FC01328321838A81D6
S11327209B81FC01218132818A819B810396281738
S1132730390769F48A819B81FC0181819281FC01C2
S1132740228133818A819B81FC01328321838A81A6
S11327509B81FC0181819281FC0186819781909308
S11327609F0580939E0589818093F00580919E0545
S113277090919F05FC0185A196A10E948E03000003
S11327800F900F900F90DF91CF910895CF93DF9327
S113279000D000D0CDB7DEB79A8389837C836B8366
S11327A080919E0590919F059C01245F3F4F8981F4
S11327B09A81B9010E9402058B819C8161E00E948B
S11327C03A1600000F900F900F900F90DF91CF9169
S11327D00895CF93DF9300D000D01F92CDB7DEB71A
S11327E09D838C838C819D81FC0185819681FC0174
S11327F0868197819B838A838A819B810C960E9420
S11328007A058091FA05882369F58A819B8102966D
S11328100E947A058A819B81FC0196898091F0054A
S1132820891730F48A819B81FC0186898093F005A5
S11328308A819B81AC014E5F5F4F8A819B81FC0141
S11328408689282F30E0C901880F991F880F991FA6
S1132850880F991F820F931F80569A4FBA010E94C6
S1132860B30408C08A819B810C96BC018AED95E073
S11328700E94B3048A819B81FC01268980919E0574
S113288090919F05FC018689821730F481E0898349
S113289081E08093F30501C0198289810F900F9024
S11328A00F900F900F90DF91CF910895CF93DF9306
S11328B000D0CDB7DEB79A8389832091F40589814E
S11328C09A81FC0120832091EE053091EF058981E6
S11328D09A81FC013283218300000F900F90DF91D5
S11328E0CF910895CF93DF93CDB7DEB727970FB677
S11328F0F894DEBF0FBECDBF9D838C837F836E8330
S11329000FB6F8940F928091EE059091EF059B839A
S11329108A838C819D81FC0190818091F4059817B4
S113292069F08C819D81FC01218132818A819B81A6
S11329308217930718F081E0898330C08C819D81D0
S1132940FC01818192812A813B81281B390B8E8174
S11329509F81FC018081918128173907E8F48E81D9
S11329609F81FC01208131818C819D81FC01418109
S113297052818A819B81BA01681B790BCB01280F94
S1132980391F8E819F81FC01318320838C819D813D
S11329900E945614198202C081E089830F900FBEF1
S11329A0898127960FB6F894DEBF0FBECDBFDF91A5
S11329B0CF910895CF93DF93CDB7DEB781E08093B5
S11329C0F3050000DF91CF910895CF93DF9300D0FA
S11329D0CDB7DEB79A8389830E9435158091A0050F
S11329E0823010F00E94AF070E941402F5CFCF93FB
S11329F0DF931F92CDB7DEB7198213C08981282FC8
S1132A0030E0C901880F991F880F991F880F991FFB
S1132A10820F931F80569A4F0E946B0489818F5FA7
S1132A2089838981843050F384EC95E00E946B049F
S1132A308DEC95E00E946B048AED95E00E946B0496
S1132A4083EE95E00E946B0484EC95E09093D705A7
S1132A508093D6058DEC95E09093D9058093D805A5
S1132A6000000F90DF91CF910895CF93DF9300D0B2
S1132A701F92CDB7DEB72FC00E94AF119091E3052E
S1132A8081E0992309F080E089830E94BC11898147
S1132A90882309F50FB6F8940F928091E805909178
S1132AA0E905FC01868197819B838A838A819B81C6
S1132AB002960E947A058091ED0581508093ED0580
S1132AC08091EC0581508093EC050F900FBE8A81B4
S1132AD09B810E9476158091EC05882369F600009D
S1132AE00F900F900F90DF91CF910895CF93DF93C4
S1132AF000D0CDB7DEB79A83898389819A81FC019E
S1132B008789908D0E94220989819A810E942209D5
S1132B1000000F900F90DF91CF910895CF93DF9332
S1132B2000D0CDB7DEB78091D6059091D705FC01D2
S1132B308081882339F48FEF9FEF9093F70580937A
S1132B40F60515C08091D6059091D705FC018581C5
S1132B509681FC01868197819A83898389819A81F0
S1132B60FC01828193819093F7058093F605000020
S1132B700F900F90DF91CF910895CF93DF9300D002
S1132B8000D01F92CDB7DEB79D838C838C819D814D
S1132B909B838A8319828C819D81892B09F461C06E
S1132BA08A819B81FC0184A12FEF280F8A819B815C
S1132BB0FC0124A38A819B81FC0126898A819B8153
S1132BC0FC0183A1281709F44CC08A819B81FC0174
S1132BD084A1882309F045C08A819B8102960E94C2
S1132BE07A058A819B81FC0123A18A819B81FC0156
S1132BF0268B8A819B81FC018689882F90E024E0C2
S1132C0030E0281B390B8A819B81FC01358724879E
S1132C108A819B81FC0196898091F005891730F4A3
S1132C208A819B81FC0186898093F0058A819B813E
S1132C30AC014E5F5F4F8A819B81FC018689282FFE
S1132C4030E0C901880F991F880F991F880F991FB9
S1132C50820F931F80569A4FBA010E94B30481E0F9
S1132C60898389810F900F900F900F900F90DF91BF
S1132C70CF910895CF93DF93CDB7DEB727970FB6E3
S1132C80F894DEBF0FBECDBF9E838D836F8380918A
S1132C90EE059091EF059A83898380919E0590912A
S1132CA09F0502960E947A0529813A818D819E8131
S1132CB0820F931F9C838B8380919E0590919F0527
S1132CC02B813C81FC01338322832B813C818981CC
S1132CD09A812817390778F480919E0590919F0571
S1132CE09C012E5F3F4F8091D8059091D905B90181
S1132CF00E9402051DC080919E0590919F059C0134
S1132D002E5F3F4F8091D6059091D705B9010E945F
S1132D1002058091F6059091F7052B813C812817D7
S1132D20390730F48B819C819093F7058093F605E5
S1132D30000027960FB6F894DEBF0FBECDBFDF911B
S1132D40CF910895A1E21A2EAA1BBB1BFD010DC051
S1132D50AA1FBB1FEE1FFF1FA217B307E407F50747
S1132D6020F0A21BB30BE40BF50B661F771F881F23
S1132D70991F1A9469F760957095809590959B01B9
S1132D80AC01BD01CF0108950F931F93CF93DF933F
S1132D908230910510F482E090E0E091FD05F0911D
S1132DA0FE0520E030E0A0E0B0E0309719F140816A
S1132DB051810281138148175907C8F08417950778
S1132DC069F4109731F012960C93129713961C9392
S1132DD027C00093FD051093FE0522C0211531057F
S1132DE019F04217530718F49A01BD01EF01DF01EE
S1132DF0F801DBCF21153105F9F0281B390B2430FC
S1132E00310580F48A819B816115710521F0FB01F4
S1132E109383828304C09093FE058093FD05FE0195
S1132E20329644C0FE01E20FF31F81939193225026
S1132E303109398328833AC02091FB053091FC0580
S1132E40232B41F420910201309103013093FC05BE
S1132E502093FB05209100013091010121153105DA
S1132E6041F42DB73EB74091040150910501241B54
S1132E70350BE091FB05F091FC05E217F307A0F494
S1132E802E1B3F0B2817390778F0AC014E5F5F4FBC
S1132E902417350748F04E0F5F1F5093FC054093ED
S1132EA0FB058193919302C0E0E0F0E0CF01DF9154
S1132EB0CF911F910F910895CF93DF93009709F459
S1132EC081C0FC01329713821282A091FD05B0915A
S1132ED0FE05109781F420813181820F931F209188
S1132EE0FB053091FC052817390751F5F093FC05D3
S1132EF0E093FB0567C0ED0120E030E0CE17DF076B
S1132F0040F44A815B819E0141155105F1F0EA01CB
S1132F10F5CFD383C28340815181840F951FC81795
S1132F20D90759F488819981840F951F029691835A
S1132F3080838A819B81938382832115310529F4BF
S1132F40F093FE05E093FD053DC0E901FB83EA83B0
S1132F5049915991C40FD51FEC17FD0761F4808185
S1132F609181840F951F0296E90199838883828158
S1132F7093819B838A83E0E0F0E012968D919C918B
S1132F801397009719F0FD01DC01F7CF8D919C9107
S1132F9011979D012E5F3F4F820F931F2091FB05D8
S1132FA03091FC052817390769F4309729F41092F9
S1132FB0FE051092FD0502C013821282B093FC0537
S1132FC0A093FB05DF91CF910895FB01DC0102C0C2
S1132FD001900D9241505040D8F70895DC0101C092
S1112FE06D9341505040E0F70895F894FFCFF0
S1132FEE0000FF052000C600CE0047414D45204F8E
S1132FFE5645520A0044454144210A006D6F7665D8
S113300E0052656164206A6F79737469636B004959
S107301E444C4500D5
S9030000FC
