S01500004672656552544F532D546573742E7372656378
S11300000C94B6000C94D3000C94D3000C94D3003D
S11300100C94D3000C94D3000C94D3000C94D30010
S11300200C94D3000C94D3000C94D3000C94D30000
S11300300C94D3000C94330F0C94D3000C94D30081
S11300400C9428090C94D3000C94D3000C94D30082
S11300500C94D2100C942B110C94D3000C94D30058
S11300600C94D3000C94D3000C94D3000C94D300C0
S11300700C9486110C94DF110C94D30011014901E6
S113008049012D0149014901490149014901490138
S1130090490149014901490149014901490149010C
S11300A03B014901490149011F0149014901490134
S11300B0490149014901490149014901180149011D
S11300C049013401490149014901490149014901F1
S11300D049014901490149014901490149014901CC
S11300E04201490149014901260107634236B79B90
S11300F0D8A71A39685618AEBAAB558C1D3CB7CC84
S11301005763BD6DEDFD753EF6177231BF000000FB
S1130110803F08000000BE922449123EABAAAA2ADE
S1130120BECDCCCC4C3E00000080BEABAAAAAA3EF9
S113013000000000BF000000803F00000000000835
S11301404178D3BB4387D1133D190E3CC3BD4282D2
S1130150AD2B3E68EC8276BED98FE1A93E4C80EF90
S1130160FFBE01C4FF7F3F000000000011241FBE3A
S1130170CFEFD8E0DEBFCDBF11E0A0E0B1E0ECE608
S1130180F8E402C005900D92A236B107D9F727E032
S1130190A2E6B1E001C01D92A53CB207E1F70E94BE
S11301A046080C9434240C940000CF93DF9300D0C1
S11301B01F92CDB7DEB79B838A8319828EE140E01C
S11301C061E00E94CE12909363018093620180915A
S11301D06201909163010E94E20880916201909112
S11301E0630120E04AE050E0BE016F5F7F4F0E9450
S11301F0B714882309F44DC08981882F90E0092E13
S1130200000CAA0BBB0B41E450E026E330E0841B56
S1130210950B28173907E8F1825C9F4FFC010C9479
S1130220FD2260E070E08BED92E00E94EC0531C0AD
S113023060E070E08BED92E00E94EC052AC062E081
S113024070E08BED92E00E94EC0523C062E070E068
S11302508BED92E00E94EC051CC061E070E08BED38
S113026092E00E94EC0515C061E070E08BED92E035
S11302700E94EC050EC063E070E08BED92E00E94FA
S1130280EC0507C063E070E08BED92E00E94EC05A2
S11302900000809125039091260320E04AE050E07D
S11302A060E070E00E94B7148823A1F080911E03DF
S11302B0813029F46AE08AE091E00E945F0980912C
S11302C025039091260320E040E050E060E070E0D8
S11302D00E94A71384E190E00E9449197ECF0F93F6
S11302E01F93CF93DF93CDB7DEB72A970FB6F89459
S11302F0DEBF0FBECDBF9A8789871A8219821AC0C2
S11303001C821B820EC08B819C81880F991F8C5983
S11303109E4FFC01118210828B819C8101969C83EB
S11303208B838B819C810E9774F389819A810196CA
S11303309A83898389819A810A9714F31E821D8284
S113034065C018861F8258C08F819885880F991FB1
S11303509C01220F331F220F331F820F931F2D8105
S11303603E81820F931F880F991F80589E4FFC0176
S113037080819181892BD9F18F819885880F991F6C
S11303808C599E4FFC01008111818D819E81092E23
S1130390000CAA0BBB0BBC01CD010E94EB1FDC01BE
S11303A0CB019C01AD0160E070E080E090E40E942C
S11303B07720DC01CB0120E030E040E05FE3BC01CA
S11303C0CD010E94471FDC01CB01BC01CD010E947D
S11303D0B31FDC01CB019801280F391F8F81988549
S11303E0880F991F8C599E4FFC01318320838F8184
S11303F09885019698878F838F8198850E970CF442
S1130400A3CF8D819E8101969E838D838D819E8154
S11304100A970CF496CF82E390E00E9449196DCFBD
S1130420CF93DF93CDB7DEB766E085E191E00E941C
S11304305F090000DF91CF910895CF93DF9300D03F
S1130440CDB7DEB79A83898389819A81FC0184813F
S1130450882F90E08130910521F1823091051CF4C0
S1130460892B41F065C08230910581F1039709F42D
S113047043C05EC089819A81FC01808191811816F4
S113048019060CF04EC089819A81FC01808191810A
S11304909C012150310989819A81FC013183208397
S11304A040C089819A81FC01808191810E97DCF59D
S11304B089819A81FC01808191819C012F5F3F4F4A
S11304C089819A81FC01318320832DC089819A819D
S11304D0FC0182819381181619063CF589819A8161
S11304E0FC01828193819C012150310989819A8187
S11304F0FC013383228319C089819A81FC018281A2
S113050093810A97A4F489819A81FC018281938161
S11305109C012F5F3F4F89819A81FC0133832283A1
S113052006C0000005C0000003C0000001C00000B8
S113053000000F900F90DF91CF910895CF93DF9338
S1130540CDB7DEB7A5970FB6F894DEBF0FBECDBF0B
S11305509DA38CA319828CC21B821A823FC01D8268
S11305601C8233C08A819B81880F991F9C01220FB2
S1130570331F220F331F820F931F2C813D81820F63
S1130580931F880F991F80589E4FFC018081918191
S11305900197B1F48A819B81880F991F9C01220FD6
S11305A0331F220F331F820F931F2C813D81820F33
S11305B0931F880F991F80589E4FFC01118210824F
S11305C08C819D8101969D838C838C819D810A976A
S11305D04CF28A819B8101969B838A838A819B81C9
S11305E00E970CF4BCCF8091D9029091DA021816C0
S11305F019060CF4F4C0209198023091990280916C
S11306009D0290919E022817390709F06EC020912F
S11306109A0230919B0280919F029091A002281728
S113062039076CF480919A0290919B029F838E8388
S113063080919F029091A002998788870CC0809135
S11306409F029091A0029F838E8380919A02909141
S11306509B02998788878E819F819B878A873CC06C
S113066080919D0290919E02880F991F9C01220FF8
S1130670331F220F331F820F931F2A853B85820F5E
S1130680931F880F991F80589E4FFC018081918190
S1130690029719F481E089831AC080919D02909198
S11306A09E02880F991F9C01220F331F220F331FB4
S11306B0820F931F2A853B85820F931F880F991FF2
S11306C080589E4F21E030E0FC01318320838A85ED
S11306D09B8501969B878A872A853B858885998592
S11306E0821793070CF0BCCFBBC120919A023091C2
S11306F09B0280919F029091A0022817390709F06C
S1130700AFC1209198023091990280919D029091FD
S11307109E02281739076CF48091980290919902EF
S11307209D878C8780919D0290919E029F878E87E2
S11307300CC080919D0290919E029D878C87809130
S11307409802909199029F878E878C859D85998BBD
S1130750888B3CC020919F023091A002888999899E
S1130760880F991FAC01440F551F440F551F840F68
S1130770951F820F931F880F991F80589E4FFC016D
S113078080819181029719F481E089831AC02091B4
S11307909F023091A00288899989880F991FAC0122
S11307A0440F551F440F551F840F951F820F931F2D
S11307B0880F991F80589E4F21E030E0FC0131835F
S11307C02083888999890196998B888B288939890E
S11307D08E859F85821793070CF0BCCF41C11B8A7D
S11307E01A8A34C18A899B89880F991F880F991F97
S11307F083569D4FFC018081918199A388A38A89A6
S11308009B89880F991F880F991F81569D4FFC0162
S1130810808191819BA38AA32091D9023091DA022D
S11308208A899B892817390761F4809198029091ED
S1130830990299A388A380919A0290919B029BA309
S11308408AA328A139A18A899B89880F991F880FB7
S1130850991F83569D4FFC01808191812817390788
S113086009F078C08A899B89880F991F880F991F7E
S113087081569D4FFC01208131818AA19BA12817BB
S1130880390794F48A899B89880F991F880F991FC7
S113089081569D4FFC01808191819D8B8C8B8AA117
S11308A09BA19F8B8E8B11C08AA19BA19D8B8C8B4E
S11308B08A899B89880F991F880F991F81569D4F9C
S11308C0FC01808191819F8B8E8B8C899D89998F6E
S11308D0888F38C088A199A1880F991F9C01220F85
S11308E0331F220F331F820F931F288D398D820FE0
S11308F0931F880F991F80589E4FFC01808191811E
S1130900029719F481E0898318C088A199A1880FFE
S1130910991F9C01220F331F220F331F820F931F35
S1130920288D398D820F931F880F991F80589E4FF1
S113093021E030E0FC0131832083888D998D01967C
S1130940998F888F288D398D8E899F898217930777
S11309500CF677C08A899B89880F991F880F991F85
S113096083569D4FFC012081318188A199A12817CC
S1130970390794F48A899B89880F991F880F991FD6
S113098083569D4FFC01808191819B8F8A8F88A122
S113099099A19D8F8C8F11C088A199A19B8F8A8F5B
S11309A08A899B89880F991F880F991F83569D4FA9
S11309B0FC01808191819D8F8C8F8A8D9B8D9F8F6F
S11309C08E8F38C02AA13BA18E8D9F8D880F991FD1
S11309D0AC01440F551F440F551F840F951F820F00
S11309E0931F880F991F80589E4FFC01808191812D
S11309F0029719F481E0898318C02AA13BA18E8D46
S1130A009F8D880F991FAC01440F551F440F551F2C
S1130A10840F951F820F931F880F991F80589E4F34
S1130A2021E030E0FC01318320838E8D9F8D01967F
S1130A309F8F8E8F2E8D3F8D8C8D9D8D821793076A
S1130A400CF68A899B8901969B8B8A8B2091D9020B
S1130A503091DA028A899B89821793070CF4C2CEFB
S1130A6088E992E00E941D0288EE93E00E944919F1
S1130A70998181E08927882309F06ECD0E941002B4
S1130A806ACDCF93DF93CDB7DEB72C970FB6F8942A
S1130A90DEBF0FBECDBF9C878B871A828FE08D830C
S1130AA01B821C8286E290E0FC0180818695882F5F
S1130AB090E08170992721E0892B09F020E02E83B2
S1130AC086E290E0FC018081881F8827881F882F98
S1130AD090E08170992721E0892B09F020E02F8391
S1130AE086E290E0FC0180818295869586958370EC
S1130AF0882F90E08170992721E0892B09F020E06C
S1130B00288786E290E0FC018081882F90E0817044
S1130B10992721E0892B09F020E0298789E290E0D8
S1130B20FC018081869586958695882F90E081705A
S1130B30992721E0892B09F020E02A8789858823D9
S1130B4039F083E0898381E08B8381E08C8323C047
S1130B508E81882339F081E0898381E08B8381E071
S1130B608C8319C08885882339F082E0898381E0E9
S1130B708B8381E08C830FC08F81882331F01982AD
S1130B8081E08B8381E08C8306C08A85882311F001
S1130B901A8201C01C828B818823C9F08C8188232E
S1130BA0B1F48A818F5F8A839A818D81981778F056
S1130BB064E08CE191E00E945F098981882F90E0D4
S1130BC0BC0188E992E00E94EC051B821A8284E150
S1130BD090E00E94491966CFCF93DF93CDB7DEB77B
S1130BE028970FB6F894DEBF0FBECDBF9F838E83C8
S1130BF068871D828E819F81FC0194818885981766
S1130C0099F08E819F818F5B9F4FFC018081918140
S1130C109C012F5F3F4F8E819F818F5B9F4FFC0113
S1130C203183208381E08D838885882F90E0813013
S1130C30910509F472C08230910524F4892B09F4DA
S1130C404BC093C08230910519F0039719F18DC000
S1130C508E819F81FC018481882339F08E819F815C
S1130C60FC018481813009F079C08E819F812885BF
S1130C70FC0124838E819F81FC01828193810197F1
S1130C809C838B838E819F81FC01808191819A83D7
S1130C90898364C08E819F81FC018481882339F01B
S1130CA08E819F81FC018481813009F059C08E813D
S1130CB09F812885FC0124838E819F81FC01828190
S1130CC0938101969C838B838E819F81FC0180811B
S1130CD091819A83898344C08E819F81FC018481A0
S1130CE0823031F08E819F81FC0184818330D1F583
S1130CF08E819F812885FC0124838E819F81FC0144
S1130D008081918101979A8389838E819F81FC01DF
S1130D10828193819C838B8325C08E819F81FC017A
S1130D208481823031F08E819F81FC018481833003
S1130D30D9F48E819F812885FC0124838E819F8133
S1130D40FC018081918101969A8389838E819F81A0
S1130D50FC01828193819C838B8306C0000005C0C3
S1130D60000003C0000001C000008D81882309F445
S1130D7049C08E819F818F5B9F4FFC01808191814F
S1130D800E970CF03FC08E819F818F5B9F4FFC01BB
S1130D90808191812E813F81880F991F880F991F2F
S1130DA0820F931F0596FC0180819181019651F574
S1130DB08E819F818F5B9F4FFC01808191812E8169
S1130DC03F81880F991F880F991F820F931F0596E3
S1130DD029813A81FC01318320838E819F818F5B3D
S1130DE09F4FFC01808191812E813F81880F991F43
S1130DF0880F991F820F931F07962B813C81FC015A
S1130E0031832083000028960FB6F894DEBF0FBE0E
S1130E10CDBFDF91CF910895CF93DF9300D000D061
S1130E2000D0CDB7DEB71A82198239C089819A8180
S1130E30880F991F880F991F83569D4F2FEF3FEFFF
S1130E40FC013183208389819A81880F991F880F3F
S1130E50991F81569D4F2FEF3FEFFC013183208373
S1130E6089819A81880F991F880F991F80529D4FFD
S1130E702FEF3FEFFC013183208389819A81880F12
S1130E80991F880F991F8E519D4F2FEF3FEFFC0143
S1130E903183208389819A8101969A838983898108
S1130EA09A810F971CF21092DA021092D9021092D2
S1130EB01D0310921C03109299021092980285E06F
S1130EC090E090939B0280939A0281E080939C022D
S1130ED01C821B8285E090E09E838D838B819C81A4
S1130EE0AD81BE8180939D0290939E02A0939F0248
S1130EF0B093A0028AE090E09093DC028093DB023E
S1130F0085E090E09093DE028093DD021092DF0290
S1130F108AE090E09C838B8385E090E09E838D83C0
S1130F208B819C81AD81BE818093E0029093E1022C
S1130F30A093E202B093E302000026960FB6F89461
S1130F40DEBF0FBECDBFDF91CF910895CF93DF9366
S1130F50CDB7DEB78BE290E02BE230E0F9012081DF
S1130F602460FC0120830000DF91CF910895CF938A
S1130F70DF93CDB7DEB78BE290E02BE230E0F901EE
S1130F8020812062FC0120838BE290E02BE230E0A0
S1130F90F90120812F7DFC0120838BE290E02BE27C
S1130FA030E0F90120812061FC0120838BE290E094
S1130FB02BE230E0F90120812F7EFC0120838BE2BB
S1130FC090E02BE230E0F90120812B7FFC012083AB
S1130FD00000DF91CF910895CF93DF9300D0CDB778
S1130FE0DEB79A83898382E290E029812095FC010F
S1130FF0208385E290E025E230E0F901208123603E
S1131000FC01208385E290E025E230E0F901408193
S113101029813A81232F3327237020952423FC012F
S1131020208300000F900F90DF91CF910895CF930C
S1131030DF93CDB7DEB780912703882311F40E9494
S1131040A60780912703882F90E0880F991F8C5959
S11310509E4FFC01808191810E94EC070E94B7079A
S11310608091270391E0980F909327038E3010F01E
S1131070109227030000DF91CF910895CF93DF935F
S1131080CDB7DEB70000DF91CF910895EF92FF92C4
S11310900F93CF93DF9300D000D0CDB7DEB70E947B
S11310A079098BE290E02BE230E0F90120812F7B7B
S11310B0FC01208381E00E94871390932003809396
S11310C01F0381E00E9487139093220380932103DE
S11310D081E00E948713909324038093230381E08B
S11310E00E94871390932603809325030E940C0784
S11310F0E12CF12C00E020E030E045E550E061E235
S113110071E081E495E00E946C178983E12CF12C55
S113111000E020E030E045E550E06FE271E08EE968
S113112092E00E946C178A83E12CF12C00E020E00D
S113113030E045E550E06FE371E08FE691E00E9416
S11311406C178B83E12CF12C00E020E030E045E5C6
S113115050E06AE471E085ED90E00E946C178C83A6
S113116087E198E00E94F50878940E946C19FFCFFB
S1131170CF93DF9300D000D0CDB7DEB79B838A83B3
S11311806C8380912A0390912B03892B99F0198207
S113119080912A0390912B03BE016C5F7F4F20E066
S11311A0AE014F5F5F4F0E9458148981882311F06C
S11311B00E94190E00000F900F900F900F90DF9176
S11311C0CF910895CF93DF9300D0CDB7DEB79A8344
S11311D0898389819A8190932B0380932A03000049
S11311E00F900F90DF91CF910895CF93DF9300D0AC
S11311F0CDB7DEB79A83898389819A8190932D0331
S113120080932C0387E490E02AE0FC01208384E4AB
S113121090E024E430E0F90120812260FC01208385
S11312208EE690E02EE630E0F90120812260FC0198
S1131230208385E490E025E430E0F90120812560F5
S1131240FC01208300000F900F90DF91CF9108954F
S11312501F920F9200905F000F9211242F933F93DF
S11312604F935F936F937F938F939F93AF93BF93AA
S1131270EF93FF93CF93DF93CDB7DEB780912C0329
S113128090912D03892B31F080912C0390912D03A3
S1131290FC0109950000DF91CF91FF91EF91BF917F
S11312A0AF919F918F917F916F915F914F913F91FA
S11312B02F910F9000925F000F901F901895CF937D
S11312C0DF9300D01F92CDB7DEB79A8389836B83F7
S11312D0809128039091290329813A814B81B90196
S11312E00E94731000000F900F900F90DF91CF9128
S11312F008958F929F92AF92BF92CF92DF92EF9216
S11313000F93CF93DF93CDB7DEB78EE293E00E94C5
S1131310310A81E593E00E94310A0F2EF8EB8F2EFB
S1131320F8E09F2EF02D0F2EF1E5AF2EF3E0BF2E47
S1131330F02D0F2EFEE2CF2EF3E0DF2EF02DE12C68
S113134000E023E040E052EC61E070E080E00E94C5
S1131350B20F909329038093280388E290E028E257
S113136030E0F9012081236CFC0120838BE290E0C2
S11313702BE230E0F90120812860FC0120838AE21D
S113138090E02AE230E0F90120812467FC01208307
S11313908BE290E02BE230E0F90120812064FC0133
S11313A0208381E290E0FC01808181E290E02FEFD4
S11313B0FC01208384E290E024E230E0F901208102
S11313C02360FC01208384E290E024E230E0F90110
S11313D020812C63FC0120830000DF91CF910F91C9
S11313E0EF90DF90CF90BF90AF909F908F90089533
S11313F0CF93DF931F92CDB7DEB7898385E290E068
S113140025E230E0F9012081237CFC01208385E280
S113141090E025E230E0F9012081422F2981222F3A
S113142030E0220F331F220F331F242BFC012083B3
S113143000000F90DF91CF910895CF93DF931F9217
S1131440CDB7DEB7898385E290E025E230E0F9018B
S11314502081237CFC01208300000F90DF91CF9139
S11314600895CF93DF9300D0CDB7DEB79A838983F5
S113147089819A81FC0110A289819A81FC0111A2BF
S113148089819A81FC0112A200000F900F90DF91D4
S1131490CF910895CF93DF9300D000D0CDB7DEB7BE
S11314A09A8389837C836B8389819A81FC0182A1DD
S11314B0882381F189819A81FC0181A1882F90E0A0
S11314C029813A81820F931FFC0120818B819C81A9
S11314D0FC01208389819A81FC0181A1882F90E0FD
S11314E001968F719078992324F40197806E9F6FF1
S11314F00196282F89819A81FC0121A389819A81EF
S1131500FC0182A12FEF280F89819A81FC0122A37B
S113151080E001C081E00F900F900F900F90DF9159
S1131520CF910895CF93DF9300D01F92CDB7DEB74C
S11315309A8389836B8389819A81FC0182A1803299
S113154068F589819A81FC0180A1882F90E0298126
S11315503A81820F931F2B81FC01208389819A8118
S1131560FC0180A1882F90E001968F7190789923D7
S113157024F40197806E9F6F0196282F89819A81A8
S1131580FC0120A389819A81FC0182A121E0280F1A
S113159089819A81FC0122A380E001C082E00F903E
S11315A00F900F90DF91CF910895CF93DF9300D0E8
S11315B0CDB7DEB79A83898389819A819C012D5F97
S11315C03F4F89819A81FC013283218389819A81E9
S11315D02FEF3FEFFC013483238389819A819C019F
S11315E02D5F3F4F89819A81FC0136832583898150
S11315F09A819C012D5F3F4F89819A81FC0130873C
S1131600278389819A81FC01108200000F900F903A
S1131610DF91CF910895CF93DF9300D0CDB7DEB79C
S11316209A83898389819A81FC011186108600003E
S11316300F900F90DF91CF910895CF93DF9300D057
S113164000D000D0CDB7DEB79C838B837E836D83BF
S11316508B819C81FC01818192819A8389838D8114
S11316609E8129813A81FC013383228389819A8175
S1131670FC01248135818D819E81FC013583248385
S113168089819A81FC01848195812D813E81FC01AF
S11316903383228389819A812D813E81FC013583A4
S11316A024838D819E812B813C81FC01318720879D
S11316B08B819C81FC01808121E0280F8B819C819E
S11316C0FC012083000026960FB6F894DEBF0FBEFF
S11316D0CDBFDF91CF910895CF93DF93CDB7DEB720
S11316E028970FB6F894DEBF0FBECDBF9E838D83BF
S11316F078876F838F819885FC01808191819C8399
S11317008B838B819C81019641F48D819E81FC01A8
S1131710878190859A8389831AC08D819E810396DF
S11317209A83898307C089819A81FC01828193818C
S11317309A83898389819A81FC0182819381FC0146
S1131740208131818B819C818217930760F7898185
S11317509A81FC01228133818F819885FC01338336
S113176022838F819885FC01828193812F81388522
S1131770FC01358324838F81988529813A81FC017A
S11317803583248389819A812F813885FC013383B1
S113179022838F8198852D813E81FC0131872087AA
S11317A08D819E81FC01808121E0280F8D819E81A5
S11317B0FC012083000028960FB6F894DEBF0FBE0C
S11317C0CDBFDF91CF910895CF93DF9300D000D0A8
S11317D0CDB7DEB79C838B838B819C81FC01808594
S11317E091859A8389838B819C81FC018281938179
S11317F02B813C81F90124813581FC0135832483CB
S11318008B819C81FC01848195812B813C81F90130
S113181022813381FC013383228389819A81FC01F3
S1131820218132818B819C812817390751F48B8166
S11318309C81FC012481358189819A81FC01328358
S113184021838B819C81FC011186108689819A8178
S1131850FC0180812FEF280F89819A81FC0120836C
S113186089819A81FC0180810F900F900F900F90D5
S1131870DF91CF910895CF93DF93CDB7DEB728974B
S11318800FB6F894DEBF0FBECDBF9C838B837E83DF
S11318906D8358874F838B819C8121E1FC012083D8
S11318A08B819C8101979C838B838B819C8122E219
S11318B0FC0120838B819C8101979C838B838B818A
S11318C09C8123E3FC0120838B819C8101979C8371
S11318D08B838D819E819A83898329818B819C81CD
S11318E0FC0120838B819C8101979C838B8389815C
S11318F09A81892F99279A83898329818B819C8155
S1131900FC0120838B819C8101979C838B838B8139
S11319109C81FC0110828B819C8101979C838B8329
S11319208B819C8120E8FC0120838B819C81019721
S11319309C838B838B819C81FC0110828B819C8195
S113194001979C838B838B819C8122E0FC01208303
S11319508B819C8101979C838B838B819C8123E069
S1131960FC0120838B819C8101979C838B838B81D9
S11319709C8124E0FC0120838B819C8101979C83C2
S11319808B838B819C8125E0FC0120838B819C814E
S113199001979C838B838B819C8126E0FC012083AF
S11319A08B819C8101979C838B838B819C8127E015
S11319B0FC0120838B819C8101979C838B838B8189
S11319C09C8128E0FC0120838B819C8101979C836E
S11319D08B838B819C8129E0FC0120838B819C81FA
S11319E001979C838B838B819C8120E1FC01208364
S11319F08B819C8101979C838B838B819C8121E1CA
S1131A00FC0120838B819C8101979C838B838B8138
S1131A109C8122E1FC0120838B819C8101979C8322
S1131A208B838B819C8123E1FC0120838B819C81AE
S1131A3001979C838B838B819C8124E1FC0120830F
S1131A408B819C8101979C838B838B819C8125E175
S1131A50FC0120838B819C8101979C838B838B81E8
S1131A609C8126E1FC0120838B819C8101979C83CE
S1131A708B838B819C8127E1FC0120838B819C815A
S1131A8001979C838B838B819C8128E1FC012083BB
S1131A908B819C8101979C838B838B819C8129E121
S1131AA0FC0120838B819C8101979C838B838B8198
S1131AB09C8120E2FC0120838B819C8101979C8383
S1131AC08B838B819C8121E2FC0120838B819C810F
S1131AD001979C838B838B819C8122E2FC01208370
S1131AE08B819C8101979C838B838B819C8123E2D6
S1131AF0FC0120838B819C8101979C838B838F8144
S1131B0098859A83898329818B819C81FC01208318
S1131B108B819C8101979C838B8389819A81892FF6
S1131B2099279A83898329818B819C81FC01208355
S1131B308B819C8101979C838B838B819C8126E282
S1131B40FC0120838B819C8101979C838B838B81F7
S1131B509C8127E2FC0120838B819C8101979C83DB
S1131B608B838B819C8128E2FC0120838B819C8167
S1131B7001979C838B838B819C8129E2FC012083C8
S1131B808B819C8101979C838B838B819C8120E337
S1131B90FC0120838B819C8101979C838B838B81A7
S1131BA09C8121E3FC0120838B819C8101979C8390
S1131BB08B838B819C8128960FB6F894DEBF0FBE71
S1131BC0CDBFDF91CF910895CF93DF93CDB7DEB72B
S1131BD00E94D10EA0916407B0916507CD91CDBF4D
S1131BE0DD91DEBFFF91EF91DF91CF91BF91AF9176
S1131BF09F918F917F916F915F914F913F912F9121
S1131C001F910F91FF90EF90DF90CF90BF90AF9016
S1131C109F908F907F906F905F904F903F902F9008
S1131C201F900F900FBE0F90089581E0DF91CF9128
S1131C3008950F920FB6F8940F921F9211242F92C9
S1131C403F924F925F926F927F928F929F92AF9248
S1131C50BF92CF92DF92EF92FF920F931F932F9335
S1131C603F934F935F936F937F938F939F93AF9320
S1131C70BF93CF93DF93EF93FF93A0916407B09149
S1131C8065070DB60D920EB60D920E94321BA091FF
S1131C906407B0916507CD91CDBFDD91DEBFFF91A3
S1131CA0EF91DF91CF91BF91AF919F918F917F91F0
S1131CB06F915F914F913F912F911F910F91FF90E1
S1131CC0EF90DF90CF90BF90AF909F908F907F90D8
S1131CD06F905F904F903F902F901F900F900FBE8A
S1131CE00F90089500000F920FB6F8940F921F9270
S1131CF011242F923F924F925F926F927F928F9214
S1131D009F92AF92BF92CF92DF92EF92FF920F9386
S1131D101F932F933F934F935F936F937F938F936F
S1131D209F93AF93BF93CF93DF93EF93FF93A091D0
S1131D306407B09165070DB60D920EB60D920E9420
S1131D40451A882311F00E94321BA0916407B091B8
S1131D506507CD91CDBFDD91DEBFFF91EF91DF919E
S1131D60CF91BF91AF919F918F917F916F915F912F
S1131D704F913F912F911F910F91FF90EF90DF9022
S1131D80CF90BF90AF909F908F907F906F905F9017
S1131D904F903F902F901F900F900FBE0F9008957B
S1131DA00000CF93DF9300D000D000D0CDB7DEB7D2
S1131DB089E999E3A0E0B0E089839A83AB83BC838B
S1131DC089819A81AB81BC81689415F8B695A795F1
S1131DD0979587951694D1F789839A83AB83BC83AF
S1131DE089819A81AB81BC810197A109B109898359
S1131DF09A83AB83BC8389818D8389819A81AB81EA
S1131E00BC81892F9A2FAB2FBB2789839A83AB83FD
S1131E10BC8389818E8389E890E02E81FC01208334
S1131E2088E890E02D81FC0120838BE08D8381E89C
S1131E3090E02D81FC0120838FE690E0FC018081FD
S1131E408D838D8182608D838FE690E02D81FC01EE
S1131E502083000026960FB6F894DEBF0FBECDBFD8
S1131E60DF91CF9108950E94730E18950000CF93CF
S1131E70DF9300D000D0CDB7DEB79C838B831A826A
S1131E8019820E94A11980915E0790915F07892BA6
S1131E9031F485E793E090935F0780935E07209188
S1131EA05C0730915D078B819C81820F931F873E75
S1131EB0934038F520915C0730915D078B819C81BC
S1131EC0280F391F80915C0790915D078217930753
S1131ED0C0F420915E0730915F0780915C07909178
S1131EE05D07820F931F9A83898320915C07309149
S1131EF05D078B819C81820F931F90935D07809374
S1131F005C070E94AE1989819A810F900F900F90FF
S1131F100F90DF91CF910895CF93DF9300D0CDB789
S1131F20DEB79A83898300000F900F90DF91CF91E1
S1131F300895CF93DF9300D0CDB7DEB79A8389831A
S1131F4089819A81059729813A8125503109F901BE
S1131F5020812062FC01208300000F900F90DF910C
S1131F60CF9108958F929F92AF92BF92CF92DF92BA
S1131F70EF920F931F93CF93DF93CDB7DEB76197A3
S1131F800FB6F894DEBF0FBECDBF8C834D835E8346
S1131F906F83788729870A87EB86DD86CC86BF86A0
S1131FA0AE86998A888A88E090E00E9403239A8307
S1131FB089838C81882F90E0880F991F805A984FCD
S1131FC029813A81FC01318320838C81882F90E020
S1131FD0880F991F8A5F9E4FFC012081318189817E
S1131FE09A81FC013183208389819A812E853F85E2
S1131FF0FC013383228389819A812C853D85FC01F0
S11320003583248389819A8128893989FC0137831E
S113201026838FE590E0FC0180818B83F89489818D
S11320209A81FC0180819181069729813A81F90185
S11320302081318126503109F90120812260FC017F
S1132040208389819A81FC01808191818C010250D5
S113205011098D819E81AF81B885880F991FAA1FB0
S1132060BB1F880F991FAA1FBB1F880F991FAA1F88
S1132070BB1F9C01AD0180E090E0A1EEB0E0BC018B
S1132080CD010E94DB22DA01C9018150F80180836D
S113209089819A81FC0180819181059728E9FC015D
S11320A0208389819A81FC0180819181049726E0B3
S11320B0FC0120838FE590E02B81FC012083898142
S11320C09A8161960FB6F894DEBF0FBECDBFDF9143
S11320D0CF911F910F91EF90DF90CF90BF90AF9071
S11320E09F908F900895CF93DF9300D000D000D0BD
S11320F0CDB7DEB79B838A837D836C834E838A81CD
S11321009B81FC0182819381892BA9F08E81282FE8
S113211030E08A819B81FC0182819381FC0182A150
S1132120882F90E040E250E0BA01681B790BCB01A4
S11321308217930754F08A819B81FC0182819381E9
S1132140892B29F48E81823010F082E022C019821A
S113215014C08981882F90E02C813D81820F931FC8
S1132160FC0120818A819B81FC0182819381622F01
S11321700E94920A89818F5F898399818E81981741
S113218040F38A819B81FC01808191810E94990F97
S113219080E026960FB6F894DEBF0FBECDBFDF9168
S11321A0CF9108951F920F9200905F000F92112417
S11321B02F933F934F935F936F937F938F939F934B
S11321C0AF93BF93EF93FF93CF93DF931F92CDB75A
S11321D0DEB78091600790916107892B31F186EC1D
S11321E090E0FC0180818983809160079091610770
S11321F0FC018481958169810E94920A8091600723
S113220090916107FC0186819781892B71F08091FF
S1132210600790916107FC012681378180916007F6
S1132220909161076981F901099500000F90DF9190
S1132230CF91FF91EF91BF91AF919F918F917F913A
S11322406F915F914F913F912F910F9000925F009A
S11322500F901F9018951F920F9200905F000F929D
S113226011242F933F934F935F936F937F938F9397
S11322709F93AF93BF93EF93FF93CF93DF931F92FB
S1132280CDB7DEB78091600790916107892BF9F093
S11322908091600790916107FC01828193819E0186
S11322A02F5F3F4FB9010E944A0A882331F486EC1C
S11322B090E02981FC01208313C081EC90E021ECA3
S11322C030E0F90120812F7DFC01208309C081ECDD
S11322D090E021EC30E0F90120812F7DFC01208386
S11322E000000F90DF91CF91FF91EF91BF91AF91DB
S11322F09F918F917F916F915F914F913F912F911A
S11323000F9000925F000F901F9018951F920F92EC
S113231000905F000F9211242F933F934F935F938C
S11323206F937F938F939F93AF93BF93EF93FF9399
S1132330CF93DF931F92CDB7DEB780916207909160
S11323406307892B31F18EEC90E0FC018081898355
S11323508091620790916307FC0184819581698172
S11323600E94920A8091620790916307FC01868122
S11323709781892B71F08091620790916307FC012A
S11323802681378180916207909163076981F90101
S1132390099500000F90DF91CF91FF91EF91BF91CC
S11323A0AF919F918F917F916F915F914F913F91E9
S11323B02F910F9000925F000F901F9018951F921D
S11323C00F9200905F000F9211242F933F934F932D
S11323D05F936F937F938F939F93AF93BF93EF9389
S11323E0FF93CF93DF931F92CDB7DEB7809162073F
S11323F090916307892BF9F08091620790916307AC
S1132400FC01828193819E012F5F3F4FB9010E949D
S11324104A0A882331F48EEC90E02981FC01208360
S113242013C089EC90E029EC30E0F90120812F7D84
S1132430FC01208309C089EC90E029EC30E0F9012B
S113244020812F7DFC01208300000F90DF91CF912C
S1132450FF91EF91BF91AF919F918F917F916F9178
S11324605F914F913F912F910F9000925F000F90D9
S11324701F901895CF93DF9300D000D01F92CDB753
S1132480DEB79C838B836D838B819C819A83898344
S11324900FB6F8940F9289819A81FC018081918111
S11324A029813A81F901238D422F50E029813A8113
S11324B0F901248D222F30E0429FB001439F700D1B
S11324C0529F700D11249B01280F391F89819A8115
S11324D0FC013383228389819A81FC01128E8981D4
S11324E09A81FC012081318189819A81FC013583A3
S11324F0248389819A81FC018081918129813A8197
S1132500F901238D222F30E0A9014150510929817D
S11325103A81F901248D222F30E0429FB001439F7C
S1132520700D529F700D11249B01280F391F898152
S11325309A81FC013783268389819A812FEFFC01DC
S1132540258F89819A812FEFFC01268F8D81882325
S113255081F489819A81FC0180858823A1F0898195
S11325609A8108960E94DB1B882369F00E94190E49
S11325700AC089819A8108960E94D50A89819A8124
S113258041960E94D50A0F900FBE81E00F900F90E4
S11325900F900F900F90DF91CF9108950F931F9399
S11325A0CF93DF93CDB7DEB729970FB6F894DEBF8C
S11325B00FBECDBF8F83688749878885882319F428
S11325C01A8219820FC08F81482F50E08885282FE6
S11325D030E0429FC001439F900D529F900D112403
S11325E09A83898389819A8181960E94370F9C837B
S11325F08B838B819C81892B81F08B819C8181963B
S11326009E838D832B813C818D819E8189012985C7
S1132610AC0168858F810E941A138B819C81299655
S11326200FB6F894DEBF0FBECDBFDF91CF911F91DF
S11326300F9108950F931F93CF93DF93CDB7DEB718
S113264027970FB6F894DEBF0FBECDBF89836A8388
S11326505C834B832D831F830E838A81882341F4FB
S11326608E819F812E813F81FC013183208307C0AD
S11326708E819F812B813C81FC01318320838E815B
S11326809F812981FC01238F8E819F812A81FC01F6
S1132690248F8E819F8161E00E943A128E819F81F6
S11326A02D81FC0120A3000027960FB6F894DEBF0D
S11326B00FBECDBFDF91CF911F910F910895CF939E
S11326C0DF9300D0CDB7DEB79A83898389819A815D
S11326D0892BB9F089819A81FC0113821282898144
S11326E09A81FC011182108289819A81FC011682EF
S11326F089819A8120E040E050E060E070E00E942F
S1132700A71300000F900F90DF91CF910895CF93FE
S1132710DF9300D000D01F92CDB7DEB78D8381E068
S113272089831A824D816A8189810E94CE129C8399
S11327308B838B819C810E945F138B819C810F9082
S11327400F900F900F900F90DF91CF910895CF933A
S1132750DF93CDB7DEB72E970FB6F894DEBF0FBE6A
S1132760CDBF998788877B876A875D874C872E874B
S11327701982888599859B838A830FB6F8940F9272
S11327808A819B81FC01228D8A819B81FC01838D3E
S1132790281718F08E85823011F52A853B858A81A9
S11327A09B814E85B9010E94AD158C838A819B81E2
S11327B0FC018189882351F08A819B8141960E9482
S11327C0DB1B882341F00E94190E05C08C818823ED
S11327D011F00E94190E0F900FBE81E060C08C852D
S11327E09D85892B21F40F900FBE80E058C089810C
S11327F0882331F4CE0105960E94481C81E0898328
S11328000F900FBE0E94A1190FB6F8940F928A81FF
S11328109B81FC01858D8F3F21F48A819B81FC0182
S1132820158E8A819B81FC01868D8F3F21F48A81DC
S11328309B81FC01168E0F900FBE9E01245F3F4FBB
S1132840CE010596B9010E94641C882309F58A818A
S11328509B810E944A178823A1F02C853D858A819B
S11328609B810896B9010E94B81B8A819B810E94B2
S1132870CE160E94AE19882309F07FCF0E94190E4C
S11328807CCF8A819B810E94CE160E94AE1975CF9F
S11328908A819B810E94CE160E94AE1980E02E96FA
S11328A00FB6F894DEBF0FBECDBFDF91CF91089570
S11328B0CF93DF93CDB7DEB72C970FB6F894DEBF76
S11328C00FBECDBF9F838E83798768875B874A87D6
S11328D02C878E819F819B838A831C828A819B8122
S11328E0FC01228D8A819B81FC01838D281718F0BD
S11328F08C85823089F58A819B81FC01868D8D834C
S1132900288539858A819B814C85B9010E94AD1542
S11329108D818F3FB9F48A819B81FC018189882351
S1132920C1F08A819B8141960E94DB1B882389F038
S11329308A859B85892B69F08A859B8521E0FC012A
S1132940208307C08D818F5F282F8A819B81FC01A2
S1132950268F81E0898301C0198289812C960FB664
S1132960F894DEBF0FBECDBFDF91CF910895CF9312
S1132970DF93CDB7DEB760970FB6F894DEBF0FBE16
S1132980CDBF9B878A877D876C875F874E87288B1F
S113299019828A859B859B838A830FB6F8940F924C
S11329A08A819B81FC01828D8C838C81882309F42C
S11329B051C08A819B81FC01868197819E838D838E
S11329C02C853D858A819B81B9010E947D16888969
S11329D0882331F58C812FEF280F8A819B81FC019C
S11329E0228F8A819B81FC0180819181892B41F412
S11329F00E94C41E9C018A819B81FC013383228333
S1132A008A819B81FC018085882301F18A819B81D5
S1132A1008960E94DB1B8823C9F00E94190E16C079
S1132A208A819B812D813E81FC01378326838A81A3
S1132A309B81FC018189882349F08A819B8141968D
S1132A400E94DB1B882311F00E94190E0F900FBE09
S1132A5081E07AC08E859F85892B21F40F900FBE6B
S1132A6080E072C08981882331F4CE0107960E94E8
S1132A70481C81E089830F900FBE0E94A1190FB6F4
S1132A80F8940F928A819B81FC01858D8F3F21F4FC
S1132A908A819B81FC01158E8A819B81FC01868D34
S1132AA08F3F21F48A819B81FC01168E0F900FBE0B
S1132AB09E01225F3F4FCE010796B9010E94641C1C
S1132AC08823A1F58A819B810E942C17882339F1E0
S1132AD08A819B81FC0180819181892B61F40FB6ED
S1132AE0F8940F928A819B81FC01828193810E94D8
S1132AF0AF1D0F900FBE2E853F858A819B81419625
S1132B00B9010E94B81B8A819B810E94CE160E9443
S1132B10AE19882309F041CF0E94190E3ECF8A8155
S1132B209B810E94CE160E94AE1937CF8A819B8169
S1132B300E94CE160E94AE198A819B810E942C1796
S1132B40882309F42ACF80E060960FB6F894DEBF9C
S1132B500FBECDBFDF91CF910895CF93DF93CDB753
S1132B60DEB727970FB6F894DEBF0FBECDBF9C83A8
S1132B708B837E836D834F8319828B819C81FC01BF
S1132B80828D8A838B819C81FC01848D8823B1F49E
S1132B908B819C81FC0180819181892B09F09CC0EF
S1132BA08B819C81FC01828193810E94471E8983D1
S1132BB08B819C81FC01138212828EC08F818823B9
S1132BC0D9F58B819C81FC01848D482F50E08B8149
S1132BD09C81FC01848195812D813E81B9010E94F3
S1132BE024248B819C81FC01248135818B819C81EF
S1132BF0FC01848D882F90E0280F391F8B819C81E4
S1132C00FC01358324838B819C81FC0124813581E3
S1132C108B819C81FC01828193812817390708F4F8
S1132C205BC08B819C81FC01208131818B819C81E3
S1132C30FC013583248350C08B819C81FC01848DED
S1132C40482F50E08B819C81FC01868197812D81E6
S1132C503E81B9010E9424248B819C81FC01268140
S1132C6037818B819C81FC01848D882F90E0919524
S1132C7081959109280F391F8B819C81FC01378331
S1132C8026838B819C81FC01268137818B819C81E9
S1132C90FC018081918128173907A8F48B819C81DC
S1132CA0FC01228133818B819C81FC01848D882FDE
S1132CB090E0919581959109280F391F8B819C8112
S1132CC0FC01378326838F81823031F48A81882303
S1132CD019F08A8181508A838A8121E0280F8B81AF
S1132CE09C81FC01228F898127960FB6F894DEBF60
S1132CF00FBECDBFDF91CF910895CF93DF9300D066
S1132D0000D0CDB7DEB79A8389837C836B838981B6
S1132D109A81FC01848D8823C9F189819A81FC01FF
S1132D202681378189819A81FC01848D882F90E0E6
S1132D30280F391F89819A81FC0137832683898171
S1132D409A81FC012681378189819A81FC018281E3
S1132D5093812817390750F089819A81FC012081D9
S1132D60318189819A81FC013783268389819A8103
S1132D70FC01848D482F50E089819A81FC012681D1
S1132D8037818B819C81B9010E94242400000F901B
S1132D900F900F900F90DF91CF910895CF93DF9311
S1132DA000D000D0CDB7DEB79C838B830FB6F894E8
S1132DB00F928B819C81FC01868D898312C08B814B
S1132DC09C81FC018189882381F08B819C814196BF
S1132DD00E94DB1B882311F00E94CC1C8981815046
S1132DE08983898118165CF301C000008B819C8162
S1132DF02FEFFC01268F0F900FBE0FB6F8940F92A1
S1132E008B819C81FC01858D8A8312C08B819C817E
S1132E10FC018085882381F08B819C8108960E9427
S1132E20DB1B882311F00E94CC1C8A8181508A8389
S1132E308A8118165CF301C000008B819C812FEFFE
S1132E40FC01258F0F900FBE00000F900F900F9084
S1132E500F90DF91CF910895CF93DF9300D01F920D
S1132E60CDB7DEB79B838A830FB6F8940F928A811D
S1132E709B81FC01828D882319F481E0898301C040
S1132E8019820F900FBE89810F900F900F90DF91E0
S1132E90CF910895CF93DF9300D01F92CDB7DEB7C3
S1132EA09B838A830FB6F8940F928A819B81FC01DD
S1132EB0228D8A819B81FC01838D281719F481E07E
S1132EC0898301C019820F900FBE89810F900F90E2
S1132ED00F90DF91CF9108958F929F92AF92BF92FE
S1132EE0CF92DF92EF92FF920F931F93CF93DF93D2
S1132EF0CDB7DEB760970FB6F894DEBF0FBECDBF77
S1132F009F838E83798768875B874A873D872C8771
S1132F100E87F88AEF868A859B850E94370F9D83EA
S1132F208C838C819D81892BB9F08CE290E00E9486
S1132F30370F9A83898389819A81892B41F089810A
S1132F409A812C813D81FC01308F278B07C08C81B5
S1132F509D810E948C0F02C01A82198289819A81F4
S1132F60892B09F18A859B85CC01A0E0B0E0098119
S1132F701A814F8558892C853D8568857985EE8130
S1132F80FF81812C912C58016A01EE8489019C01F6
S1132F90AD01CF010E94E91789819A810E94C51869
S1132FA081E08B8302C08FEF8B838B8160960FB699
S1132FB0F894DEBF0FBECDBFDF91CF911F910F916B
S1132FC0FF90EF90DF90CF90BF90AF909F908F9045
S1132FD008958F929F92AF92BF92CF92DF92EF9219
S1132FE00F931F93CF93DF93CDB7DEB764970FB6DC
S1132FF0F894DEBF0FBECDBF9D838C837F836E8329
S1133000288739874A875B871D870C87EE86D88A8D
S1133010CF86BA8AA98A9C8A8B8A28853985898928
S11330209A89FC018789908DA90165EA70E00E9464
S11330302D2489899A89FC012789308D8885998571
S11330400197820F931F9B838A83198221C08981F0
S1133050882F90E02981222F30E04E815F81240F58
S1133060351FF901408129893A89820F931F4996B6
S1133070FC0140838981882F90E02E813F81820F5B
S1133080931FFC018081882339F089818F5F8983B4
S113309089818830E0F201C0000089899A89FC01A5
S11330A010A28E85843010F083E08E8789899A89F6
S11330B02E85FC01268B89899A892E85FC0123A300
S11330C089899A89FC0114A289899A8902960E94A5
S11330D00B0B89899A890C960E940B0B89899A8912
S11330E029893A89FC01318720878E85882F90E0D1
S11330F024E030E0281B390B89899A89FC01358743
S1133100248789899A8929893A89FC01338B228BFE
S113311089899A89FC0116A215A289899A89FC01D8
S113312017A210A611A612A689899A89FC0113A6D2
S11331304C855D852C813D818A819B81B9010E94EA
S11331403B0C9C0189899A89FC01318320838F85FA
S11331509889892B39F08F85988929893A89FC01C6
S113316031832083000064960FB6F894DEBF0FBE4F
S1133170CDBFDF91CF911F910F91EF90DF90CF9052
S1133180BF90AF909F908F900895CF93DF9300D01E
S1133190CDB7DEB79A8389830FB6F8940F928091E6
S11331A0B3078F5F8093B30780916407909165079D
S11331B0892B69F489819A819093650780936407C8
S11331C08091B3078130C9F40E94E91C16C0809134
S11331D0B707882391F48091640790916507FC01F7
S11331E0268989819A81FC018689821730F0898138
S11331F09A8190936507809364078091BB078F5FE2
S11332008093BB072091BB0789819A81FC0121A38C
S113321089819A81FC0196898091B607891730F4D7
S113322089819A81FC0186898093B60789819A8174
S1133230AC014E5F5F4F89819A81FC018689282FFA
S113324030E0C901880F991F880F991F880F991FB3
S1133250820F931F8A59984FBA010E941D0B0F9039
S11332600FBE8091B707882371F080916407909115
S11332706507FC01268989819A81FC0186892817C2
S113328010F40E94190E00000F900F90DF91CF915F
S11332900895CF93DF9300D01F92CDB7DEB79B8301
S11332A08A8319828A819B81892B51F00E94A119FA
S11332B08A819B8160E00E94DE1E0E94AE19898390
S11332C08981882311F40E94190E00000F900F9039
S11332D00F90DF91CF910895EF92FF920F93CF93C8
S11332E0DF931F92CDB7DEB70F2EFEEBEF2EF7E084
S11332F0FF2EF02D00E020E030E045E550E06DE5E4
S113330071E087ED9CE10E946C178983898181308B
S113331081F4F8948FEF9FEF9093BD078093BC07DF
S113332081E08093B7071092B5071092B4070E940A
S1133330E40D00000F90DF91CF910F91FF90EF907B
S11333400895CF93DF93CDB7DEB78091C0078F5F29
S11333508093C0070000DF91CF910895CF93DF934E
S113336000D000D0CDB7DEB71A8219821B820FB607
S1133370F8940F928091C00781508093C007809188
S1133380C007882309F077C08091B307882309F424
S113339072C049C08091A5079091A607FC0186815F
S11333A097819A83898389819A810C960E94E40B80
S11333B089819A8102960E94E40B89819A81FC0199
S11333C096898091B607891730F489819A81FC0126
S11333D086898093B60789819A81AC014E5F5F4FDD
S11333E089819A81FC018689282F30E0C901880FE0
S11333F0991F880F991F880F991F820F931F8A594D
S1133400984FBA010E941D0B89819A81FC0126897B
S11334108091640790916507FC018689281718F04C
S113342081E08093B9078091A007882309F0B2CF87
S113343089819A81892B11F00E94801D8091B8079F
S11334408C838C81882379F00E94451A882319F093
S113345081E08093B9078C8181508C838C8188238F
S113346099F71092B8078091B907882321F081E079
S11334708B830E94190E0F900FBE8B810F900F90BB
S11334800F900F90DF91CF910895CF93DF93CDB735
S1133490DEB729970FB6F894DEBF0FBECDBF1982F1
S11334A08091C007882309F0C8C08091B407909127
S11334B0B50701969B838A838A819B819093B50784
S11334C08093B4078A819B81892BD9F480919C07CE
S11334D090919D079D838C8380919E0790919F0777
S11334E090939D0780939C078C819D8190939F0767
S11334F080939E078091BA078F5F8093BA070E94DA
S1133500801D8091BC079091BD072A813B812817BB
S1133510390708F478C080919C0790919D07FC01BD
S11335208081882339F48FEF9FEF9093BD078093B8
S1133530BC0769C080919C0790919D07FC0185811F
S11335409681FC01868197819F838E838E819F81E2
S1133550FC0182819381998788872A813B818885B0
S113356099852817390738F4888599859093BD077C
S11335708093BC0748C08E819F8102960E94E40B11
S11335808E819F81FC0184899589892B29F08E8104
S11335909F810C960E94E40B8E819F81FC01968989
S11335A08091B607891730F48E819F81FC0186894A
S11335B08093B6078E819F81AC014E5F5F4F8E81F1
S11335C09F81FC018689282F30E0C901880F991F4B
S11335D0880F991F880F991F820F931F8A59984F3C
S11335E0BA010E941D0B8E819F81FC012689809166
S11335F0640790916507FC018689281708F48BCF2E
S113360081E0898388CF8091640790916507FC01EC
S11336108689282F30E0C901880F991F880F991FC8
S1133620880F991F820F931F8A59984FFC0180813C
S1133630823040F081E0898305C08091B8078F5FB4
S11336408093B8078091B907882311F081E08983BA
S1133650898129960FB6F894DEBF0FBECDBFDF91E6
S1133660CF910895CF93DF9300D01F92CDB7DEB7EB
S11336708091C007882321F081E08093B90771C04D
S11336801092B9078091640790916507FC0185A1A8
S113369096A10E941D0A8091B607898303C089817F
S11336A0815089838981282F30E0C901880F991FAF
S11336B0880F991F880F991F820F931F8A59984F5B
S11336C0FC018081882359F38981282F30E0C901C6
S11336D0880F991F880F991F880F991F820F931FB6
S11336E08A59984F9B838A838A819B81FC018181BB
S11336F09281FC01228133818A819B81FC01328386
S113370021838A819B81FC01218132818A819B8171
S113371003962817390769F48A819B81FC0181810A
S11337209281FC01228133818A819B81FC01328355
S113373021838A819B81FC0181819281FC018681A4
S11337409781909365078093640789818093B60776
S11337508091640790916507FC0185A196A10E9460
S1133760F80900000F900F900F90DF91CF9108950A
S1133770CF93DF9300D000D0CDB7DEB79A8389838F
S11337807C836B8380916407909165079C01245F1F
S11337903F4F89819A81B9010E946C0B8B819C8176
S11337A061E00E94DE1E00000F900F900F900F90BA
S11337B0DF91CF910895CF93DF9300D000D01F9273
S11337C0CDB7DEB79D838C838C819D81FC0185817F
S11337D09681FC01868197819B838A838A819B8160
S11337E00C960E94E40B8091C007882369F58A81B6
S11337F09B8102960E94E40B8A819B81FC0196893D
S11338008091B607891730F48A819B81FC018689EF
S11338108093B6078A819B81AC014E5F5F4F8A819A
S11338209B81FC018689282F30E0C901880F991FEC
S1133830880F991F880F991F820F931F8A59984FD9
S1133840BA010E941D0B08C08A819B810C96BC01A1
S113385080EA97E00E941D0B8A819B81FC012689E6
S11338608091640790916507FC018689821730F482
S113387081E0898381E08093B90701C0198289813D
S11338800F900F900F900F900F90DF91CF910895AC
S1133890CF93DF9300D0CDB7DEB79A83898320918D
S11338A0BA0789819A81FC0120832091B407309161
S11338B0B50789819A81FC013283218300000F902E
S11338C00F90DF91CF910895CF93DF93CDB7DEB7FB
S11338D027970FB6F894DEBF0FBECDBF9D838C83B0
S11338E07F836E830FB6F8940F928091B407909102
S11338F0B5079B838A838C819D81FC019081809193
S1133900BA07981769F08C819D81FC01218132816D
S11339108A819B818217930718F081E0898330C0E4
S11339208C819D81FC01818192812A813B81281BAC
S1133930390B8E819F81FC01808191812817390781
S1133940E8F48E819F81FC01208131818C819D81ED
S1133950FC01418152818A819B81BA01681B790BE8
S1133960CB01280F391F8E819F81FC013183208375
S11339708C819D810E94481C198202C081E0898348
S11339800F900FBE898127960FB6F894DEBF0FBE45
S1133990CDBFDF91CF910895CF93DF93CDB7DEB73D
S11339A081E08093B9070000DF91CF910895CF9310
S11339B0DF9300D0CDB7DEB79A8389830E94271D99
S11339C080916607823010F00E94190E0E943E0812
S11339D0F5CFCF93DF931F92CDB7DEB7198213C013
S11339E08981282F30E0C901880F991F880F991FFA
S11339F0880F991F820F931F8A59984F0E94D50AE6
S1133A0089818F5F89838981843050F38AE897E0C4
S1133A100E94D50A83E997E00E94D50A80EA97E0DC
S1133A200E94D50A89EA97E00E94D50A8AE897E0BD
S1133A3090939D0780939C0783E997E090939F0759
S1133A4080939E0700000F90DF91CF910895CF934C
S1133A50DF9300D01F92CDB7DEB72FC00E94A1190B
S1133A609091A90781E0992309F080E089830E945D
S1133A70AE198981882309F50FB6F8940F928091C5
S1133A80AE079091AF07FC01868197819B838A835F
S1133A908A819B8102960E94E40B8091B307815036
S1133AA08093B3078091B20781508093B2070F903F
S1133AB00FBE8A819B810E94681D8091B207882372
S1133AC069F600000F900F900F90DF91CF91089549
S1133AD0CF93DF9300D0CDB7DEB79A8389838981F2
S1133AE09A81FC018789908D0E948C0F89819A812B
S1133AF00E948C0F00000F900F90DF91CF910895DA
S1133B00CF93DF9300D0CDB7DEB780919C0790911F
S1133B109D07FC018081882339F48FEF9FEF9093F8
S1133B20BD078093BC0715C080919C0790919D07A9
S1133B30FC0185819681FC01868197819A83898322
S1133B4089819A81FC01828193819093BD0780933E
S1133B50BC0700000F900F90DF91CF910895CF9391
S1133B60DF9300D000D0CDB7DEB79C838B838B81ED
S1133B709C819A8389838B819C81892B09F47FC0E2
S1133B8089819A81FC012689809164079091650757
S1133B90FC018689281708F072C089819A81FC018A
S1133BA08485958599238CF08091640790916507AD
S1133BB0FC018689882F90E024E030E0281B390B33
S1133BC089819A81FC013587248789819A81FC0146
S1133BD04285538589819A81FC018689282F30E0AA
S1133BE0C901880F991F880F991F880F991F820F89
S1133BF0931F8A59984F48175907B9F589819A81B3
S1133C0002960E94E40B8091640790916507FC0181
S1133C10268989819A81FC01268B89819A81FC01FC
S1133C2096898091B607891730F489819A81FC01BD
S1133C3086898093B60789819A81AC014E5F5F4F74
S1133C4089819A81FC018689282F30E0C901880F77
S1133C50991F880F991F880F991F820F931F8A59E4
S1133C60984FBA010E941D0B0AC08091640790917D
S1133C706507FC01268989819A81FC01268B000055
S1133C800F900F900F900F90DF91CF910895CF93E5
S1133C90DF9300D000D01F92CDB7DEB79D838C8315
S1133CA08C819D819B838A8319828C819D81892B40
S1133CB009F461C08A819B81FC0184A12FEF280F44
S1133CC08A819B81FC0124A38A819B81FC01268932
S1133CD08A819B81FC0183A1281709F44CC08A8145
S1133CE09B81FC0184A1882309F045C08A819B81C2
S1133CF002960E94E40B8A819B81FC0123A18A81A4
S1133D009B81FC01268B8A819B81FC018689882FFB
S1133D1090E024E030E0281B390B8A819B81FC0170
S1133D20358724878A819B81FC0196898091B60717
S1133D30891730F48A819B81FC0186898093B607B8
S1133D408A819B81AC014E5F5F4F8A819B81FC011C
S1133D508689282F30E0C901880F991F880F991F81
S1133D60880F991F820F931F8A59984FBA010E9496
S1133D701D0B81E0898389810F900F900F900F9024
S1133D800F90DF91CF910895CF93DF93CDB7DEB736
S1133D908091640790916507892B49F080916407AD
S1133DA090916507FC0124A12F5FFC0124A380915D
S1133DB0640790916507DF91CF910895CF93DF93C6
S1133DC0CDB7DEB727970FB6F894DEBF0FBECDBFD1
S1133DD09E838D836F838091B4079091B5079A83F6
S1133DE08983809164079091650702960E94E40B91
S1133DF029813A818D819E81820F931F9C838B83BD
S1133E0080916407909165072B813C81FC01338389
S1133E1022832B813C8189819A812817390778F480
S1133E2080916407909165079C012E5F3F4F8091BC
S1133E309E0790919F07B9010E946C0B1DC0809151
S1133E406407909165079C012E5F3F4F80919C070A
S1133E5090919D07B9010E946C0B8091BC079091D1
S1133E60BD072B813C812817390730F48B819C8155
S1133E709093BD078093BC07000027960FB6F89473
S1133E80DEBF0FBECDBFDF91CF9108955058BB2741
S1133E90AA270E945E1F0C943D200E942F2038F018
S1133EA00E94362020F039F49F3F19F426F40C9434
S1133EB02C200EF4E095E7FB0C942620E92F0E94B9
S1133EC04E2058F3BA17620773078407950720F04A
S1133ED079F4A6F50C9470200EF4E0950B2EBA2F0D
S1133EE0A02D0B01B90190010C01CA01A0011124FC
S1133EF0FF27591B99F0593F50F4503E68F11A16A8
S1133F00F040A22F232F342F4427585FF3CF469538
S1133F1037952795A795F0405395C9F77EF41F165A
S1133F20BA0B620B730B840BBAF09150A1F0FF0F24
S1133F30BB1F661F771F881FC2F70EC0BA0F621F10
S1133F40731F841F48F4879577956795B795F79500
S1133F509E3F08F0B0CF9395880F08F09927EE0F95
S1133F609795879508950E94BA1F6894B1110C948F
S1133F70712008950E94562088F09F5798F0B92F19
S1133F809927B751B0F0E1F0660F771F881F991F8A
S1133F901AF0BA95C9F714C0B13091F00E9470209C
S1133FA0B1E008950C947020672F782F8827B85FAC
S1133FB039F0B93FCCF3869577956795B395D9F7E2
S1133FC03EF490958095709561957F4F8F4F9F4FEC
S1133FD00895E89409C097FB3EF4909580957095F8
S1133FE061957F4F8F4F9F4F9923A9F0F92F96E941
S1133FF0BB279395F695879577956795B795F111B6
S1134000F8CFFAF4BB0F11F460FF1BC06F5F7F4F52
S11340108F4F9F4F16C0882311F096E911C0772364
S113402021F09EE8872F762F05C0662371F096E86D
S1134030862F70E060E02AF09A95660F771F881F3C
S1134040DAF7880F9695879597F9089597F99F67FA
S113405080E870E060E008959FEF80EC089500240C
S11340600A941616170618060906089500240A94D9
S113407012161306140605060895092E0394000C5F
S113408011F4882352F0BB0F40F4BF2B11F460FFEE
S113409004C06F5F7F4F8F4F9F4F089557FD905817
S11340A0440F551F59F05F3F71F04795880F97FBF8
S11340B0991F61F09F3F79F08795089512161306B2
S11340C01406551FF2CF4695F1DF08C016161706E1
S11340D01806991FF1CF8695710561050894089516
S11340E0E894BB2766277727CB0197F90895FA014F
S11340F0EE0FFF1F309621053105A1F16115710501
S113410061F48038BFE39B0749F1689490388105D6
S113411061F08038BFEF9B0741F099234AF5FF3FD8
S1134120E1053105210519F1E8940894E795D901D1
S1134130AA2329F4AB2FBE2FF85FD0F310C0FF5F82
S113414070F4A695E0F7F73950F019F0FF3A38F417
S11341509F779F930DD00F9007FC9058089546F0D9
S11341600C942C2060E070E080E89FE308954FE712
S11341709F775F934F933F932F930E9472212F91C8
S11341803F914F915F910E94EE210C94CF2029F42E
S113419016F00C9426200C9470200C942C200E9471
S11341A05620A8F39638A0F707F80F92E8942BE36B
S11341B03AEA48EB5FE70E9404220F920F920F92B3
S11341C04DB75EB70F920E94BA21EAEEF0E00E946A
S11341D001214F915F91EF91FF91E595EE1FFF1F34
S11341E049F0FE57E0684427EE0F441FFA95E1F7C3
S11341F04195550B0E9434210F9007FE0C94282101
S11342000895DF93CF931F930F93FF92EF92DF9262
S11342107B018C01689406C0DA2EEF010E94012212
S1134220FE01E894A5912591359145915591A6F308
S1134230EF010E945E1FFE019701A801DA9469F75D
S1134240DF90EF90FF900F911F91CF91DF91089530
S11342509B01AC0160E070E080E89FE30C945B227A
S11342600C9426200C94CD220E945620D8F3992336
S1134270C9F3940F511DA3F39150504094F059F099
S1134280882332F0660F771F881F91505040C1F782
S11342909E3F51052CF7880F911D9695879597F9A8
S11342A008955F3FACF0983E9CF0BB2786957795C8
S11342B06795B79508F4B1609395C1F7BB0F58F7AC
S11342C011F460FFE8CF6F5F7F4F8F4F9F4FE3CFB5
S11342D00C94712016F00C94CD220C942C2068942C
S11342E00C9426200E945620A8F39923C1F3AEF320
S11342F0DF93CF931F930F93FF92C92FDD2788235A
S11343002AF02197660F771F881FDAF720E030E044
S113431040E85FEB9FE3883920F0803E38F0219637
S11343208F770E94471FE2E1F1E004C00E94471F1B
S1134330EFE3F1E00E9401218B01BE01EC01FB2EB1
S11343406F5771097595771F880B990B0E94EB1FA6
S113435028E132E741E35FE30E940122AF2D980197
S1134360AE01FF900F911F91CF91DF910E945E1FCC
S11343700C943D20FA01DC01AA0FBB1F9B01AC0188
S1134380BF5728F4222733274427507820C0B75139
S113439090F4AB2F0024469537952795011CA395DF
S11343A0D2F3002071F0220F331F441FB395DAF3C8
S11343B00ED00C94461F61307105A0E88A07B946F7
S11343C030F49B01AC0166277727882790783096D4
S11343D021F0208331834283538308950E94012274
S11343E00C943D200E942F2038F00E94362020F0AB
S11343F0952311F00C9426200C942C2011240C9459
S113440071200E944E2070F3959FC1F3950F50E0E8
S1134410551F629FF001729FBB27F00DB11D639F72
S1134420AA27F00DB11DAA1F649F6627B00DA11D18
S1134430661F829F2227B00DA11D621F739FB00DBE
S1134440A11D621F839FA00D611D221F749F33272E
S1134450A00D611D231F849F600D211D822F762FC7
S11344606A2F11249F5750409AF0F1F088234AF0A4
S1134470EE0FFF1FBB1F661F771F881F9150504010
S1134480A9F79E3F510580F00C9426200C947120CE
S11344905F3FE4F3983ED4F3869577956795B79597
S11344A0F795E7959F5FC1F7FE2B880F911D9695B1
S11344B0879597F908950E946F220C943D200E94DD
S11344C0362058F00E942F2040F029F45F3F29F055
S11344D00C94262051110C9471200C942C200E94D1
S11344E04E2068F39923B1F3552391F3951B550B93
S11344F0BB27AA2762177307840738F09F5F5F4FB3
S1134500220F331F441FAA1FA9F335D00E2E3AF0F1
S1134510E0E832D091505040E695001CCAF72BD009
S1134520FE2F29D0660F771F881FBB1F261737075A
S11345304807AB07B0E809F0BB0B802DBF01FF278C
S113454093585F4F3AF09E3F510578F00C94262023
S11345500C9471205F3FE4F3983ED4F386957795ED
S11345606795B795F7959F5FC9F7880F911D969545
S1134570879597F90895E1E0660F771F881FBB1FA1
S1134580621773078407BA0720F0621B730B840B4E
S1134590BA0BEE1F88F7E09508959F3F31F09150D4
S11345A020F4879577956795B795880F911D969513
S11345B0879597F90895A1E21A2EAA1BBB1BFD014A
S11345C00DC0AA1FBB1FEE1FFF1FA217B307E407EE
S11345D0F50720F0A21BB30BE40BF50B661F771F46
S11345E0881F991F1A9469F7609570958095909526
S11345F09B01AC01BD01CF010895EE0FFF1F059093
S1134600F491E02D09940F931F93CF93DF9382309D
S1134610910510F482E090E0E091C307F091C407A3
S113462020E030E0A0E0B0E0309719F14081518102
S11346300281138148175907C8F08417950769F454
S1134640109731F012960C93129713961C9327C06F
S11346500093C3071093C40722C02115310519F034
S11346604217530718F49A01BD01EF01DF01F80165
S1134670DBCF21153105F9F0281B390B2430310526
S113468080F48A819B816115710521F0FB0193837C
S1134690828304C09093C4078093C307FE013296BB
S11346A044C0FE01E20FF31F81939193225031091C
S11346B0398328833AC02091C1073091C207232B44
S11346C041F420910201309103013093C2072093F9
S11346D0C10720910001309101012115310541F4F8
S11346E02DB73EB74091040150910501241B350BB1
S11346F0E091C107F091C207E217F307A0F42E1B63
S11347003F0B2817390778F0AC014E5F5F4F241731
S1134710350748F04E0F5F1F5093C2074093C107FF
S11347208193919302C0E0E0F0E0CF01DF91CF915B
S11347301F910F910895CF93DF93009709F481C0DF
S1134740FC01329713821282A091C307B091C4076F
S1134750109781F420813181820F931F2091C1072A
S11347603091C2072817390751F5F093C207E09337
S1134770C10767C0ED0120E030E0CE17DF0740F449
S11347804A815B819E0141155105F1F0EA01F5CFA3
S1134790D383C28340815181840F951FC817D907E1
S11347A059F488819981840F951F0296918380839F
S11347B08A819B81938382832115310529F4F093A7
S11347C0C407E093C3073DC0E901FB83EA83499131
S11347D05991C40FD51FEC17FD0761F480819181B5
S11347E0840F951F0296E9019983888382819381BE
S11347F09B838A83E0E0F0E012968D919C9113975D
S1134800009719F0FD01DC01F7CF8D919C91119770
S11348109D012E5F3F4F820F931F2091C10730915E
S1134820C2072817390769F4309729F41092C4078E
S11348301092C30702C013821282B093C207A093DE
S1134840C107DF91CF910895FB01DC0102C0019003
S11348500D9241505040D8F70895DC0101C06D938A
S10F486041505040E0F70895F894FFCF59
S113486C0000C5072000C600CE0047414D45204F2F
S113487C5645520A0044454144210A006D6F766541
S113488C0052656164206A6F79737469636B0047C5
S113489C616D652070726F63657373696E67004D2B
S11348AC616B65206672616D6500436F6D6D756E2D
S11348BC69636174652073657269616C0049444C69
S10548CC4500A1
S9030000FC
