S01500004672656552544F532D546573742E7372656378
S11300000C943E000C945B000C945B000C945B001D
S11300100C945B000C945B000C945B000C945B00F0
S11300200C945B000C945B000C945B000C945B00E0
S11300300C945B000C94F0030C945B000C945B0038
S11300400C943D010C945B000C945B000C945B00DD
S11300500C94E6040C9424050C945B000C945B0053
S11300600C945B000C945B000C945B000C945B00A0
S11300700C946C050C94AA050C945B0011241FBE0F
S1130080CFEFD8E0DEBFCDBF11E0A0E0B1E0ECE8F7
S1130090FBE102C005900D92AE32B107D9F725E01D
S11300A0AEE2B1E001C01D92AA3EB207E1F70E94A0
S11300B0E4000C94C40D0C94000060E050E0C0E037
S11300C010E0D1E013C0C0E06D2F5D2F0FC0C0E081
S11300D06D2F5D2F0BC0C0E06D2F5D2F07C0C0E0FA
S11300E06D2F5D2F03C0C0E001C0C0E086B18270F7
S11300F036B126B196B149B190FD03C0CF3018F79F
S1130100CF5F811103C0CF3010F7CF5F26FD03C04E
S1130110CF3008F7CF5F33231CF0CF3000F7CF5F29
S113012043FD11C0CF3010F4CF5F0DC05523D9F279
S11301306111DBCFC0E064E08AE091E00E946601D7
S1130140612F512FD3CF5111F6CF612FCFCF5A9AB0
S113015008955D9A5D985C9A5C985A980895809584
S113016082B985B1836085B985B1937090958923EF
S113017085B90895CF93C0912E01C1110EC00E947C
S1130180A70080913101909132010E94AF000E943A
S1130190A90081E080932E0114C0EC2FF0E0EE0F53
S11301A0FF1FEF5CFE4F808191810E94AF000E948F
S11301B0A900CE3020F4CF5FC0932E0102C010926C
S11301C02E01CF91089508950E946F015E9881E0F9
S11301D00E94AD0781E00E94AD0781E00E94AD0757
S11301E081E00E94AD079093300180932F01E12CB0
S11301F0F12C00E020E030E045E550E06AE171E0F8
S11302008DE590E00E9464088AEB90E00E942B0147
S113021078940E947909FFCFCF93DF9300D0CDB7B4
S1130220DEB76A838091950190919601009771F0F1
S1130230198220E0AE014F5F5F4FBE016E5F7F4FBA
S11302400E94C707898181110E943B030F900F9080
S1130250DF91CF91089590939401809393018AE064
S113026087BD84B5826084BDEEE6F0E08081826063
S1130270808385B5856085BD08951F920F920FB662
S11302800F9211242F933F934F935F936F937F9318
S11302908F939F93AF93BF93EF93FF93E091930159
S11302A0F0919401309709F00995FF91EF91BF9176
S11302B0AF919F918F917F916F915F914F913F91FA
S11302C02F910F900FBE0F901F901895462FBC01D1
S11302D080919701909198010E94A30408958F92B0
S11302E09F92AF92BF92CF92DF92EF920F9380E7EB
S11302F091E00E94C8018DE491E00E94C8010F2E94
S1130300FCE08F2EF1E09F2EF02D0F2EFDE4AF2E9A
S1130310F1E0BF2EF02D0F2EF0E7CF2EF1E0DF2E0F
S1130320F02DE12C00E023E040E052EC61E070E0CD
S113033080E00E942904909398018093970188B1EA
S1130340836C88B95B9A8AB184678AB95E9A81B1F1
S11303508FEF81B984B1836084B984B18C6384B92B
S11303600F91EF90DF90CF90BF90AF909F908F90C0
S1130370089595B1937C95B925B134E0839FC0016C
S11303801124822B85B9089585B1837C85B908959C
S1130390FC0110A211A212A20895FC0182A18823DB
S11303A0D9F081A1DF01A80FB11D8C91DB018C93E1
S11303B021A130E02F5F3F4F2F713078332334F485
S11303C021503109206E3F6F2F5F3F4F21A382A13F
S11303D0815082A380E0089581E00895FC0142A148
S11303E04032B8F420A130E0E20FF31F60832F5FA6
S11303F03F4F2F713078332334F421503109206E6C
S11304003F6F2F5F3F4FFC0120A34F5F42A380E06B
S1130410089582E00895FC010396928381832FEF6F
S11304203FEF348323839683858390878783108269
S11304300895FC01118610860895CF93DF939C01E3
S1130440FB01DC011196CD91DC911297D383C28319
S11304508C819D81958384838C819D81DC0113969D
S11304607C936E9312977D836C8331872087F90187
S113047080818F5F8083DF91CF910895CF93DF9345
S1130480EB01488159814F3F2FEF520721F4FC01C2
S1130490A781B0850DC0DC01139601C0DF0112965F
S11304A0ED91FC9113972081318142175307B0F7E6
S11304B01296ED91FC911397FB83EA83D583C48351
S11304C0BD83AC831396DC93CE9312979987888768
S11304D0FC0120812F5F2083DF91CF910895CF937A
S11304E0DF93FC01A085B185C281D381848195818C
S11304F09D838C83C481D581828193819B838A83EC
S113050011968D919C911297E817F90731F4848123
S1130510958112969C938E931197118610868C91D7
S113052081508C93DF91CF91089531E1FC013083A8
S1130530319722E220833197A3E3A083319760832C
S11305403197708331971082319760E860833197D7
S11305501082319762E06083319763E06083319762
S113056064E06083319765E06083319766E060837F
S1130570319767E06083319768E06083319769E081
S11305806083319760E1608331973083319732E142
S11305903083319733E13083319734E130833197BD
S11305A035E13083319736E13083319737E1308359
S11305B0319738E13083319739E13083319730E234
S11305C03083319731E2308331972083319723E2AE
S11305D020833197408331975083319726E22083DB
S11305E0319727E22083319728E22083319729E24B
S11305F02083319720E32083319721E3208386975A
S113060008951092890085EE809388008BE0809392
S11306108100EFE6F0E0808182608083A091E405B0
S1130620B091E505CD91CDBFDD91DEBFFF91EF9196
S1130630DF91CF91BF91AF919F918F917F916F91F6
S11306405F914F913F912F911F910F91FF90EF90E8
S1130650DF90CF90BF90AF909F908F907F906F90DE
S11306605F904F903F902F901F900F900FBE0F9070
S1130670089581E008950F920FB6F8940F921F9297
S113068011242F923F924F925F926F927F928F929A
S11306909F92AF92BF92CF92DF92EF92FF920F930D
S11306A01F932F933F934F935F936F937F938F93F6
S11306B09F93AF93BF93CF93DF93EF93FF93A09157
S11306C0E405B091E5050DB60D920EB60D920E94AB
S11306D0220BA091E405B091E505CD91CDBFDD914C
S11306E0DEBFFF91EF91DF91CF91BF91AF919F91C9
S11306F08F917F916F915F914F913F912F911F91B6
S11307000F91FF90EF90DF90CF90BF90AF909F90AC
S11307108F907F906F905F904F903F902F901F909D
S11307200F900FBE0F9008950F920FB6F8940F928A
S11307301F9211242F923F924F925F926F927F9259
S11307408F929F92AF92BF92CF92DF92EF92FF92DD
S11307500F931F932F933F934F935F936F937F93C5
S11307608F939F93AF93BF93CF93DF93EF93FF93B5
S1130770A091E405B091E5050DB60D920EB60D926B
S11307800E94A90981110E94220BA091E405B09155
S1130790E505CD91CDBFDD91DEBFFF91EF91DF91F6
S11307A0CF91BF91AF919F918F917F916F915F9105
S11307B04F913F912F911F910F91FF90EF90DF90F8
S11307C0CF90BF90AF909F908F907F906F905F90ED
S11307D04F903F902F901F900F900FBE0F90089551
S11307E00E9494031895CF93DF93EC010E94A30910
S11307F08091990190919A01892B31F48EE991E0CD
S113080090939A018093990120919B0130919C01CE
S1130810C9018C0F9D1F873E43E0940770F428178D
S1130820390770F4C0919901D0919A01C20FD31F76
S113083090939C0180939B0105C0C0E0D0E002C06E
S1130840C0E0D0E00E94640ACE01DF91CF91089508
S113085008954F925F926F927F928F929F92AF9280
S1130860BF92CF92DF92FF920F931F93CF93DF93A8
S1130870CDB7DEB7F82E2A013B0188E090E00E9454
S1130880930C8C018F2D90E0880F991FFC01EB577E
S1130890FA4F11830083FC01EA5FFE4F808191814E
S11308A0D80111969C938E931396BC92AE92129794
S11308B01596DC92CE92149717969C928E92169768
S11308C0FFB6F894ED91FC91119736978081826080
S11308D08083CD90DC90D301C201880F991FAA1F99
S11308E0BB1F880F991FAA1FBB1F9C01AD01220FBC
S11308F0331F441F551F60E070E081EE90E00E94BA
S1130900710C2150F60132972083D801ED91FC91AE
S11309101197359788E98083ED91FC91349786E0AF
S11309208083FFBEC801DF91CF911F910F91FF908B
S1130930DF90CF90BF90AF909F908F907F906F90FB
S11309405F904F900895EF92FF920F931F93CF9370
S1130950DF93FC01A281B381109779F0E42FF0E0DA
S113096092965C9120E230E0251B31092E173F0757
S11309701CF17C01411104C016C04230F8F4F9CFD7
S1130980EB014150042F10E00F5F1F4F060F171F9C
S11309906991D70112968D919C9113970E94EE0153
S11309A0C017D107A9F7D701ED91FC913597808144
S11309B08062808380E003C082E001C082E0DF9136
S11309C0CF911F910F91FF90EF9008951F920F9276
S11309D00FB60F9211242F933F934F935F936F930E
S11309E07F938F939F93AF93BF93CF93EF93FF9393
S11309F0E0918505F09186053097A1F0C091C6007D
S1130A006C2F848195810E94EE01809185059091DF
S1130A108605DC011696ED91FC911797309711F03D
S1130A206C2F0995FF91EF91CF91BF91AF919F9159
S1130A308F917F916F915F914F913F912F910F9083
S1130A400FBE0F901F9018951F920F920FB60F9222
S1130A5011242F933F934F935F936F937F938F93BF
S1130A609F93AF93BF93EF93FF93CF93DF931F9223
S1130A70CDB7DEB7E0918505F0918605309799F002
S1130A80BE016F5F7F4F828193810E94CD018111EE
S1130A9004C089818093C6000BC0E1ECF0E0808142
S1130AA08F7D808305C0E1ECF0E080818F7D8083C1
S1130AB00F90DF91CF91FF91EF91BF91AF919F91F3
S1130AC08F917F916F915F914F913F912F910F90F3
S1130AD00FBE0F901F9018951F920F920FB60F9292
S1130AE011242F933F934F935F936F937F938F932F
S1130AF09F93AF93BF93CF93EF93FF93E0918705B9
S1130B00F09188053097A1F0C091CE006C2F8481BC
S1130B1095810E94EE018091870590918805DC0102
S1130B201696ED91FC911797309711F06C2F09955B
S1130B30FF91EF91CF91BF91AF919F918F917F9151
S1130B406F915F914F913F912F910F900FBE0F9036
S1130B501F9018951F920F920FB60F9211242F9386
S1130B603F934F935F936F937F938F939F93AF9331
S1130B70BF93EF93FF93CF93DF931F92CDB7DEB76D
S1130B80E0918705F0918805309799F0BE016F5F79
S1130B907F4F828193810E94CD01811104C089819C
S1130BA08093CE000BC0E9ECF0E080818F7D8083E0
S1130BB005C0E9ECF0E080818F7D80830F90DF91A8
S1130BC0CF91FF91EF91BF91AF919F918F917F91C1
S1130BD06F915F914F913F912F910F900FBE0F90A6
S1130BE01F9018950F931F93CF93DF93EC01042F5D
S1130BF01A8D4C8D41110CC088819981892B09F083
S1130C0042C08A819B810E94310C1B821A8242C09D
S1130C10011117C050E08C819D810E94B40D2C8D70
S1130C208C819D81820F911D9D838C832A813B81C0
S1130C308217930750F1888199819D838C8380E08A
S1130C4029C050E08E819F810E94B40D8C8D90E06C
S1130C509195819591092E813F81280F391F3F83FA
S1130C602E83488159812417350730F42A813B812A
S1130C70820F931F9F838E83023049F4112349F01E
S1130C80115080E007C080E005C080E003C080E030
S1130C9001C080E01F5F1A8FDF91CF911F910F91E8
S1130CA00895EF92FF920F931F93CF938C010FB689
S1130CB0F8940F92FC01C68D1C16ACF48189811145
S1130CC006C011C0F8018189811105C00CC07801EA
S1130CD0F1E1EF0EF11CC7010E94A80B81110E94E3
S1130CE02D0CC15079F78FEFF801868F0F900FBE4E
S1130CF00FB6F8940F92C58D1C16ACF48085811143
S1130D0006C011C0F8018085811105C00CC07801AE
S1130D10F8E0EF0EF11CC7010E94A80B81110E949C
S1130D202D0CC15079F78FEFF801858F0F900FBE0E
S1130D30CF911F910F91FF90EF900895CF93DF9380
S1130D40EC010FB6F8940F92488159812C8D30E054
S1130D507B8D729FC001739F900D1124FA01E80FDF
S1130D60F91FFB83EA831A8E5D834C83821B930BEA
S1130D70840F951F9F838E838FEF8D8F8E8F6111CC
S1130D800CC08885882389F0CE0108960E94A80BA0
S1130D90882359F00E943B0308C0CE0108960E94A4
S1130DA00B02CE0141960E940B020F900FBE81E010
S1130DB0DF91CF910895FF920F931F93CF93DF9309
S1130DC0082F162FF42E6623C9F0869FC001112424
S1130DD081960E94F303EC01009749F416C00B8F2F
S1130DE01C8F61E0CE010E949E06F8A20EC081967F
S1130DF099838883F4CFD983C883F1CF81E290E0CB
S1130E000E94F303EC01892BB1F7CE01DF91CF915E
S1130E101F910F91FF9008959F92AF92BF92CF922E
S1130E20DF92EF92FF920F931F93CF93DF9300D043
S1130E3000D01F92CDB7DEB78C016B015D834C836C
S1130E40A22EB12C992493947C0188E0E80EF11C25
S1130E500FB6F8940F92F801928D838D981718F0BD
S1130E60F2E0AF1219C04A2DB601C8010E94F20582
S1130E70F8019189992349F0C80141960E94A80B71
S1130E80882331F00E943B0303C081110E943B037D
S1130E900F900FBE81E050C08C819D81892B21F47D
S1130EA00F900FBE80E048C0B11005C0CE0101967E
S1130EB00E94F00BB92C0F900FBE0E94A3090FB62D
S1130EC0F8940F92F801858D8F3F09F4158EF8017F
S1130ED0868D8F3F09F4168E0F900FBEBE016C5F96
S1130EE07F4FCE0101960E94FB0B81111FC00FB6EC
S1130EF0F8940F92F801928D0F900FBE838D981382
S1130F000FC06C817D81C7010E94960BC8010E94AD
S1130F1051060E94640A81119BCF0E943B0398CF23
S1130F20C8010E9451060E94640A92CFC8010E941F
S1130F3051060E94640A80E00F900F900F900F906A
S1130F400F90DF91CF911F910F91FF90EF90DF9061
S1130F50CF90BF90AF909F900895CF93DF93482F89
S1130F6060E081E00E94DB06EC01009761F01B82E7
S1130F701A82198218821E8220E040E050E060E06C
S1130F8070E00E940C07CE01DF91CF910895EF929B
S1130F90FF920F931F93CF93DF938A01FC01528D2D
S1130FA0338D531710F02230F1F4422F7801EC0105
S1130FB01E8D0E94F2051F3F81F489898823A9F0C0
S1130FC0CE0141960E94A80B882389F0E114F10414
S1130FD081F081E0F70180830DC0FF24F394F10ECA
S1130FE0FE8E81E007C080E005C081E003C081E09F
S1130FF001C081E0DF91CF911F910F91FF90EF909D
S11310000895E091AC05F091AD058081811107C090
S11310108FEF9FEF90938D0580938C050895E09159
S1131020AC05F091AD050580F681E02D0680F781D1
S1131030E02D8281938190938D0580938C05089592
S11310400F931F93CF93DF93EC01009194051091BC
S113105095058091E4059091E50502960E946F0242
S1131060C00FD11FE091E405F091E505D383C2835D
S1131070C017D10768F46091E4057091E50580918B
S1131080AA059091AB056E5F7F4F0E943E0217C088
S11310906091E4057091E5058091AC059091AD05F2
S11310A06E5F7F4F0E943E0280918C0590918D056A
S11310B0C817D90720F4D0938D05C0938C05DF9110
S11310C0CF911F910F9108954F925F926F927F92EB
S11310D08F929F92AF92BF92CF92DF92EF92FF9244
S11310E00F93CF93DF934C016B015A012901CA017D
S11310F00E94F3033C01892B09F4EAC08CE290E0DE
S11311000E94F303EC01892BB1F0788E6F8AA5015C
S113111065EA70E0C3010E94BD0D81E0A81AB10820
S11311208F89988DA80EB91ED6018C91898F8C91C8
S1131130811105C018C0C3010E942804C9C0AE01B2
S1131140465E5F4FF6013196B8E0CB0ED11CCF015D
S11311502191DA012D93AD01DC018C91882319F0E2
S1131160EC15FD05A1F718A2043008F003E00E8B7E
S11311700BA31CA26E01B2E0CB0ED11CC6010E94CF
S11311801902CE010C960E941902D987C88784E0FF
S113119090E0801B91099D878C87DB8BCA8B1EA2F4
S11311A01DA21FA218A619A61AA61BA6A201B40165
S11311B0C5010E94950299838883E114F10419F012
S11311C0F701D183C0830FB6F8940F9280919605EE
S11311D08F5F809396058091E4059091E505892BB6
S11311E0A9F5D093E505C093E40580919605813077
S11311F0E9F580EC95E00E940B0289EC95E00E94F1
S11312000B0282ED95E00E940B028BED95E00E94AB
S11312100B0287EB95E00E940B028EEA95E00E9498
S11312200B0281EA95E00E940B0288E995E00E9496
S11312300B0287EB95E09093AD058093AC058EEAA5
S113124095E09093AB058093AA0510C08091920518
S113125081110CC0E091E405F091E50596898E8931
S1131260891720F0D093E505C093E40580918E059D
S11312708F5F80938E0589A38E899091930598172B
S113128010F48093930590E09C01220F331F220FEA
S1131290331F220F331F820F931FB60180549A4FBE
S11312A00E941D020F900FBE80919205882361F069
S11312B0E091E405F091E50596898E89981730F45C
S11312C00E943B0381E005C081E003C081E001C0CE
S11312D08FEFDF91CF910F91FF90EF90DF90CF9040
S11312E0BF90AF909F908F907F906F905F904F9042
S11312F00895EF92FF920F930F2EFAE8EF2EF5E088
S1131300FF2EF02D00E020E030E045E550E068E2FB
S113131071E083EE9AE00E946408813081F4F894CD
S11313208FEF9FEF90938D0580938C0581E08093E0
S1131330920510929505109294050E9401030F9155
S1131340FF90EF900895809189058F5F80938905C0
S11313500895CF92DF92EF92FF920F931F93CF9352
S1131360DF9380918905811199C0E0909405F090F4
S113137095058FEFE81AF80AF0929505E092940526
S1131380E114F104B9F48091AC059091AD0520917C
S1131390AA053091AB053093AD052093AC0590932D
S11313A0AB058093AA0580918F058F5F80938F058D
S11313B00E94010880918C0590918D05E816F9062C
S11313C010F4D12C53C0D12CCC24C394E091AC059F
S11313D0F091AD058081811107C08FEF9FEF90934D
S11313E08D0580938C0542C0E091AC05F091AD056C
S11313F00580F681E02DC681D7818A819B81E8161C
S1131400F90628F490938D0580938C052FC08E01E6
S11314100E5F1F4FC8010E946F028C899D89892B22
S113142021F0CE010C960E946F028E899091930553
S1131430981710F48093930590E09C01220F331FBA
S1131440220F331F220F331F820F931FB8018054C2
S11314509A4F0E941D02E091E405F091E5059E89F2
S11314608689981708F4B2CFDC2CB0CFE091E4055C
S1131470F091E505868990E0FC01EE0FFF1FEE0F69
S1131480FF1FEE0FFF1F8E0F9F1FFC01E054FA4F4A
S11314908081823048F0DD24D39406C08091910588
S11314A08F5F80939105D12C80919005882311F052
S11314B0DD24D3948D2DDF91CF911F910F91FF9057
S11314C0EF90DF90CF900895DF92EF92FF920F9309
S11314D01F93CF93DF930FB6F8940F9280918905F1
S11314E08150809389058091890581115FC0809125
S11314F09605811133C05DC0D7011596ED91FC911D
S11315001697C681D781CE010C960E946F028E0178
S11315100E5F1F4FC8010E946F028E899091930540
S1131520981710F48093930590E09C01220F331FC9
S1131530220F331F220F331F820F931FB8018054D1
S11315409A4F0E941D02E091E405F091E5059E8901
S11315508689981768F0D09290050AC0C0E0D0E060
S11315600F2EF1EAEF2EF5E0FF2EF02DDD24D394BB
S1131570F70180818111C0CFCD2B11F00E940108A9
S1131580C0919105CC2351F0D1E00E94A9098111A9
S1131590D0939005C150C9F71092910580919005A0
S11315A0882331F00E943B0381E003C080E001C046
S11315B080E00F900FBEDF91CF911F910F91FF90AC
S11315C0EF90DF90089508E915E00F2EF0ECEF2E70
S11315D0F5E0FF2EF02D29C00E94A309D801CC917B
S11315E00E94640ACC2309F10FB6F8940F92D80133
S11315F01596ED91FC911697C681D781CE0102967E
S11316000E946F0280919605815080939605809187
S113161097058150809397050F900FBE8F89988D01
S11316200E942804CE010E9428048091970581110C
S1131630D3CFF7018081823010F00E943B030E94D7
S1131640E300F3CF80918905882321F081E0809322
S11316509005089510929005E091E405F091E50558
S113166085A10E94C40120919305822F90E0FC0182
S1131670EE0FFF1FEE0FFF1FEE0FFF1FE80FF91F06
S1131680E054FA4F3081311111C02150822F90E083
S1131690FC01EE0FFF1FEE0FFF1FEE0FFF1FE80F01
S11316A0F91FE054FA4F3081332379F3AC01440F2E
S11316B0551F440F551F440F551F480F591FDA017A
S11316C0A054BA4F1196ED91FC9112970280F381C8
S11316D0E02D1296FC93EE9311974D535A4FE41755
S11316E0F50729F442815381FD0152834183FC01B2
S11316F0EE0FFF1FEE0FFF1FEE0FFF1F8E0F9F1F3A
S1131700FC01E054FA4F0180F281E02D868197813B
S11317109093E5058093E40520939305E091E40517
S1131720F091E50585A10E94B9010895CF93DF9357
S1131730EB016091E4057091E505645F7F4F0E94C1
S11317403E0261E0CE010E942008DF91CF9108950E
S11317500F931F93CF93DF93DC011596ED91FC91CA
S11317601697C681D7818E01045F1F4FC8010E945E
S11317706F028091890581111CC00A501109C801AA
S11317800E946F028E8990919305981710F48093AC
S1131790930590E09C01220F331F220F331F220F69
S11317A0331F820F931FB80180549A4F0E941D0269
S11317B005C0B80181EA95E00E941D02E091E405AC
S11317C0F091E5059E898689891720F481E080934C
S11317D0900501C080E0DF91CF911F910F91089592
S11317E020918F05FC01208320919405309195056B
S11317F0328321830895CF93DF93FC010FB6F894CD
S11318000F92209194053091950580918F059081D8
S1131810981729F08181928128173907B0F4A181A2
S1131820B281EB0148815981C9018A1B9B0B841742
S1131830950768F4CF01A21BB30B4A0F5B1F5983B2
S113184048830E94F00B80E003C081E001C081E086
S11318500F900FBEDF91CF91089581E080939005A2
S113186008950F931F93CF93DF93FC01892B79F194
S113187084A1815084A3268993A1291751F1811150
S11318802AC0EF018F010E5F1F4FC8010E946F0233
S11318908BA18E8B24E030E0281B31093D872C87F7
S11318A090919305981710F48093930590E09C0110
S11318B0220F331F220F331F220F331F820F931F58
S11318C0B80180549A4F0E941D0281E005C080E057
S11318D003C080E001C080E0DF91CF911F910F91A0
S11318E00895A1E21A2EAA1BBB1BFD010DC0AA1F5D
S11318F0BB1FEE1FFF1FA217B307E407F50720F075
S1131900A21BB30BE40BF50B661F771F881F991FEF
S11319101A9469F760957095809590959B01AC0138
S1131920BD01CF0108950F931F93CF93DF938230AE
S1131930910510F482E090E0E091E805F091E9056A
S113194020E030E0A0E0B0E0309719F1408151810F
S11319500281138148175907C8F08417950769F461
S1131960109731F012960C93129713961C9327C07C
S11319700093E8051093E90522C02115310519F0FB
S11319804217530718F49A01BD01EF01DF01F80172
S1131990DBCF21153105F9F0281B390B2430310533
S11319A080F48A819B816115710521F0FB01938389
S11319B0828304C09093E9058093E805FE01329682
S11319C044C0FE01E20FF31F819391932250310929
S11319D0398328833AC02091E6053091E705232B0B
S11319E041F420910201309103013093E7052093E3
S11319F0E60520910001309101012115310541F4E2
S1131A002DB73EB74091040150910501241B350BBD
S1131A10E091E605F091E705E217F307A0F42E1B29
S1131A203F0B2817390778F0AC014E5F5F4F24173E
S1131A30350748F04E0F5F1F5093E7054093E605C6
S1131A408193919302C0E0E0F0E0CF01DF91CF9168
S1131A501F910F910895CF93DF93009709F481C0EC
S1131A60FC01329713821282A091E805B091E90536
S1131A70109781F420813181820F931F2091E60514
S1131A803091E7052817390751F5F093E705E093FE
S1131A90E60567C0ED0120E030E0CE17DF0740F433
S1131AA04A815B819E0141155105F1F0EA01F5CFB0
S1131AB0D383C28340815181840F951FC817D907EE
S1131AC059F488819981840F951F029691838083AC
S1131AD08A819B81938382832115310529F4F093B4
S1131AE0E905E093E8053DC0E901FB83EA834991F8
S1131AF05991C40FD51FEC17FD0761F480819181C2
S1131B00840F951F0296E9019983888382819381CA
S1131B109B838A83E0E0F0E012968D919C91139769
S1131B20009719F0FD01DC01F7CF8D919C9111977D
S1131B309D012E5F3F4F820F931F2091E605309148
S1131B40E7052817390769F4309729F41092E90555
S1131B501092E80502C013821282B093E705A093A5
S1131B60E605DF91CF910895FB01DC0102C00190ED
S1131B700D9241505040D8F70895DC0101C06D9397
S10F1B8041505040E0F70895F894FFCF66
S1131B8C0000EA052000C600CE006D6F76650047A4
S1131B9C414D45204F5645520A0052656164206AF6
S1111BAC6F79737469636B0049444C45000003
S9030000FC
