:100000000C947F000C949C000C949C000C949C001D
:100010000C949C000C949C000C949C000C949C00F0
:100020000C949C000C949C000C949C000C949C00E0
:100030000C949C000C94860A0C949C000C949C00DC
:100040000C947B040C949C000C949C000C949C00DD
:100050000C94250C0C947E0C0C949C000C949C002D
:100060000C949C000C949C000C949C000C949C00A0
:100070000C94D90C0C94320D0C949C0007634236FE
:10008000B79BD8A71A39685618AEBAAB558C1D3C29
:10009000B7CC5763BD6DEDFD753EF6177231BF00ED
:1000A0000000803F08000000BE922449123EABAA27
:1000B000AA2ABECDCCCC4C3E00000080BEABAAAA82
:1000C000AA3E00000000BF000000803F00000000CA
:1000D00000084178D3BB4387D1133D190E3CC3BD03
:1000E0004282AD2B3E68EC8276BED98FE1A93E4CB0
:1000F00080EFFFBE01C4FF7F3F000000000011241D
:100100001FBECFEFD8E0DEBFCDBF11E0A0E0B1E071
:10011000EAECFAE302C005900D92A234B107D9F7D8
:1001200027E0A2E4B1E001C01D92AE32B207E1F7D0
:100130000E94CB030C94631D0C940000CF92DF92BD
:10014000EF92FF92CF93DF9300D000D000D0CDB7D5
:10015000DEB79E838D831A8219826BC01C821B823C
:100160005EC089819A81880F991F9C01220F331FDD
:10017000220F331F820F931F2B813C81820F931F0D
:10018000880F991F825A9E4FFC0180819181892B93
:1001900009F440C089819A81880F991F8E5B9E4F18
:1001A000FC0180819181CC01A0E0B0E0BC01CD01D7
:1001B0000E941E196B017C018B819C81092E000C11
:1001C000AA0BBB0BBC01CD010E942019DC01CB01A5
:1001D0009C01AD0160E070E080E090E40E94AC1909
:1001E000DC01CB019C01AD01C701B6010E9483185F
:1001F000DC01CB01BC01CD010E94EF18DC01CB0179
:100200009C0189819A81880F991F8E5B9E4FFC010A
:10021000318320838B819C8101969C838B838B818E
:100220009C810A970CF49DCF89819A8101969A83CB
:10023000898389819A810E970CF490CF85E090E0B4
:100240000E94371388CFCF93DF93CDB7DEB766E038
:1002500085E191E00E94B2040000DF91CF91089502
:100260000F931F93CF93DF93CDB7DEB729970FB6C8
:10027000F894DEBF0FBECDBF09831A832B833C8366
:100280004D835E836F83788789878D81882F90E087
:1002900081309105B9F0823091051CF4892B39F039
:1002A00037C082309105C1F0039709F131C08981CF
:1002B0009A81181619062CF589819A8101979A83DB
:1002C00089831FC089819A810E97ECF489819A8174
:1002D00001969A83898317C08B819C811816190611
:1002E000A4F48B819C8101979C838B830EC08B81AE
:1002F0009C810A9764F48B819C8101969C838B83FB
:1003000006C0000005C0000003C0000001C00000DE
:10031000000029960FB6F894DEBF0FBECDBFDF9167
:10032000CF911F910F9108950F931F93CF93DF9358
:10033000CDB7DEB763970FB6F894DEBF0FBECDBF63
:100340009B8B8A8B198284E090E090937702809354
:10035000760284E090E09093790280937802109284
:100360007A0285E090E09F878E8785E090E0998B08
:10037000888B8E859F85A889B98980937B0290930D
:100380007C02A0937D02B0937E028AE090E090937D
:10039000800280937F0285E090E0909382028093B8
:1003A000810283E0809383024DC11B821A823FC089
:1003B0001D821C8233C08A819B81880F991F9C01FA
:1003C000220F331F220F331F820F931F2C813D8179
:1003D000820F931F880F991F825A9E4FFC018081C4
:1003E00091810197B1F48A819B81880F991F9C01AB
:1003F000220F331F220F331F820F931F2C813D8149
:10040000820F931F880F991F825A9E4FFC01118201
:1004100010828C819D8101969D838C838C819D812E
:100420000A974CF28A819B8101969B838A838A81F9
:100430009B810E970CF4BCCF20917602309177020D
:1004400080917B0290917C022817390709F04EC0F9
:1004500080917802909179029F838E833CC0809135
:100460007B0290917C02880F991F9C01220F331F01
:10047000220F331F820F931F2E813F81820F931F04
:10048000880F991F825A9E4FFC01808191810297AB
:1004900019F481E089831AC080917B0290917C02DB
:1004A000880F991F9C01220F331F220F331F820FC9
:1004B000931F2E813F81820F931F880F991F825AAD
:1004C0009E4F21E030E0FC01318320838E819F81AB
:1004D00001969F838E8320917D0230917E028E81D2
:1004E0009F81281739070CF0BACF4DC08091760252
:1004F00090917702998788873CC020917D02309146
:100500007E0288859985880F991FAC01440F551F7D
:10051000440F551F840F951F820F931F880F991F3B
:10052000825A9E4FFC0180819181029719F481E0EB
:1005300089831AC020917D0230917E028885998539
:10054000880F991FAC01440F551F440F551F840F8E
:10055000951F820F931F880F991F825A9E4F21E08B
:1005600030E0FC0131832083888599850196998745
:10057000888720917B0230917C0288859985281795
:1005800039070CF0BACF1B861A863FC01D861C8621
:1005900033C08A859B85880F991F9C01220F331FCA
:1005A000220F331F820F931F2C853D85820F931FCF
:1005B000880F991F825A9E4FFC018081918102977A
:1005C000B1F48A859B85880F991F9C01220F331FE8
:1005D000220F331F820F931F2C853D85820F931F9F
:1005E000880F991F825A9E4FFC01118210828C85C0
:1005F0009D8501969D878C878C859D850A974CF2F9
:100600008A859B8501969B878A878A859B850E971D
:100610000CF4BCCF00917602109177022091780201
:100620003091790240917A0250917B0260917C0274
:1006300070917D0280917E020E94300188EE93E0ED
:100640000E943713998181E08927882309F0ADCE74
:100650000E942301A9CECF93DF93CDB7DEB78BE203
:1006600090E02BE230E0F90120812460FC0120833E
:100670000000DF91CF910895CF93DF93CDB7DEB720
:100680008BE290E02BE230E0F90120812062FC0156
:1006900020838BE290E02BE230E0F90120812F7D76
:1006A000FC0120838BE290E02BE230E0F901208115
:1006B0002061FC0120838BE290E02BE230E0F90125
:1006C00020812F7EFC0120838BE290E02BE230E042
:1006D000F90120812B7FFC0120830000DF91CF9165
:1006E0000895CF93DF9300D0CDB7DEB79A83898387
:1006F00082E290E029812095FC01208385E290E050
:1007000025E230E0F90120812360FC01208385E2AD
:1007100090E025E230E0F901408129813A81232FE0
:100720003327237020952423FC01208300000F90A1
:100730000F90DF91CF910895CF93DF93CDB7DEB7C0
:1007400080919002882311F40E942B0380919002E3
:10075000882F90E0880F991F8E5B9E4FFC0180814F
:1007600091810E9471030E943C038091900291E06C
:10077000980F909390028E3010F01092900200002B
:10078000DF91CF910895CF93DF93CDB7DEB700000F
:10079000DF91CF910895EF92FF920F93CF93DF9364
:1007A00000D0CDB7DEB70E94CC048BE290E02BE204
:1007B00030E0F90120812F7BFC01208381E00E9441
:1007C000DA0E909389028093880281E00E94DA0E0B
:1007D00090938B0280938A0281E00E94DA0E9093BC
:1007E0008D0280938C0281E00E94DA0E90938F023A
:1007F00080938E02E12CF12C00E020E030E045E512
:1008000050E061E271E084E991E00E945A1189832D
:10081000E12CF12C00E020E030E045E550E061E320
:1008200071E08EE990E00E945A118A838CE993E08E
:100830000E94480478940E945A13FFCFCF93DF930D
:1008400000D000D0CDB7DEB79B838A836C838091C4
:10085000930290919402892B99F0198280919302CE
:1008600090919402BE016C5F7F4F20E0AE014F5F1C
:100870005F4F0E94AB0F8981882311F00E946C09A1
:1008800000000F900F900F900F90DF91CF9108957F
:10089000CF93DF9300D0CDB7DEB79A838983898168
:1008A0009A81909396028093950287E490E02AE0E3
:1008B000FC01208384E490E024E430E0F90120810D
:1008C0002260FC0120838EE690E02EE630E0F90104
:1008D00020812260FC01208385E490E025E430E063
:1008E000F90120812560FC01208300000F900F900A
:1008F000DF91CF9108951F920F9200905F000F92A9
:1009000011242F933F934F935F936F937F938F9314
:100910009F93AF93BF93EF93FF93CF93DF93CDB7A5
:10092000DEB78091950290919602892B31F08091EB
:10093000950290919602FC0109950000DF91CF91FC
:10094000FF91EF91BF91AF919F918F917F916F91A7
:100950005F914F913F912F910F9000925F000F9008
:100960001F901895CF93DF9300D01F92CDB7DEB7BD
:100970009A8389836B83809191029091920229815D
:100980003A814B81B9010E94C60B00000F900F9075
:100990000F90DF91CF9108958F929F92AF92BF9267
:1009A000CF92DF92EF920F93CF93DF93CDB7DEB765
:1009B00087E992E00E9484058AEB92E00E94840518
:1009C0000F2EFEE18F2EF4E09F2EF02D0F2EFAEB6E
:1009D000AF2EF2E0BF2EF02D0F2EF7E9CF2EF2E072
:1009E000DF2EF02DE12C00E023E040E052EC61E04E
:1009F00070E080E00E94050B909392028093910238
:100A000088E290E028E230E0F9012081236CFC01CB
:100A100020838BE290E02BE230E0F9012081286016
:100A2000FC0120838AE290E02AE230E0F901208193
:100A30002467FC0120838BE290E02BE230E0F90197
:100A400020812064FC01208381E290E0FC01808110
:100A500081E290E02FEFFC01208384E290E024E229
:100A600030E0F90120812360FC01208384E290E0E2
:100A700024E230E0F90120812C63FC012083000096
:100A8000DF91CF910F91EF90DF90CF90BF90AF901B
:100A90009F908F900895CF93DF931F92CDB7DEB7CD
:100AA000898385E290E025E230E0F9012081237C12
:100AB000FC01208385E290E025E230E0F90120810D
:100AC000422F2981222F30E0220F331F220F331FA4
:100AD000242BFC01208300000F90DF91CF9108951B
:100AE000CF93DF931F92CDB7DEB7898385E290E085
:100AF00025E230E0F9012081237CFC012083000005
:100B00000F90DF91CF910895CF93DF9300D0CDB7B1
:100B1000DEB79A83898389819A81FC0110A2898139
:100B20009A81FC0111A289819A81FC0112A2000024
:100B30000F900F90DF91CF910895CF93DF9300D066
:100B400000D0CDB7DEB79A8389837C836B8389819C
:100B50009A81FC0182A1882381F189819A81FC011B
:100B600081A1882F90E029813A81820F931FFC0197
:100B700020818B819C81FC01208389819A81FC01E9
:100B800081A1882F90E001968F719078992324F4A9
:100B90000197806E9F6F0196282F89819A81FC01B1
:100BA00021A389819A81FC0182A12FEF280F8981DD
:100BB0009A81FC0122A380E001C081E00F900F9098
:100BC0000F900F90DF91CF910895CF93DF9300D0D6
:100BD0001F92CDB7DEB79A8389836B8389819A810F
:100BE000FC0182A1803268F589819A81FC0180A193
:100BF000882F90E029813A81820F931F2B81FC017D
:100C0000208389819A81FC0180A1882F90E0019640
:100C10008F719078992324F40197806E9F6F0196CD
:100C2000282F89819A81FC0120A389819A81FC0166
:100C300082A121E0280F89819A81FC0122A380E012
:100C400001C082E00F900F900F90DF91CF91089537
:100C5000CF93DF9300D0CDB7DEB79A8389838981A4
:100C60009A819C012D5F3F4F89819A81FC013283DB
:100C7000218389819A812FEF3FEFFC013483238305
:100C800089819A819C012D5F3F4F89819A81FC0166
:100C90003683258389819A819C012D5F3F4F89810D
:100CA0009A81FC013087278389819A81FC01108217
:100CB00000000F900F90DF91CF910895CF93DF93B5
:100CC00000D0CDB7DEB79A83898389819A81FC01F0
:100CD0001186108600000F900F90DF91CF9108953C
:100CE000CF93DF9300D000D000D0CDB7DEB79C8388
:100CF0008B837E836D838B819C81FC0181819281BA
:100D00009A8389838D819E8129813A81FC01338375
:100D1000228389819A81FC01248135818D819E8184
:100D2000FC013583248389819A81FC01848195812A
:100D30002D813E81FC013383228389819A812D811B
:100D40003E81FC01358324838D819E812B813C81F2
:100D5000FC01318720878B819C81FC01808121E00F
:100D6000280F8B819C81FC012083000026960FB602
:100D7000F894DEBF0FBECDBFDF91CF910895CF9322
:100D8000DF93CDB7DEB728970FB6F894DEBF0FBE5E
:100D9000CDBF9E838D8378876F838F819885FC017B
:100DA000808191819C838B838B819C81019641F40E
:100DB0008D819E81FC01878190859A8389831AC0E9
:100DC0008D819E8103969A83898307C089819A8148
:100DD000FC01828193819A83898389819A81FC01B4
:100DE00082819381FC01208131818B819C818217DA
:100DF000930760F789819A81FC01228133818F8179
:100E00009885FC01338322838F819885FC01828140
:100E100093812F813885FC01358324838F819885C8
:100E200029813A81FC013583248389819A812F812C
:100E30003885FC01338322838F8198852D813E8103
:100E4000FC01318720878D819E81FC01808121E01A
:100E5000280F8D819E81FC012083000028960FB60B
:100E6000F894DEBF0FBECDBFDF91CF910895CF9331
:100E7000DF9300D000D0CDB7DEB79C838B838B810E
:100E80009C81FC01808591859A8389838B819C81DB
:100E9000FC01828193812B813C81F9012481358180
:100EA000FC01358324838B819C81FC0184819581A5
:100EB0002B813C81F90122813381FC013383228320
:100EC00089819A81FC01218132818B819C81281743
:100ED000390751F48B819C81FC0124813581898102
:100EE0009A81FC01328321838B819C81FC011186D4
:100EF000108689819A81FC0180812FEF280F8981DA
:100F00009A81FC01208389819A81FC0180810F9064
:100F10000F900F900F90DF91CF910895CF93DF93B3
:100F2000CDB7DEB728970FB6F894DEBF0FBECDBFA2
:100F30009C838B837E836D8358874F838B819C81B9
:100F400021E1FC0120838B819C8101979C838B8311
:100F50008B819C8122E2FC0120838B819C81019703
:100F60009C838B838B819C8123E3FC0120838B8179
:100F70009C8101979C838B838D819E819A83898339
:100F800029818B819C81FC0120838B819C8101972D
:100F90009C838B8389819A81892F99279A8389835E
:100FA00029818B819C81FC0120838B819C8101970D
:100FB0009C838B838B819C81FC0110828B819C8123
:100FC00001979C838B838B819C8120E8FC0120838B
:100FD0008B819C8101979C838B838B819C81FC01FD
:100FE00010828B819C8101979C838B838B819C8158
:100FF00022E0FC0120838B819C8101979C838B8361
:101000008B819C8123E0FC0120838B819C81019753
:101010009C838B838B819C8124E0FC0120838B81CA
:101020009C8101979C838B838B819C8125E0FC01B3
:1010300020838B819C8101979C838B838B819C81F6
:1010400026E0FC0120838B819C8101979C838B830C
:101050008B819C8127E0FC0120838B819C810197FF
:101060009C838B838B819C8128E0FC0120838B8176
:101070009C8101979C838B838B819C8129E0FC015F
:1010800020838B819C8101979C838B838B819C81A6
:1010900020E1FC0120838B819C8101979C838B83C1
:1010A0008B819C8121E1FC0120838B819C810197B4
:1010B0009C838B838B819C8122E1FC0120838B812B
:1010C0009C8101979C838B838B819C8123E1FC0114
:1010D00020838B819C8101979C838B838B819C8156
:1010E00024E1FC0120838B819C8101979C838B836D
:1010F0008B819C8125E1FC0120838B819C81019760
:101100009C838B838B819C8126E1FC0120838B81D6
:101110009C8101979C838B838B819C8127E1FC01BF
:1011200020838B819C8101979C838B838B819C8105
:1011300028E1FC0120838B819C8101979C838B8318
:101140008B819C8129E1FC0120838B819C8101970B
:101150009C838B838B819C8120E2FC0120838B818B
:101160009C8101979C838B838B819C8121E2FC0174
:1011700020838B819C8101979C838B838B819C81B5
:1011800022E2FC0120838B819C8101979C838B83CD
:101190008B819C8123E2FC0120838B819C810197C0
:1011A0009C838B838F8198859A83898329818B8106
:1011B0009C81FC0120838B819C8101979C838B8384
:1011C00089819A81892F99279A83898329818B81A3
:1011D0009C81FC0120838B819C8101979C838B8364
:1011E0008B819C8126E2FC0120838B819C8101976D
:1011F0009C838B838B819C8127E2FC0120838B81E4
:101200009C8101979C838B838B819C8128E2FC01CC
:1012100020838B819C8101979C838B838B819C8114
:1012200029E2FC0120838B819C8101979C838B8325
:101230008B819C8120E3FC0120838B819C81019721
:101240009C838B838B819C8121E3FC0120838B8198
:101250009C8101979C838B838B819C8128960FB600
:10126000F894DEBF0FBECDBFDF91CF910895CF932D
:10127000DF93CDB7DEB70E94240AA091CD06B091CE
:10128000CE06CD91CDBFDD91DEBFFF91EF91DF9115
:10129000CF91BF91AF919F918F917F916F915F910E
:1012A0004F913F912F911F910F91FF90EF90DF9001
:1012B000CF90BF90AF909F908F907F906F905F90F6
:1012C0004F903F902F901F900F900FBE0F9008955A
:1012D00081E0DF91CF9108950F920FB6F8940F92AD
:1012E0001F9211242F923F924F925F926F927F92A2
:1012F0008F929F92AF92BF92CF92DF92EF92FF9226
:101300000F931F932F933F934F935F936F937F930D
:101310008F939F93AF93BF93CF93DF93EF93FF93FD
:10132000A091CD06B091CE060DB60D920EB60D92DF
:101330000E942015A091CD06B091CE06CD91CDBFD3
:10134000DD91DEBFFF91EF91DF91CF91BF91AF9122
:101350009F918F917F916F915F914F913F912F91CD
:101360001F910F91FF90EF90DF90CF90BF90AF90C3
:101370009F908F907F906F905F904F903F902F90B5
:101380001F900F900FBE0F90089500000F920FB6A0
:10139000F8940F921F9211242F923F924F925F92D6
:1013A0006F927F928F929F92AF92BF92CF92DF9275
:1013B000EF92FF920F931F932F933F934F935F935F
:1013C0006F937F938F939F93AF93BF93CF93DF934D
:1013D000EF93FF93A091CD06B091CE060DB60D927E
:1013E0000EB60D920E943314882311F00E9420152E
:1013F000A091CD06B091CE06CD91CDBFDD91DEBFDF
:10140000FF91EF91DF91CF91BF91AF919F918F911C
:101410007F916F915F914F913F912F911F910F910C
:10142000FF90EF90DF90CF90BF90AF909F908F9004
:101430007F906F905F904F903F902F901F900F90F4
:101440000FBE0F9008950000CF93DF9300D000D01F
:1014500000D0CDB7DEB789E999E3A0E0B0E0898399
:101460009A83AB83BC8389819A81AB81BC81689468
:1014700015F8B695A795979587951694D1F7898312
:101480009A83AB83BC8389819A81AB81BC810197AC
:10149000A109B10989839A83AB83BC8389818D8338
:1014A00089819A81AB81BC81892F9A2FAB2FBB2771
:1014B00089839A83AB83BC8389818E8389E890E09A
:1014C0002E81FC01208388E890E02D81FC0120839F
:1014D0008BE08D8381E890E02D81FC0120838FE6F5
:1014E00090E0FC0180818D838D8182608D838FE609
:1014F00090E02D81FC012083000026960FB6F89421
:10150000DEBF0FBECDBFDF91CF9108950E94C60907
:1015100018950000CF93DF9300D000D0CDB7DEB791
:101520009C838B831A8219820E948F138091C70635
:101530009091C806892B31F48EED92E09093C80605
:101540008093C7062091C5063091C6068B819C8189
:10155000820F931F873E934038F52091C506309146
:10156000C6068B819C81280F391F8091C5069091FA
:10157000C60682179307C0F42091C7063091C806AB
:101580008091C5069091C606820F931F9A83898326
:101590002091C5063091C6068B819C81820F931FD6
:1015A0009093C6068093C5060E949C1389819A81F8
:1015B0000F900F900F900F90DF91CF910895CF93E0
:1015C000DF9300D0CDB7DEB79A83898300000F90F8
:1015D0000F90DF91CF910895CF93DF9300D0CDB7D7
:1015E000DEB79A83898389819A81059729813A8117
:1015F00025503109F90120812062FC01208300007F
:101600000F900F90DF91CF9108958F929F92AF929C
:10161000BF92CF92DF92EF920F931F93CF93DF93FE
:10162000CDB7DEB761970FB6F894DEBF0FBECDBF62
:101630008C834D835E836F83788729870A87EB8647
:10164000DD86CC86BF86AE86998A888A88E090E05F
:101650000E94321C9A8389838C81882F90E0880FA6
:10166000991F8753994F29813A81FC013183208347
:101670008C81882F90E0880F991F8A5F9E4FFC0114
:101680002081318189819A81FC0131832083898184
:101690009A812E853F85FC013383228389819A813B
:1016A0002C853D85FC013583248389819A81288995
:1016B0003989FC01378326838FE590E0FC01808126
:1016C0008B83F89489819A81FC01808191810697AE
:1016D00029813A81F9012081318126503109F901AE
:1016E00020812260FC01208389819A81FC01808114
:1016F00091818C01025011098D819E81AF81B88545
:10170000880F991FAA1FBB1F880F991FAA1FBB1FF5
:10171000880F991FAA1FBB1F9C01AD0180E090E0BC
:10172000A1EEB0E0BC01CD010E94101CDA01C9019C
:101730008150F801808389819A81FC0180819181A7
:10174000059728E9FC01208389819A81FC01808129
:101750009181049726E0FC0120838FE590E02B81A6
:10176000FC01208389819A8161960FB6F894DEBFCF
:101770000FBECDBFDF91CF911F910F91EF90DF9002
:10178000CF90BF90AF909F908F900895CF93DF93AD
:1017900000D000D000D0CDB7DEB79B838A837D8395
:1017A0006C834E838A819B81FC0182819381892B8A
:1017B000A9F08E81282F30E08A819B81FC018281F3
:1017C0009381FC0182A1882F90E040E250E0BA01B1
:1017D000681B790BCB018217930754F08A819B8198
:1017E000FC0182819381892B29F48E81823010F053
:1017F00082E022C0198214C08981882F90E02C8158
:101800003D81820F931FFC0120818A819B81FC0115
:1018100082819381622F0E94E50589818F5F898390
:1018200099818E81981740F38A819B81FC01808188
:1018300091810E94EC0A80E026960FB6F894DEBFF4
:101840000FBECDBFDF91CF9108951F920F920090F0
:101850005F000F9211242F933F934F935F936F93E9
:101860007F938F939F93AF93BF93EF93FF93CF9308
:10187000DF931F92CDB7DEB78091C9069091CA065B
:10188000892B31F186EC90E0FC0180818983809185
:10189000C9069091CA06FC018481958169810E94E4
:1018A000E5058091C9069091CA06FC018681978161
:1018B000892B71F08091C9069091CA06FC0126819E
:1018C00037818091C9069091CA066981F90109950D
:1018D00000000F90DF91CF91FF91EF91BF91AF91F9
:1018E0009F918F917F916F915F914F913F912F9138
:1018F0000F9000925F000F901F9018951F920F920B
:1019000000905F000F9211242F933F934F935F93AA
:101910006F937F938F939F93AF93BF93EF93FF93B7
:10192000CF93DF931F92CDB7DEB78091C906909118
:10193000CA06892BF9F08091C9069091CA06FC016C
:10194000828193819E012F5F3F4FB9010E949D05C7
:10195000882331F486EC90E02981FC01208313C0B8
:1019600081EC90E021EC30E0F90120812F7DFC0139
:10197000208309C081EC90E021EC30E0F901208166
:101980002F7DFC01208300000F90DF91CF91FF910C
:10199000EF91BF91AF919F918F917F916F915F91E7
:1019A0004F913F912F910F9000925F000F901F90E9
:1019B00018951F920F9200905F000F9211242F93A1
:1019C0003F934F935F936F937F938F939F93AF93C7
:1019D000BF93EF93FF93CF93DF931F92CDB7DEB703
:1019E0008091CB069091CC06892B31F18EEC90E062
:1019F000FC01808189838091CB069091CC06FC010B
:101A00008481958169810E94E5058091CB06909142
:101A1000CC06FC0186819781892B71F08091CB06E1
:101A20009091CC06FC01268137818091CB06909164
:101A3000CC066981F901099500000F90DF91CF91E3
:101A4000FF91EF91BF91AF919F918F917F916F9196
:101A50005F914F913F912F910F9000925F000F90F7
:101A60001F9018951F920F9200905F000F92112403
:101A70002F933F934F935F936F937F938F939F9396
:101A8000AF93BF93EF93FF93CF93DF931F92CDB7A5
:101A9000DEB78091CB069091CC06892BF9F080912E
:101AA000CB069091CC06FC01828193819E012F5F31
:101AB0003F4FB9010E949D05882331F48EEC90E0E0
:101AC0002981FC01208313C089EC90E029EC30E0EF
:101AD000F90120812F7DFC01208309C089EC90E071
:101AE00029EC30E0F90120812F7DFC0120830000EA
:101AF0000F90DF91CF91FF91EF91BF91AF919F91A7
:101B00008F917F916F915F914F913F912F910F90A6
:101B100000925F000F901F901895CF93DF9300D035
:101B200000D01F92CDB7DEB79C838B836D838B81F2
:101B30009C819A8389830FB6F8940F9289819A8148
:101B4000FC018081918129813A81F901238D422F05
:101B500050E029813A81F901248D222F30E0429F03
:101B6000B001439F700D529F700D11249B01280FEF
:101B7000391F89819A81FC013383228389819A816B
:101B8000FC01128E89819A81FC0120813181898139
:101B90009A81FC013583248389819A81FC018081AB
:101BA000918129813A81F901238D222F30E0A90109
:101BB0004150510929813A81F901248D222F30E0C9
:101BC000429FB001439F700D529F700D11249B01E5
:101BD000280F391F89819A81FC01378326838981E7
:101BE0009A812FEFFC01258F89819A812FEFFC01CB
:101BF000268F8D81882381F489819A81FC018085DB
:101C00008823A1F089819A8108960E94C9158823AA
:101C100069F00E946C090AC089819A8108960E9425
:101C2000280689819A8141960E9428060F900FBE4E
:101C300081E00F900F900F900F900F90DF91CF9158
:101C400008950F931F93CF93DF93CDB7DEB72997F6
:101C50000FB6F894DEBF0FBECDBF8F83688749876C
:101C60008885882319F41A8219820FC08F81482F22
:101C700050E08885282F30E0429FC001439F900D9F
:101C8000529F900D11249A83898389819A8181962C
:101C90000E948A0A9C838B838B819C81892B81F093
:101CA0008B819C8181969E838D832B813C818D814C
:101CB0009E8189012985AC0168858F810E946D0E06
:101CC0008B819C8129960FB6F894DEBF0FBECDBFE5
:101CD000DF91CF911F910F9108950F931F93CF9391
:101CE000DF93CDB7DEB727970FB6F894DEBF0FBEF0
:101CF000CDBF89836A835C834B832D831F830E83CF
:101D00008A81882341F48E819F812E813F81FC014D
:101D10003183208307C08E819F812B813C81FC0110
:101D2000318320838E819F812981FC01238F8E81C5
:101D30009F812A81FC01248F8E819F8161E00E9416
:101D40008D0D8E819F812D81FC0120A3000027969F
:101D50000FB6F894DEBF0FBECDBFDF91CF911F91BC
:101D60000F910895CF93DF9300D0CDB7DEB79A835C
:101D7000898389819A81892BB9F089819A81FC01B3
:101D80001382128289819A81FC01118210828981D9
:101D90009A81FC01168289819A8120E040E050E01E
:101DA00060E070E00E94FA0E00000F900F90DF914B
:101DB000CF910895CF93DF9300D000D01F92CDB77D
:101DC000DEB78D8381E089831A824D816A818981A2
:101DD0000E94210E9C838B838B819C810E94B20E7A
:101DE0008B819C810F900F900F900F900F90DF913F
:101DF000CF910895CF93DF93CDB7DEB72E970FB66F
:101E0000F894DEBF0FBECDBF998788877B876A872E
:101E10005D874C872E871982888599859B838A8365
:101E20000FB6F8940F928A819B81FC01228D8A81E2
:101E30009B81FC01838D281718F08E85823011F567
:101E40002A853B858A819B814E85B9010E940A10B3
:101E50008C838A819B81FC018189882351F08A814E
:101E60009B8141960E94C915882341F00E946C090C
:101E700005C08C81882311F00E946C090F900FBE61
:101E800081E060C08C859D85892B21F40F900FBE69
:101E900080E058C08981882331F4CE0105960E94E4
:101EA000361681E089830F900FBE0E948F130FB604
:101EB000F8940F928A819B81FC01858D8F3F21F4DC
:101EC0008A819B81FC01158E8A819B81FC01868D14
:101ED0008F3F21F48A819B81FC01168E0F900FBEEB
:101EE0009E01245F3F4FCE010596B9010E94521614
:101EF000882309F58A819B810E9438118823A1F0EB
:101F00002C853D858A819B810896B9010E94A61582
:101F10008A819B810E94DA100E949C13882309F019
:101F20007FCF0E946C097CCF8A819B810E94DA104E
:101F30000E949C1375CF8A819B810E94DA100E94B7
:101F40009C1380E02E960FB6F894DEBF0FBECDBF77
:101F5000DF91CF910895CF93DF93CDB7DEB72C9764
:101F60000FB6F894DEBF0FBECDBF9F838E837987F7
:101F700068875B874A872C878E819F819B838A83B2
:101F80001C828A819B81FC01228D8A819B81FC01BC
:101F9000838D281718F08C85823089F58A819B8182
:101FA000FC01868D8D83288539858A819B814C85AE
:101FB000B9010E940A108D818F3FB9F48A819B81FB
:101FC000FC0181898823C1F08A819B8141960E940E
:101FD000C915882389F08A859B85892B69F08A85B4
:101FE0009B8521E0FC01208307C08D818F5F282F16
:101FF0008A819B81FC01268F81E0898301C019823F
:1020000089812C960FB6F894DEBF0FBECDBFDF914D
:10201000CF910895CF93DF93CDB7DEB727970FB653
:10202000F894DEBF0FBECDBF9C838B837E836D8310
:102030004F8319828B819C81FC01828D8A838B81E5
:102040009C81FC01848D8823B1F48B819C81FC01EF
:1020500080819181892B09F09CC08B819C81FC013E
:10206000828193810E949D1789838B819C81FC01D1
:10207000138212828EC08F818823D9F58B819C8137
:10208000FC01848D482F50E08B819C81FC01848170
:1020900095812D813E81B9010E94531D8B819C81C8
:1020A000FC01248135818B819C81FC01848D882FEA
:1020B00090E0280F391F8B819C81FC01358324839C
:1020C0008B819C81FC01248135818B819C81FC0169
:1020D000828193812817390708F45BC08B819C812A
:1020E000FC01208131818B819C81FC01358324831B
:1020F00050C08B819C81FC01848D482F50E08B81E6
:102100009C81FC01868197812D813E81B9010E94CD
:10211000531D8B819C81FC01268137818B819C81A1
:10212000FC01848D882F90E0919581959109280F6D
:10213000391F8B819C81FC01378326838B819C8195
:10214000FC01268137818B819C81FC0180819181FA
:1021500028173907A8F48B819C81FC0122813381E7
:102160008B819C81FC01848D882F90E091958195D5
:102170009109280F391F8B819C81FC0137832683AD
:102180008F81823031F48A81882319F08A818150CD
:102190008A838A8121E0280F8B819C81FC01228F18
:1021A000898127960FB6F894DEBF0FBECDBFDF91B1
:1021B000CF910895CF93DF9300D000D0CDB7DEB795
:1021C0009C838B830FB6F8940F928B819C81FC01CA
:1021D000868D898312C08B819C81FC018189882333
:1021E00081F08B819C8141960E94C915882311F052
:1021F0000E94BA16898181508983898118165CF3FF
:1022000001C000008B819C812FEFFC01268F0F9075
:102210000FBE0FB6F8940F928B819C81FC01858DC7
:102220008A8312C08B819C81FC018085882381F088
:102230008B819C8108960E94C915882311F00E9409
:10224000BA168A8181508A838A8118165CF301C08C
:1022500000008B819C812FEFFC01258F0F900FBE1A
:1022600000000F900F900F900F90DF91CF91089585
:10227000CF93DF9300D01F92CDB7DEB79B838A83C5
:102280000FB6F8940F928A819B81FC01228D8A817E
:102290009B81FC01838D281719F481E0898301C09B
:1022A00019820F900FBE89810F900F900F90DF91D0
:1022B000CF9108958F929F92AF92BF92CF92DF926B
:1022C000EF92FF920F931F93CF93DF93CDB7DEB7BB
:1022D00060970FB6F894DEBF0FBECDBF9F838E838D
:1022E000798768875B874A873D872C870E87F88ABE
:1022F000EF868A859B850E948A0A9D838C838C81C8
:102300009D81892BB9F08CE290E00E948A0A9A8321
:10231000898389819A81892B41F089819A812C81D5
:102320003D81FC01308F278B07C08C819D810E94ED
:10233000DF0A02C01A82198289819A81892B09F1E8
:102340008A859B85CC01A0E0B0E009811A814F8588
:1023500058892C853D8568857985EE81FF81812CA2
:10236000912C58016A01EE8489019C01AD01CF01D5
:102370000E94D71189819A810E94B31281E08B83D8
:1023800002C08FEF8B838B8160960FB6F894DEBF0F
:102390000FBECDBFDF91CF911F910F91FF90EF90B6
:1023A000DF90CF90BF90AF909F908F9008958F92C5
:1023B0009F92AF92BF92CF92DF92EF920F931F93B3
:1023C000CF93DF93CDB7DEB764970FB6F894DEBF37
:1023D0000FBECDBF9D838C837F836E832887398713
:1023E0004A875B871D870C87EE86D88ACF86BA8A94
:1023F000A98A9C8A8B8A2885398589899A89FC01D2
:102400008789908DA90165EA70E00E945C1D898929
:102410009A89FC012789308D888599850197820FDB
:10242000931F9B838A83198221C08981882F90E022
:102430002981222F30E04E815F81240F351FF90161
:10244000408129893A89820F931F4996FC01408374
:102450008981882F90E02E813F81820F931FFC019C
:102460008081882339F089818F5F898389818830D1
:10247000E0F201C0000089899A89FC0110A28E85D2
:10248000843010F083E08E8789899A892E85FC013B
:10249000268B89899A892E85FC0123A389899A89AB
:1024A000FC0114A289899A8902960E945E06898994
:1024B0009A890C960E945E0689899A8929893A89A7
:1024C000FC01318720878E85882F90E024E030E062
:1024D000281B390B89899A89FC01358724878989CA
:1024E0009A8929893A89FC01338B228B89899A89B7
:1024F000FC0116A215A289899A89FC0117A210A6CF
:1025000011A612A689899A89FC0113A64C855D85BE
:102510002C813D818A819B81B9010E948E079C019B
:1025200089899A89FC01318320838F859889892B39
:1025300039F08F85988929893A89FC013183208374
:10254000000064960FB6F894DEBF0FBECDBFDF91DA
:10255000CF911F910F91EF90DF90CF90BF90AF90F0
:102560009F908F900895CF93DF9300D0CDB7DEB7C3
:102570009A8389830FB6F8940F9280911C078F5F1E
:1025800080931C078091CD069091CE06892B69F42B
:1025900089819A819093CE068093CD0680911C0705
:1025A0008130C9F40E94D71616C080912007882375
:1025B00091F48091CD069091CE06FC012689898107
:1025C0009A81FC018689821730F089819A819093E3
:1025D000CE068093CD06809124078F5F80932407D9
:1025E0002091240789819A81FC0121A389819A8104
:1025F000FC01968980911F07891730F489819A819F
:10260000FC01868980931F0789819A81AC014E5F06
:102610005F4F89819A81FC018689282F30E0C901AA
:10262000880F991F880F991F880F991F820F931F7A
:102630008153994FBA010E9470060F900FBE80918E
:102640002007882371F08091CD069091CE06FC0181
:10265000268989819A81FC018689281710F40E94B5
:102660006C0900000F900F90DF91CF910895CF93E8
:10267000DF9300D01F92CDB7DEB79B838A83198288
:102680008A819B81892B51F00E948F138A819B81C3
:1026900060E00E941A180E949C1389838981882314
:1026A00011F40E946C0900000F900F900F90DF91C1
:1026B000CF910895EF92FF920F93CF93DF931F92E4
:1026C000CDB7DEB70F2EF7E2EF2EF7E0FF2EF02D9D
:1026D00000E020E030E045E550E06CE371E085EC9F
:1026E00096E10E945A1189838981813081F4F8949E
:1026F0008FEF9FEF909326078093250781E08093CB
:10270000200710921E0710921D070E943709000033
:102710000F90DF91CF910F91FF90EF900895CF939D
:10272000DF93CDB7DEB7809129078F5F80932907AC
:102730000000DF91CF910895CF93DF9300D000D0B8
:10274000CDB7DEB71A8219821B820FB6F8940F92AA
:102750008091290781508093290780912907882338
:1027600009F077C080911C07882309F472C049C022
:1027700080910E0790910F07FC01868197819A83C3
:10278000898389819A810C960E94370789819A8171
:1027900002960E94370789819A81FC01968980916F
:1027A0001F07891730F489819A81FC0186898093FB
:1027B0001F0789819A81AC014E5F5F4F89819A81A1
:1027C000FC018689282F30E0C901880F991F880FE6
:1027D000991F880F991F820F931F8153994FBA0138
:1027E0000E94700689819A81FC0126898091CD061C
:1027F0009091CE06FC018689281718F081E080931D
:10280000220780910907882309F0B2CF89819A8134
:10281000892B11F00E946E17809121078C838C8187
:10282000882379F00E943314882319F081E0809383
:1028300022078C8181508C838C81882399F7109298
:10284000210780912207882321F081E08B830E9459
:102850006C090F900FBE8B810F900F900F900F900F
:10286000DF91CF910895CF93DF93CDB7DEB729974E
:102870000FB6F894DEBF0FBECDBF19828091290735
:10288000882309F0C8C080911D0790911E0701960A
:102890009B838A838A819B8190931E0780931D0767
:1028A0008A819B81892BD9F4809105079091060735
:1028B0009D838C838091070790910807909306076A
:1028C000809305078C819D8190930807809307076B
:1028D000809123078F5F809323070E946E1780915A
:1028E0002507909126072A813B812817390708F48C
:1028F00078C08091050790910607FC0180818823AC
:1029000039F48FEF9FEF909326078093250769C0D6
:102910008091050790910607FC0185819681FC0155
:10292000868197819F838E838E819F81FC01828126
:102930009381998788872A813B8188859985281783
:10294000390738F488859985909326078093250761
:1029500048C08E819F8102960E9437078E819F8199
:10296000FC0184899589892B29F08E819F810C96A1
:102970000E9437078E819F81FC01968980911F07F5
:10298000891730F48E819F81FC01868980931F070F
:102990008E819F81AC014E5F5F4F8E819F81FC01D4
:1029A0008689282F30E0C901880F991F880F991F49
:1029B000880F991F820F931F8153994FBA010E946C
:1029C00070068E819F81FC0126898091CD069091B1
:1029D000CE06FC018689281708F48BCF81E0898315
:1029E00088CF8091CD069091CE06FC018689282F54
:1029F00030E0C901880F991F880F991F880F991F10
:102A0000820F931F8153994FFC018081823040F0E7
:102A100081E0898305C0809121078F5F8093210722
:102A200080912207882311F081E08983898129968A
:102A30000FB6F894DEBF0FBECDBFDF91CF910895E2
:102A4000CF93DF9300D01F92CDB7DEB780912907D7
:102A5000882321F081E08093220771C01092220721
:102A60008091CD069091CE06FC0185A196A10E9491
:102A7000700580911F07898303C0898181508983F4
:102A80008981282F30E0C901880F991F880F991F6D
:102A9000880F991F820F931F8153994FFC018081EA
:102AA000882359F38981282F30E0C901880F991FA5
:102AB000880F991F880F991F820F931F8153994F79
:102AC0009B838A838A819B81FC0181819281FC01A5
:102AD000228133818A819B81FC01328321838A8117
:102AE0009B81FC01218132818A819B810396281779
:102AF000390769F48A819B81FC0181819281FC0103
:102B0000228133818A819B81FC01328321838A81E6
:102B10009B81FC0181819281FC0186819781909348
:102B2000CE068093CD06898180931F078091CD06C4
:102B30009091CE06FC0185A196A10E944B05000054
:102B40000F900F900F90DF91CF910895CF93DF9367
:102B500000D000D0CDB7DEB79A8389837C836B83A6
:102B60008091CD069091CE069C01245F3F4F8981D4
:102B70009A81B9010E94BF068B819C8161E00E940D
:102B80001A1800000F900F900F900F90DF91CF91C7
:102B90000895CF93DF9300D000D01F92CDB7DEB75A
:102BA0009D838C838C819D81FC0185819681FC01B4
:102BB000868197819B838A838A819B810C960E9460
:102BC000370780912907882369F58A819B810296BE
:102BD0000E9437078A819B81FC01968980911F079B
:102BE000891730F48A819B81FC01868980931F07B5
:102BF0008A819B81AC014E5F5F4F8A819B81FC0182
:102C00008689282F30E0C901880F991F880F991FE6
:102C1000880F991F820F931F8153994FBA010E9409
:102C2000700608C08A819B810C96BC0189E097E000
:102C30000E9470068A819B81FC0126898091CD06C5
:102C40009091CE06FC018689821730F481E0898359
:102C500081E08093220701C0198289810F900F9033
:102C60000F900F900F90DF91CF910895CF93DF9346
:102C700000D0CDB7DEB79A8389832091230789815D
:102C80009A81FC01208320911D0730911E078981C4
:102C90009A81FC013283218300000F900F90DF9115
:102CA000CF910895CF93DF93CDB7DEB727970FB6B7
:102CB000F894DEBF0FBECDBF9D838C837F836E8370
:102CC0000FB6F8940F9280911D0790911E079B8379
:102CD0008A838C819D81FC019081809123079817C4
:102CE00069F08C819D81FC01218132818A819B81E7
:102CF0008217930718F081E0898330C08C819D8111
:102D0000FC01818192812A813B81281B390B8E81B4
:102D10009F81FC018081918128173907E8F48E8119
:102D20009F81FC01208131818C819D81FC01418149
:102D300052818A819B81BA01681B790BCB01280FD4
:102D4000391F8E819F81FC01318320838C819D817D
:102D50000E943616198202C081E089830F900FBE4F
:102D6000898127960FB6F894DEBF0FBECDBFDF91E5
:102D7000CF910895CF93DF93CDB7DEB781E08093F5
:102D800022070000DF91CF910895CF93DF9300D009
:102D9000CDB7DEB79A8389830E9415178091CF063D
:102DA000823010F00E946C090E94C303F5CFCF93CC
:102DB000DF931F92CDB7DEB7198213C08981282F08
:102DC00030E0C901880F991F880F991F880F991F3C
:102DD000820F931F8153994F0E94280689818F5F2C
:102DE00089838981843050F383EF96E00E9428061E
:102DF0008CEF96E00E94280689E097E00E94280662
:102E000082E197E00E94280683EF96E09093060700
:102E1000809305078CEF96E090930807809307074F
:102E200000000F90DF91CF910895CF93DF9300D0F2
:102E30001F92CDB7DEB72FC00E948F13909112075B
:102E400081E0992309F080E089830E949C138981A5
:102E5000882309F50FB6F8940F9280911707909187
:102E60001807FC01868197819B838A838A819B81D5
:102E700002960E94370780911C07815080931C079F
:102E800080911B07815080931B070F900FBE8A8192
:102E90009B810E94561780911B07882369F60000CA
:102EA0000F900F900F90DF91CF910895CF93DF9304
:102EB00000D0CDB7DEB79A83898389819A81FC01DE
:102EC0008789908D0E94DF0A89819A810E94DF0A9A
:102ED00000000F900F90DF91CF910895CF93DF9373
:102EE00000D0CDB7DEB78091050790910607FC01B1
:102EF0008081882339F48FEF9FEF9093260780938A
:102F0000250715C08091050790910607FC01858172
:102F10009681FC01868197819A83898389819A8130
:102F2000FC018281938190932607809325070000FE
:102F30000F900F90DF91CF910895CF93DF9300D042
:102F400000D01F92CDB7DEB79D838C838C819D818D
:102F50009B838A8319828C819D81892B09F461C0AE
:102F60008A819B81FC0184A12FEF280F8A819B819C
:102F7000FC0124A38A819B81FC0126898A819B8193
:102F8000FC0183A1281709F44CC08A819B81FC01B4
:102F900084A1882309F045C08A819B8102960E9402
:102FA00037078A819B81FC0123A18A819B81FC01D7
:102FB000268B8A819B81FC018689882F90E024E002
:102FC00030E0281B390B8A819B81FC0135872487DF
:102FD0008A819B81FC01968980911F07891730F4B3
:102FE0008A819B81FC01868980931F078A819B814E
:102FF000AC014E5F5F4F8A819B81FC018689282F3F
:1030000030E0C901880F991F880F991F880F991FF9
:10301000820F931F8153994FBA010E94700681E07D
:10302000898389810F900F900F900F900F90DF91FF
:10303000CF910895CF93DF93CDB7DEB727970FB623
:10304000F894DEBF0FBECDBF9E838D836F838091CA
:103050001D0790911E079A8389838091CD069091D8
:10306000CE0602960E94370729813A818D819E8182
:10307000820F931F9C838B838091CD069091CE0607
:103080002B813C81FC01338322832B813C8189810C
:103090009A812817390778F48091CD069091CE0651
:1030A0009C012E5F3F4F8091070790910807B9015F
:1030B0000E94BF061DC08091CD069091CE069C0156
:1030C0002E5F3F4F8091050790910607B9010E943E
:1030D000BF0680912507909126072B813C812817F8
:1030E000390730F48B819C819093260780932507C4
:1030F000000027960FB6F894DEBF0FBECDBFDF915C
:10310000CF9108955058BB27AA270E949A180C9473
:1031100072190E94641938F00E946B1920F039F47A
:103120009F3F19F426F40C9461190EF4E095E7FB27
:103130000C945B19E92F0E94831958F3BA176207A0
:1031400073078407950720F079F4A6F50C94A51968
:103150000EF4E0950B2EBA2FA02D0B01B9019001B2
:103160000C01CA01A0011124FF27591B99F0593FF6
:1031700050F4503E68F11A16F040A22F232F342F3E
:103180004427585FF3CF469537952795A795F0408C
:103190005395C9F77EF41F16BA0B620B730B840BA1
:1031A000BAF09150A1F0FF0FBB1F661F771F881F59
:1031B000C2F70EC0BA0F621F731F841F48F48795B1
:1031C00077956795B795F7959E3F08F0B0CF9395A3
:1031D000880F08F09927EE0F9795879508950E941C
:1031E0008B1988F09F5798F0B92F9927B751B0F0F5
:1031F000E1F0660F771F881F991F1AF0BA95C9F77B
:1032000014C0B13091F00E94A519B1E008950C945A
:10321000A519672F782F8827B85F39F0B93FCCF30D
:10322000869577956795B395D9F73EF490958095F7
:10323000709561957F4F8F4F9F4F0895E89409C017
:1032400097FB3EF490958095709561957F4F8F4FD9
:103250009F4F9923A9F0F92F96E9BB279395F695EF
:10326000879577956795B795F111F8CFFAF4BB0F6D
:1032700011F460FF1BC06F5F7F4F8F4F9F4F16C0D1
:10328000882311F096E911C0772321F09EE8872F5B
:10329000762F05C0662371F096E8862F70E060E017
:1032A0002AF09A95660F771F881FDAF7880F969590
:1032B000879597F9089597F99F6780E870E060E037
:1032C00008959FEF80EC089500240A9416161706BF
:1032D00018060906089500240A9412161306140607
:1032E00005060895092E0394000C11F4882352F06A
:1032F000BB0F40F4BF2B11F460FF04C06F5F7F4F22
:103300008F4F9F4F089557FD9058440F551F59F008
:103310005F3F71F04795880F97FB991F61F09F3FC2
:1033200079F087950895121613061406551FF2CFEB
:103330004695F1DF08C0161617061806991FF1CF3B
:1033400086957105610508940895E894BB27662762
:103350007727CB0197F90895FA01EE0FFF1F3096FA
:1033600021053105A1F16115710561F48038BFE3D4
:103370009B0749F168949038810561F08038BFEF70
:103380009B0741F099234AF5FF3FE10531052105EF
:1033900019F1E8940894E795D901AA2329F4AB2FF1
:1033A000BE2FF85FD0F310C0FF5F70F4A695E0F772
:1033B000F73950F019F0FF3A38F49F779F930DD00A
:1033C0000F9007FC9058089546F00C94611960E046
:1033D00070E080E89FE308954FE79F775F934F93F6
:1033E0003F932F930E94A71A2F913F914F915F9186
:1033F0000E94231B0C94041A29F416F00C945B19F8
:103400000C94A5190C9461190E948B19A8F3963895
:10341000A0F707F80F92E8942BE33AEA48EB5FE74E
:103420000E94391B0F920F920F924DB75EB70F9209
:103430000E94EF1AECE7F0E00E94361A4F915F917C
:10344000EF91FF91E595EE1FFF1F49F0FE57E068F1
:103450004427EE0F441FFA95E1F74195550B0E9462
:10346000691A0F9007FE0C945D1A0895DF93CF93AD
:103470001F930F93FF92EF92DF927B018C01689470
:1034800006C0DA2EEF010E94361BFE01E894A591DA
:103490002591359145915591A6F3EF010E949A1817
:1034A000FE019701A801DA9469F7DF90EF90FF9091
:1034B0000F911F91CF91DF9108959B01AC0160E0C6
:1034C00070E080E89FE30C94901B0C945B190C94C3
:1034D000021C0E948B19D8F39923C9F3940F511D34
:1034E000A3F39150504094F059F0882332F0660FC6
:1034F000771F881F91505040C1F79E3F51052CF710
:10350000880F911D9695879597F908955F3FACF0C8
:10351000983E9CF0BB27869577956795B79508F4FC
:10352000B1609395C1F7BB0F58F711F460FFE8CF76
:103530006F5F7F4F8F4F9F4FE3CF0C94A61916F00C
:103540000C94021C0C94611968940C945B190E94F1
:103550008B19A8F39923C1F3AEF3DF93CF931F9395
:103560000F93FF92C92FDD2788232AF02197660F3A
:10357000771F881FDAF720E030E040E85FEB9FE339
:10358000883920F0803E38F021968F770E9483188A
:10359000E4EAF0E004C00E948318E1EDF0E00E944C
:1035A000361A8B01BE01EC01FB2E6F577109759520
:1035B000771F880B990B0E94201928E132E741E31D
:1035C0005FE30E94361BAF2D9801AE01FF900F9173
:1035D0001F91CF91DF910E949A180C947219FA01F1
:1035E000DC01AA0FBB1F9B01AC01BF5728F42227A7
:1035F00033274427507820C0B75190F4AB2F0024D4
:10360000469537952795011CA395D2F3002071F0BC
:10361000220F331F441FB395DAF30ED00C94821897
:1036200061307105A0E88A07B94630F49B01AC010E
:103630006627772788279078309621F0208331837A
:103640004283538308950E94361B0C9472190E9482
:10365000641938F00E946B1920F0952311F00C9436
:103660005B190C94611911240C94A6190E948319FA
:1036700070F3959FC1F3950F50E0551F629FF001C5
:10368000729FBB27F00DB11D639FAA27F00DB11DDE
:10369000AA1F649F6627B00DA11D661F829F222767
:1036A000B00DA11D621F739FB00DA11D621F839FEE
:1036B000A00D611D221F749F3327A00D611D231FC4
:1036C000849F600D211D822F762F6A2F11249F5712
:1036D00050409AF0F1F088234AF0EE0FFF1FBB1F15
:1036E000661F771F881F91505040A9F79E3F5105D4
:1036F00080F00C945B190C94A6195F3FE4F3983E9C
:10370000D4F3869577956795B795F795E7959F5F7D
:10371000C1F7FE2B880F911D9695879597F908950F
:103720000E94A41B0C9472190E946B1958F00E94FD
:10373000641940F029F45F3F29F00C945B19511192
:103740000C94A6190C9461190E94831968F39923AB
:10375000B1F3552391F3951B550BBB27AA2762178D
:103760007307840738F09F5F5F4F220F331F441F9A
:10377000AA1FA9F335D00E2E3AF0E0E832D09150CE
:103780005040E695001CCAF72BD0FE2F29D0660FBB
:10379000771F881FBB1F261737074807AB07B0E8FE
:1037A00009F0BB0B802DBF01FF2793585F4F3AF004
:1037B0009E3F510578F00C945B190C94A6195F3F5D
:1037C000E4F3983ED4F3869577956795B795F7958A
:1037D0009F5FC9F7880F911D9695879597F9089572
:1037E000E1E0660F771F881FBB1F6217730784070E
:1037F000BA0720F0621B730B840BBA0BEE1F88F71D
:10380000E09508959F3F31F0915020F4879577958A
:103810006795B795880F911D9695879597F90895A7
:10382000A1E21A2EAA1BBB1BFD010DC0AA1FBB1FC4
:10383000EE1FFF1FA217B307E407F50720F0A21B36
:10384000B30BE40BF50B661F771F881F991F1A94A3
:1038500069F760957095809590959B01AC01BD01CD
:10386000CF0108950F931F93CF93DF93823091057B
:1038700010F482E090E0E0912C07F0912D0720E019
:1038800030E0A0E0B0E0309719F140815181028131
:10389000138148175907C8F08417950769F41097E2
:1038A00031F012960C93129713961C9327C0009335
:1038B0002C0710932D0722C02115310519F042174E
:1038C000530718F49A01BD01EF01DF01F801DBCFC6
:1038D00021153105F9F0281B390B2430310580F40E
:1038E0008A819B816115710521F0FB01938382839D
:1038F00004C090932D0780932C07FE01329644C09C
:10390000FE01E20FF31F8193919322503109398315
:1039100028833AC020912A0730912B07232B41F4AA
:10392000209102013091030130932B0720932A0745
:1039300020910001309101012115310541F42DB78D
:103940003EB74091040150910501241B350BE091D5
:103950002A07F0912B07E217F307A0F42E1B3F0B69
:103960002817390778F0AC014E5F5F4F24173507F1
:1039700048F04E0F5F1F50932B0740932A07819307
:10398000919302C0E0E0F0E0CF01DF91CF911F9171
:103990000F910895CF93DF93009709F481C0FC0144
:1039A000329713821282A0912C07B0912D071097A5
:1039B00081F420813181820F931F20912A07309159
:1039C0002B072817390751F5F0932B07E0932A07A7
:1039D00067C0ED0120E030E0CE17DF0740F44A81F8
:1039E0005B819E0141155105F1F0EA01F5CFD383CA
:1039F000C28340815181840F951FC817D90759F49C
:103A000088819981840F951F0296918380838A8192
:103A10009B81938382832115310529F4F0932D072F
:103A2000E0932C073DC0E901FB83EA83499159915A
:103A3000C40FD51FEC17FD0761F480819181840FBD
:103A4000951F0296E90199838883828193819B83E4
:103A50008A83E0E0F0E012968D919C911397009795
:103A600019F0FD01DC01F7CF8D919C9111979D011B
:103A70002E5F3F4F820F931F20912A0730912B0713
:103A80002817390769F4309729F410922D071092FE
:103A90002C0702C013821282B0932B07A0932A072F
:103AA000DF91CF910895FB01DC0102C001900D92DE
:103AB00041505040D8F70895DC0101C06D9341504A
:0A3AC0005040E0F70895F894FFCF9E
:103ACA0000002E072000C600CE0047414D45204F7A
:103ADA005645520A0044454144210A006D6F7665F5
:103AEA000047616D652070726F63657373696E67F5
:103AFA00004D616B65206672616D650049444C45F5
:023B0A000000B9
:00000001FF
