S01500004672656552544F532D546573742E7372656378
S11300000C947F000C949C000C949C000C949C0019
S11300100C949C000C949C000C949C000C949C00EC
S11300200C949C000C949C000C949C000C949C00DC
S11300300C949C000C941C0B0C949C000C949C0041
S11300400C9411050C949C000C949C000C949C0042
S11300500C94BB0C0C94140D0C949C000C949C00FC
S11300600C949C000C949C000C949C000C949C009C
S11300700C946F0D0C94C80D0C949C0007634236CD
S1130080B79BD8A71A39685618AEBAAB558C1D3C25
S1130090B7CC5763BD6DEDFD753EF6177231BF00E9
S11300A00000803F08000000BE922449123EABAA23
S11300B0AA2ABECDCCCC4C3E00000080BEABAAAA7E
S11300C0AA3E00000000BF000000803F00000000C6
S11300D000084178D3BB4387D1133D190E3CC3BDFF
S11300E04282AD2B3E68EC8276BED98FE1A93E4CAC
S11300F080EFFFBE01C4FF7F3F0000000000112419
S11301001FBECFEFD8E0DEBFCDBF11E0A0E0B1E06D
S1130110E4E0FCE302C005900D92A035B107D9F7E5
S113012027E0A0E5B1E001C01D92AC33B207E1F7CE
S11301300E9452040C94001E0C9400000F931F9311
S1130140CF93DF93CDB7DEB72A970FB6F894DEBF0F
S11301500FBECDBF9A8789871A8219821AC01C8262
S11301601B820EC08B819C81880F991F805B9E4FE0
S1130170FC01118210828B819C8101969C838B836C
S11301808B819C810E9774F389819A8101969A835D
S1130190898389819A810A9714F31E821D8265C01E
S11301A018861F8258C08F819885880F991F9C01DB
S11301B0220F331F220F331F820F931F2D813E8185
S11301C0820F931F880F991F84599E4FFC018081D1
S11301D09181892BD9F18F819885880F991F805B34
S11301E09E4FFC01008111818D819E81092E000C9E
S11301F0AA0BBB0BBC01CD010E94BD19DC01CB01D4
S11302009C01AD0160E070E080E090E40E94491A36
S1130210DC01CB0120E030E040E05FE3BC01CD0134
S11302200E941919DC01CB01BC01CD010E94851982
S1130230DC01CB019801280F391F8F819885880F25
S1130240991F805B9E4FFC01318320838F819885A9
S1130250019698878F838F8198850E970CF4A3CF8E
S11302608D819E8101969E838D838D819E810A97C7
S11302700CF496CF82E390E00E94CD136DCFCF9320
S1130280DF93CDB7DEB766E085E191E00E944805D3
S11302900000DF91CF910895CF93DF93CDB7DEB700
S11302A02F970FB6F894DEBF0FBECDBF9F878E8702
S11302B0198285E090E0909385028093840285E022
S11302C090E09093870280938602109288028CE0DB
S11302D090E09B878A8785E090E09D878C878A855C
S11302E09B85AC85BD858093890290938A02A093F7
S11302F08B02B0938C028AE090E090938E028093FC
S11303008D0285E090E09093900280938F0283E0C9
S113031080939102FEC020918402309185028091E5
S1130320890290918A022817390709F04EC08091FA
S11303308602909187029B838A833CC080918902C4
S113034090918A02880F991F9C01220F331F220F5C
S1130350331F820F931F2A813B81820F931F880FC3
S1130360991F84599E4FFC0180819181029719F451
S113037081E089831AC08091890290918A02880F52
S1130380991F9C01220F331F220F331F820F931FCB
S11303902A813B81820F931F880F991F84599E4F96
S11303A021E030E0FC01318320838A819B81019626
S11303B09B838A8320918B0230918C028A819B815A
S11303C0281739070CF0BACF59C020918602309112
S11303D0870280918B0290918C022817390709F0CB
S11303E04DC080918402909185029D838C833CC092
S11303F020918B0230918C028C819D81880F991FF2
S1130400AC01440F551F440F551F840F951F820FD5
S1130410931F880F991F84599E4FFC0180819181FD
S1130420029719F481E089831AC020918B023091DC
S11304308C028C819D81880F991FAC01440F551F3C
S1130440440F551F840F951F820F931F880F991F08
S113045084599E4F21E030E0FC01318320838C815C
S11304609D8101969D838C832091890230918A021B
S11304708C819D81281739070CF0BACF1F821E8208
S11304803FC01986188633C08E819F81880F991FBB
S11304909C01220F331F220F331F820F931F2885C5
S11304A03985820F931F880F991F84599E4FFC0131
S11304B0808191810297B1F48E819F81880F991F69
S11304C09C01220F331F220F331F820F931F288595
S11304D03985820F931F880F991F84599E4FFC0101
S11304E011821082888599850196998788878885E5
S11304F099850A974CF28E819F8101969F838E8302
S11305008E819F810E970CF4BCCF88EE93E00E94FD
S1130510CD13998181E08927882309F0FCCE0E94BC
S11305203F01F8CEEF92FF920F931F93CF93DF9387
S1130530CDB7DEB72C970FB6F894DEBF0FBECDBF94
S11305409C878B871A828FE08D831B821C8286E2B4
S113055090E0FC0180818695882F90E08170992736
S113056021E0892B09F020E02E8386E290E0FC0153
S11305708081881F8827881F882F90E081709927A1
S113058021E0892B09F020E02F8386E290E0FC0132
S113059080818295869586958370882F90E08170FE
S11305A0992721E0892B09F020E0288786E290E052
S11305B0FC018081882F90E08170992721E0892BAC
S11305C009F020E0298789E290E0FC01808186958A
S11305D086958695882F90E08170992721E0892B54
S11305E009F020E02A878985882339F083E089830C
S11305F081E08B8381E08C8323C08E81882339F052
S113060081E0898381E08B8381E08C8319C08885B4
S1130610882339F082E0898381E08B8381E08C83B5
S11306200FC08F81882331F0198281E08B8381E0B0
S11306308C8306C08A85882311F01A8201C01C822B
S11306408B81882349F18C81882331F58A818F5FDE
S11306508A839A818D819817F8F064E08CE191E0A7
S11306600E9448058981882F90E07C0100918402D2
S11306701091850220918602309187024091880270
S11306805091890260918A0270918B0280918C0250
S11306900E9451031B821A8284E190E00E94CD13D0
S11306A056CFEF920F931F93CF93DF93CDB7DEB75F
S11306B02A970FB6F894DEBF0FBECDBF09831A8305
S11306C02B833C834D835E836F8378878987EA8697
S11306D08A85882F90E08130910539F18230910527
S11306E01CF4892BC9F031C08230910519F00397AD
S11306F051F02BC08D81882319F08D818130F1F464
S11307008A858D831BC08D81882319F08D8181306A
S1130710B9F48A858D8314C08D81823019F08D815E
S1130720833081F48A858D830DC08D81823019F0E8
S11307308D81833049F48A858D8306C0000005C00D
S1130740000003C0000001C0000000002A960FB69C
S1130750F894DEBF0FBECDBFDF91CF911F910F91F3
S1130760EF900895CF93DF93CDB7DEB78BE290E09F
S11307702BE230E0F90120812460FC012083000099
S1130780DF91CF910895CF93DF93CDB7DEB78BE29E
S113079090E02BE230E0F90120812062FC0120830B
S11307A08BE290E02BE230E0F90120812F7DFC0107
S11307B020838BE290E02BE230E0F901208120617C
S11307C0FC0120838BE290E02BE230E0F9012081F0
S11307D02F7EFC0120838BE290E02BE230E0F901D4
S11307E020812B7FFC0120830000DF91CF910895AD
S11307F0CF93DF9300D0CDB7DEB79A83898382E2AB
S113080090E029812095FC01208385E290E025E297
S113081030E0F90120812360FC01208385E290E02F
S113082025E230E0F901408129813A81232F3327E1
S1130830237020952423FC01208300000F900F9047
S1130840DF91CF910895CF93DF93CDB7DEB7809139
S11308509E02882311F40E94B20380919E02882F85
S113086090E0880F991F805B9E4FFC0180819181ED
S11308700E94F8030E94C30380919E0291E0980FA6
S113088090939E028E3010F010929E020000DF9131
S1130890CF910895CF93DF93CDB7DEB70000DF91FA
S11308A0CF910895EF92FF920F93CF93DF9300D0EF
S11308B01F92CDB7DEB70E9462058BE290E02BE277
S11308C030E0F90120812F7BFC01208381E00E942C
S11308D0700F909397028093960281E00E94700FAC
S11308E0909399028093980281E00E94700F9093F4
S11308F09B0280939A0281E00E94700F90939D0264
S113090080939C02E12CF12C00E020E030E045E5EE
S113091050E061E271E082E992E00E94F011898383
S1130920E12CF12C00E020E030E045E550E06FE2FE
S113093071E08CE491E00E94F0118A83E12CF12CA7
S113094000E020E030E045E550E06FE371E08EE93F
S113095090E00E94F0118B8383E294E00E94DE0415
S113096078940E94F013FFCFCF93DF9300D000D090
S1130970CDB7DEB79B838A836C838091A10290916B
S1130980A202892B99F019828091A1029091A2026E
S1130990BE016C5F7F4F20E0AE014F5F5F4F0E944E
S11309A041108981882311F00E94020A00000F90EF
S11309B00F900F900F90DF91CF910895CF93DF9315
S11309C000D0CDB7DEB79A83898389819A819093C9
S11309D0A4028093A30287E490E02AE0FC01208330
S11309E084E490E024E430E0F90120812260FC01F9
S11309F020838EE690E02EE630E0F901208122602B
S1130A00FC01208385E490E025E430E0F9012081B5
S1130A102560FC01208300000F900F90DF91CF919F
S1130A2008951F920F9200905F000F9211242F934C
S1130A303F934F935F936F937F938F939F93AF9362
S1130A40BF93EF93FF93CF93DF93CDB7DEB780913E
S1130A50A3029091A402892B31F08091A30290917A
S1130A60A402FC0109950000DF91CF91FF91EF9161
S1130A70BF91AF919F918F917F916F915F914F91B2
S1130A803F912F910F9000925F000F901F90189547
S1130A90CF93DF9300D01F92CDB7DEB79A838983BB
S1130AA06B8380919F029091A00229813A814B81AE
S1130AB0B9010E945C0C00000F900F900F90DF9121
S1130AC0CF9108958F929F92AF92BF92CF92DF926F
S1130AD0EF920F93CF93DF93CDB7DEB785EA92E021
S1130AE00E941A0688EC92E00E941A060F2EF4EB7C
S1130AF08F2EF4E09F2EF02D0F2EF8ECAF2EF2E0A7
S1130B00BF2EF02D0F2EF5EACF2EF2E0DF2EF02DC2
S1130B10E12C00E023E040E052EC61E070E080E092
S1130B200E949B0B9093A00280939F0288E290E026
S1130B3028E230E0F9012081236CFC0120838BE260
S1130B4090E02BE230E0F90120812860FC01208351
S1130B508AE290E02AE230E0F90120812467FC0176
S1130B6020838BE290E02BE230E0F90120812064C5
S1130B70FC01208381E290E0FC01808181E290E02D
S1130B802FEFFC01208384E290E024E230E0F901BD
S1130B9020812360FC01208384E290E024E230E0A1
S1130BA0F90120812C63FC0120830000DF91CF91A7
S1130BB00F91EF90DF90CF90BF90AF909F908F9068
S1130BC00895CF93DF931F92CDB7DEB7898385E273
S1130BD090E025E230E0F9012081237CFC012083B0
S1130BE085E290E025E230E0F9012081422F29815D
S1130BF0222F30E0220F331F220F331F242BFC013E
S1130C00208300000F90DF91CF910895CF93DF935D
S1130C101F92CDB7DEB7898385E290E025E230E00C
S1130C20F9012081237CFC01208300000F90DF91D7
S1130C30CF910895CF93DF9300D0CDB7DEB79A83D9
S1130C40898389819A81FC0110A289819A81FC019E
S1130C5011A289819A81FC0112A200000F900F90C9
S1130C60DF91CF910895CF93DF9300D000D0CDB71B
S1130C70DEB79A8389837C836B8389819A81FC01A3
S1130C8082A1882381F189819A81FC0181A1882F25
S1130C9090E029813A81820F931FFC0120818B818E
S1130CA09C81FC01208389819A81FC0181A1882F88
S1130CB090E001968F719078992324F40197806EC7
S1130CC09F6F0196282F89819A81FC0121A3898134
S1130CD09A81FC0182A12FEF280F89819A81FC015E
S1130CE022A380E001C081E00F900F900F900F903D
S1130CF0DF91CF910895CF93DF9300D01F92CDB7AA
S1130D00DEB79A8389836B8389819A81FC0182A1EE
S1130D10803268F589819A81FC0180A1882F90E056
S1130D2029813A81820F931F2B81FC0120838981C1
S1130D309A81FC0180A1882F90E001968F719078B0
S1130D40992324F40197806E9F6F0196282F89813F
S1130D509A81FC0120A389819A81FC0182A121E06E
S1130D60280F89819A81FC0122A380E001C082E0DE
S1130D700F900F900F90DF91CF910895CF93DF9351
S1130D8000D0CDB7DEB79A83898389819A819C018B
S1130D902D5F3F4F89819A81FC01328321838981B0
S1130DA09A812FEF3FEFFC013483238389819A8159
S1130DB09C012D5F3F4F89819A81FC0136832583F5
S1130DC089819A819C012D5F3F4F89819A81FC0121
S1130DD03087278389819A81FC01108200000F905B
S1130DE00F90DF91CF910895CF93DF9300D0CDB7CB
S1130DF0DEB79A83898389819A81FC0111861086E2
S1130E0000000F900F90DF91CF910895CF93DF935F
S1130E1000D000D000D0CDB7DEB79C838B837E8317
S1130E206D838B819C81FC01818192819A8389836A
S1130E308D819E8129813A81FC01338322838981BA
S1130E409A81FC01248135818D819E81FC01358349
S1130E50248389819A81FC01848195812D813E813D
S1130E60FC013383228389819A812D813E81FC0197
S1130E70358324838D819E812B813C81FC013187C4
S1130E8020878B819C81FC01808121E0280F8B814C
S1130E909C81FC012083000026960FB6F894DEBFE7
S1130EA00FBECDBFDF91CF910895CF93DF93CDB720
S1130EB0DEB728970FB6F894DEBF0FBECDBF9E8372
S1130EC08D8378876F838F819885FC0180819181E0
S1130ED09C838B838B819C81019641F48D819E81BF
S1130EE0FC01878190859A8389831AC08D819E81B4
S1130EF003969A83898307C089819A81FC01828140
S1130F0093819A83898389819A81FC018281938167
S1130F10FC01208131818B819C818217930760F7CA
S1130F2089819A81FC01228133818F819885FC011A
S1130F30338322838F819885FC01828193812F8161
S1130F403885FC01358324838F81988529813A81F2
S1130F50FC013583248389819A812F813885FC01A2
S1130F60338322838F8198852D813E81FC013187D3
S1130F7020878D819E81FC01808121E0280F8D8155
S1130F809E81FC012083000028960FB6F894DEBFF2
S1130F900FBECDBFDF91CF910895CF93DF9300D0E3
S1130FA000D0CDB7DEB79C838B838B819C81FC0101
S1130FB0808591859A8389838B819C81FC018281C0
S1130FC093812B813C81F90124813581FC01358396
S1130FD024838B819C81FC01848195812B813C81BC
S1130FE0F90122813381FC013383228389819A812F
S1130FF0FC01218132818B819C812817390751F4AE
S11310008B819C81FC012481358189819A81FC0139
S1131010328321838B819C81FC0111861086898116
S11310209A81FC0180812FEF280F89819A81FC012C
S1131030208389819A81FC0180810F900F900F9009
S11310400F90DF91CF910895CF93DF93CDB7DEB7A3
S113105028970FB6F894DEBF0FBECDBF9C838B8359
S11310607E836D8358874F838B819C8121E1FC01B2
S113107020838B819C8101979C838B838B819C81B2
S113108022E2FC0120838B819C8101979C838B83CA
S11310908B819C8123E3FC0120838B819C810197BC
S11310A09C838B838D819E819A83898329818B8103
S11310B09C81FC0120838B819C8101979C838B8381
S11310C089819A81892F99279A83898329818B81A0
S11310D09C81FC0120838B819C8101979C838B8361
S11310E08B819C81FC0110828B819C8101979C8364
S11310F08B838B819C8120E8FC0120838B819C81E4
S113110001979C838B838B819C81FC0110828B8152
S11311109C8101979C838B838B819C8122E0FC01C1
S113112020838B819C8101979C838B838B819C8101
S113113023E0FC0120838B819C8101979C838B831A
S11311408B819C8124E0FC0120838B819C8101970D
S11311509C838B838B819C8125E0FC0120838B8184
S11311609C8101979C838B838B819C8126E0FC016D
S113117020838B819C8101979C838B838B819C81B1
S113118027E0FC0120838B819C8101979C838B83C6
S11311908B819C8128E0FC0120838B819C810197B9
S11311A09C838B838B819C8129E0FC0120838B8130
S11311B09C8101979C838B838B819C8120E1FC0122
S11311C020838B819C8101979C838B838B819C8161
S11311D021E1FC0120838B819C8101979C838B837B
S11311E08B819C8122E1FC0120838B819C8101976E
S11311F09C838B838B819C8123E1FC0120838B81E5
S11312009C8101979C838B838B819C8124E1FC01CD
S113121020838B819C8101979C838B838B819C8110
S113122025E1FC0120838B819C8101979C838B8326
S11312308B819C8126E1FC0120838B819C81019719
S11312409C838B838B819C8127E1FC0120838B8190
S11312509C8101979C838B838B819C8128E1FC0179
S113126020838B819C8101979C838B838B819C81C0
S113127029E1FC0120838B819C8101979C838B83D2
S11312808B819C8120E2FC0120838B819C810197CE
S11312909C838B838B819C8121E2FC0120838B8145
S11312A09C8101979C838B838B819C8122E2FC012E
S11312B020838B819C8101979C838B838B819C8170
S11312C023E2FC0120838B819C8101979C838B8387
S11312D08F8198859A83898329818B819C81FC01E4
S11312E020838B819C8101979C838B8389819A8144
S11312F0892F99279A83898329818B819C81FC0179
S113130020838B819C8101979C838B838B819C811F
S113131026E2FC0120838B819C8101979C838B8333
S11313208B819C8127E2FC0120838B819C81019726
S11313309C838B838B819C8128E2FC0120838B819D
S11313409C8101979C838B838B819C8129E2FC0186
S113135020838B819C8101979C838B838B819C81CF
S113136020E3FC0120838B819C8101979C838B83E8
S11313708B819C8121E3FC0120838B819C810197DB
S11313809C838B838B819C8128960FB6F894DEBF57
S11313900FBECDBFDF91CF910895CF93DF93CDB72B
S11313A0DEB70E94BA0AA091DB06B091DC06CD91AB
S11313B0CDBFDD91DEBFFF91EF91DF91CF91BF9162
S11313C0AF919F918F917F916F915F914F913F91D9
S11313D02F911F910F91FF90EF90DF90CF90BF90CE
S11313E0AF909F908F907F906F905F904F903F90C1
S11313F02F901F900F900FBE0F90089581E0DF9102
S1131400CF9108950F920FB6F8940F921F92112462
S11314102F923F924F925F926F927F928F929F9200
S1131420AF92BF92CF92DF92EF92FF920F931F93EE
S11314302F933F934F935F936F937F938F939F93D8
S1131440AF93BF93CF93DF93EF93FF93A091DB060A
S1131450B091DC060DB60D920EB60D920E94B61533
S1131460A091DB06B091DC06CD91CDBFDD91DEBF4E
S1131470FF91EF91DF91CF91BF91AF919F918F91A8
S11314807F916F915F914F913F912F911F910F9198
S1131490FF90EF90DF90CF90BF90AF909F908F9090
S11314A07F906F905F904F903F902F901F900F9080
S11314B00FBE0F90089500000F920FB6F8940F928C
S11314C01F9211242F923F924F925F926F927F92BC
S11314D08F929F92AF92BF92CF92DF92EF92FF9240
S11314E00F931F932F933F934F935F936F937F9328
S11314F08F939F93AF93BF93CF93DF93EF93FF9318
S1131500A091DB06B091DC060DB60D920EB60D92DD
S11315100E94C914882311F00E94B615A091DB061D
S1131520B091DC06CD91CDBFDD91DEBFFF91EF918F
S1131530DF91CF91BF91AF919F918F917F916F91E7
S11315405F914F913F912F911F910F91FF90EF90D9
S1131550DF90CF90BF90AF909F908F907F906F90CF
S11315605F904F903F902F901F900F900FBE0F9061
S113157008950000CF93DF9300D000D000D0CDB702
S1131580DEB789E999E3A0E0B0E089839A83AB836D
S1131590BC8389819A81AB81BC81689415F8B69526
S11315A0A795979587951694D1F789839A83AB83EA
S11315B0BC8389819A81AB81BC810197A109B1095E
S11315C089839A83AB83BC8389818D8389819A8142
S11315D0AB81BC81892F9A2FAB2FBB2789839A8338
S11315E0AB83BC8389818E8389E890E02E81FC01E2
S11315F0208388E890E02D81FC0120838BE08D839B
S113160081E890E02D81FC0120838FE690E0FC01CD
S113161080818D838D8182608D838FE690E02D8122
S1131620FC012083000026960FB6F894DEBF0FBE9F
S1131630CDBFDF91CF9108950E945C0A18950000F8
S1131640CF93DF9300D000D0CDB7DEB79C838B83DC
S11316501A8219820E9425148091D5069091D6068B
S1131660892B31F48CEE92E09093D6068093D506C4
S11316702091D3063091D4068B819C81820F931FD5
S1131680873E934038F52091D3063091D4068B8160
S11316909C81280F391F8091D3069091D40682171C
S11316A09307C0F42091D5063091D6068091D306D5
S11316B09091D406820F931F9A8389832091D30635
S11316C03091D4068B819C81820F931F9093D40612
S11316D08093D3060E94321489819A810F900F90CF
S11316E00F900F90DF91CF910895CF93DF9300D0A7
S11316F0CDB7DEB79A83898300000F900F90DF91F6
S1131700CF910895CF93DF9300D0CDB7DEB79A83FE
S1131710898389819A81059729813A8125503109E4
S1131720F90120812062FC01208300000F900F90BA
S1131730DF91CF9108958F929F92AF92BF92CF92F3
S1131740DF92EF920F931F93CF93DF93CDB7DEB762
S113175061970FB6F894DEBF0FBECDBF8C834D8367
S11317605E836F83788729870A87EB86DD86CC863C
S1131770BF86AE86998A888A88E090E00E94CF1C52
S11317809A8389838C81882F90E0880F991F8952CE
S1131790994F29813A81FC01318320838C81882FE0
S11317A090E0880F991F8A5F9E4FFC012081318150
S11317B089819A81FC013183208389819A812E85D4
S11317C03F85FC013383228389819A812C853D8561
S11317D0FC013583248389819A8128893989FC0114
S11317E0378326838FE590E0FC0180818B83F89416
S11317F089819A81FC0180819181069729813A81AE
S1131800F9012081318126503109F90120812260BA
S1131810FC01208389819A81FC01808191818C0162
S1131820025011098D819E81AF81B885880F991F5F
S1131830AA1FBB1F880F991FAA1FBB1F880F991FC0
S1131840AA1FBB1F9C01AD0180E090E0A1EEB0E0B7
S1131850BC01CD010E94AD1CDA01C9018150F8011F
S1131860808389819A81FC0180819181059728E98F
S1131870FC01208389819A81FC01808191810497F4
S113188026E0FC0120838FE590E02B81FC0120837E
S113189089819A8161960FB6F894DEBF0FBECDBFE1
S11318A0DF91CF911F910F91EF90DF90CF90BF9078
S11318B0AF909F908F900895CF93DF9300D000D086
S11318C000D0CDB7DEB79B838A837D836C834E8340
S11318D08A819B81FC0182819381892BA9F08E816D
S11318E0282F30E08A819B81FC0182819381FC0155
S11318F082A1882F90E040E250E0BA01681B790B86
S1131900CB018217930754F08A819B81FC01828169
S11319109381892B29F48E81823010F082E022C0D9
S1131920198214C08981882F90E02C813D81820F17
S1131930931FFC0120818A819B81FC018281938118
S1131940622F0E947B0689818F5F898399818E81B2
S1131950981740F38A819B81FC01808191810E94C8
S1131960820B80E026960FB6F894DEBF0FBECDBF83
S1131970DF91CF9108951F920F9200905F000F9214
S113198011242F933F934F935F936F937F938F9380
S11319909F93AF93BF93EF93FF93CF93DF931F92E4
S11319A0CDB7DEB78091D7069091D806892B31F157
S11319B086EC90E0FC01808189838091D706909128
S11319C0D806FC018481958169810E947B068091FF
S11319D0D7069091D806FC0186819781892B71F0F6
S11319E08091D7069091D806FC0126813781809199
S11319F0D7069091D8066981F901099500000F90E6
S1131A00DF91CF91FF91EF91BF91AF919F918F9112
S1131A107F916F915F914F913F912F910F90009221
S1131A205F000F901F9018951F920F9200905F0017
S1131A300F9211242F933F934F935F936F937F9350
S1131A408F939F93AF93BF93EF93FF93CF93DF93C2
S1131A501F92CDB7DEB78091D7069091D806892B17
S1131A60F9F08091D7069091D806FC018281938188
S1131A709E012F5F3F4FB9010E943306882331F442
S1131A8086EC90E02981FC01208313C081EC90E076
S1131A9021EC30E0F90120812F7DFC01208309C075
S1131AA081EC90E021EC30E0F90120812F7DFC01F4
S1131AB0208300000F90DF91CF91FF91EF91BF91B0
S1131AC0AF919F918F917F916F915F914F913F91D2
S1131AD02F910F9000925F000F901F9018951F9206
S1131AE00F9200905F000F9211242F933F934F9316
S1131AF05F936F937F938F939F93AF93BF93EF9372
S1131B00FF93CF93DF931F92CDB7DEB78091D906B1
S1131B109091DA06892B31F18EEC90E0FC01808102
S1131B2089838091D9069091DA06FC01848195819C
S1131B3069810E947B068091D9069091DA06FC01A6
S1131B4086819781892B71F08091D9069091DA066C
S1131B50FC01268137818091D9069091DA0669814A
S1131B60F901099500000F90DF91CF91FF91EF915A
S1131B70BF91AF919F918F917F916F915F914F91A1
S1131B803F912F910F9000925F000F901F90189536
S1131B901F920F9200905F000F9211242F933F9396
S1131BA04F935F936F937F938F939F93AF93BF9361
S1131BB0EF93FF93CF93DF931F92CDB7DEB780915E
S1131BC0D9069091DA06892BF9F08091D906909183
S1131BD0DA06FC01828193819E012F5F3F4FB90198
S1131BE00E943306882331F48EEC90E02981FC01B5
S1131BF0208313C089EC90E029EC30E0F9012081C6
S1131C002F7DFC01208309C089EC90E029EC30E0B1
S1131C10F90120812F7DFC01208300000F90DF91CA
S1131C20CF91FF91EF91BF91AF919F918F917F9150
S1131C306F915F914F913F912F910F9000925F00B0
S1131C400F901F901895CF93DF9300D000D01F9270
S1131C50CDB7DEB79C838B836D838B819C819A8304
S1131C6089830FB6F8940F9289819A81FC0180814F
S1131C70918129813A81F901238D422F50E02981F4
S1131C803A81F901248D222F30E0429FB001439F15
S1131C90700D529F700D11249B01280F391F8981EB
S1131CA09A81FC013383228389819A81FC01128EFB
S1131CB089819A81FC012081318189819A81FC0189
S1131CC03583248389819A81FC01808191812981D2
S1131CD03A81F901238D222F30E0A90141505109A5
S1131CE029813A81F901248D222F30E0429FB001ED
S1131CF0439F700D529F700D11249B01280F391FB3
S1131D0089819A81FC013783268389819A812FEF07
S1131D10FC01258F89819A812FEFFC01268F8D810B
S1131D20882381F489819A81FC0180858823A1F02C
S1131D3089819A8108960E945F16882369F00E941F
S1131D40020A0AC089819A8108960E94BE06898186
S1131D509A8141960E94BE060F900FBE81E00F90BB
S1131D600F900F900F900F90DF91CF9108950F93E4
S1131D701F93CF93DF93CDB7DEB729970FB6F894AF
S1131D80DEBF0FBECDBF8F836887498788858823D0
S1131D9019F41A8219820FC08F81482F50E0888568
S1131DA0282F30E0429FC001439F900D529F900D19
S1131DB011249A83898389819A8181960E94200BB8
S1131DC09C838B838B819C81892B81F08B819C816B
S1131DD081969E838D832B813C818D819E81890197
S1131DE02985AC0168858F810E94030F8B819C81BA
S1131DF029960FB6F894DEBF0FBECDBFDF91CF9109
S1131E001F910F9108950F931F93CF93DF93CDB735
S1131E10DEB727970FB6F894DEBF0FBECDBF898318
S1131E206A835C834B832D831F830E838A8188237B
S1131E3041F48E819F812E813F81FC013183208377
S1131E4007C08E819F812B813C81FC0131832083DB
S1131E508E819F812981FC01238F8E819F812A811C
S1131E60FC01248F8E819F8161E00E94230E8E816C
S1131E709F812D81FC0120A3000027960FB6F894C2
S1131E80DEBF0FBECDBFDF91CF911F910F9108959B
S1131E90CF93DF9300D0CDB7DEB79A83898389814E
S1131EA09A81892BB9F089819A81FC01138212826B
S1131EB089819A81FC011182108289819A81FC01B5
S1131EC0168289819A8120E040E050E060E070E071
S1131ED00E94900F00000F900F90DF91CF91089512
S1131EE0CF93DF9300D000D01F92CDB7DEB78D83A0
S1131EF081E089831A824D816A8189810E94B70EAB
S1131F009C838B838B819C810E94480F8B819C8155
S1131F100F900F900F900F900F90DF91CF91089535
S1131F20CF93DF93CDB7DEB72E970FB6F894DEBF0D
S1131F300FBECDBF998788877B876A875D874C876B
S1131F402E871982888599859B838A830FB6F89496
S1131F500F928A819B81FC01228D8A819B81FC01E5
S1131F60838D281718F08E85823011F52A853B85DC
S1131F708A819B814E85B9010E94A0108C838A813D
S1131F809B81FC018189882351F08A819B81419640
S1131F900E945F16882341F00E94020A05C08C81CA
S1131FA0882311F00E94020A0F900FBE81E060C0E6
S1131FB08C859D85892B21F40F900FBE80E058C03D
S1131FC08981882331F4CE0105960E94CC1681E0E4
S1131FD089830F900FBE0E9425140FB6F8940F92B8
S1131FE08A819B81FC01858D8F3F21F48A819B81AD
S1131FF0FC01158E8A819B81FC01868D8F3F21F423
S11320008A819B81FC01168E0F900FBE9E01245F76
S11320103F4FCE010596B9010E94E816882309F5C1
S11320208A819B810E94CE118823A1F02C853D8555
S11320308A819B810896B9010E943C168A819B8102
S11320400E9470110E943214882309F07FCF0E94ED
S1132050020A7CCF8A819B810E9470110E943214F3
S113206075CF8A819B810E9470110E94321480E096
S11320702E960FB6F894DEBF0FBECDBFDF91CF9181
S11320800895CF93DF93CDB7DEB72C970FB6F894AE
S1132090DEBF0FBECDBF9F838E83798768875B8742
S11320A04A872C878E819F819B838A831C828A81A5
S11320B09B81FC01228D8A819B81FC01838D2817E1
S11320C018F08C85823089F58A819B81FC01868D8C
S11320D08D83288539858A819B814C85B9010E942D
S11320E0A0108D818F3FB9F48A819B81FC01818985
S11320F08823C1F08A819B8141960E945F168823C0
S113210089F08A859B85892B69F08A859B8521E0E6
S1132110FC01208307C08D818F5F282F8A819B81DA
S1132120FC01268F81E0898301C0198289812C9664
S11321300FB6F894DEBF0FBECDBFDF91CF910895E7
S1132140CF93DF93CDB7DEB727970FB6F894DEBFF2
S11321500FBECDBF9C838B837E836D834F83198297
S11321608B819C81FC01828D8A838B819C81FC0103
S1132170848D8823B1F48B819C81FC0180819181C1
S1132180892B09F09CC08B819C81FC018281938105
S11321900E94331889838B819C81FC0113821282F3
S11321A08EC08F818823D9F58B819C81FC01848D1D
S11321B0482F50E08B819C81FC01848195812D8185
S11321C03E81B9010E94F01D8B819C81FC01248118
S11321D035818B819C81FC01848D882F90E0280FB0
S11321E0391F8B819C81FC01358324838B819C81E5
S11321F0FC01248135818B819C81FC018281938146
S11322002817390708F45BC08B819C81FC0120816D
S113221031818B819C81FC013583248350C08B8167
S11322209C81FC01848D482F50E08B819C81FC01B2
S1132230868197812D813E81B9010E94F01D8B8199
S11322409C81FC01268137818B819C81FC01848DDA
S1132250882F90E0919581959109280F391F8B81E2
S11322609C81FC01378326838B819C81FC01268120
S113227037818B819C81FC018081918128173907EA
S1132280A8F48B819C81FC01228133818B819C8108
S1132290FC01848D882F90E0919581959109280FF8
S11322A0391F8B819C81FC01378326838F81823087
S11322B031F48A81882319F08A8181508A838A8142
S11322C021E0280F8B819C81FC01228F8981279634
S11322D00FB6F894DEBF0FBECDBFDF91CF91089546
S11322E0CF93DF9300D000D0CDB7DEB79C838B8330
S11322F00FB6F8940F928B819C81FC01868D8983A3
S113230012C08B819C81FC018189882381F08B819F
S11323109C8141960E945F16882311F00E945017F9
S1132320898181508983898118165CF301C000007A
S11323308B819C812FEFFC01268F0F900FBE0FB66F
S1132340F8940F928B819C81FC01858D8A8312C045
S11323508B819C81FC018085882381F08B819C8109
S113236008960E945F16882311F00E9450178A81F4
S113237081508A838A8118165CF301C000008B8126
S11323809C812FEFFC01258F0F900FBE00000F9052
S11323900F900F900F90DF91CF910895CF93DF931B
S11323A000D01F92CDB7DEB79B838A830FB6F89413
S11323B00F928A819B81FC01228D8A819B81FC0181
S11323C0838D281719F481E0898301C019820F9045
S11323D00FBE89810F900F900F90DF91CF910895D8
S11323E08F929F92AF92BF92CF92DF92EF92FF9221
S11323F00F931F93CF93DF93CDB7DEB760970FB6DC
S1132400F894DEBF0FBECDBF9F838E837987688724
S11324105B874A873D872C870E87F88AEF868A85F3
S11324209B850E94200B9D838C838C819D81892BAD
S1132430B9F08CE290E00E94200B9A838983898111
S11324409A81892B41F089819A812C813D81FC01FB
S1132450308F278B07C08C819D810E94750B02C031
S11324601A82198289819A81892B09F18A859B852F
S1132470CC01A0E0B0E009811A814F8558892C85F0
S11324803D8568857985EE81FF81812C912C5801E9
S11324906A01EE8489019C01AD01CF010E946D1295
S11324A089819A810E94491381E08B8302C08FEF56
S11324B08B838B8160960FB6F894DEBF0FBECDBFC1
S11324C0DF91CF911F910F91FF90EF90DF90CF900C
S11324D0BF90AF909F908F9008958F929F92AF92EC
S11324E0BF92CF92DF92EF920F931F93CF93DF931C
S11324F0CDB7DEB764970FB6F894DEBF0FBECDBF7D
S11325009D838C837F836E83288739874A875B8783
S11325101D870C87EE86D88ACF86BA8AA98A9C8AB8
S11325208B8A2885398589899A89FC018789908DC8
S1132530A90165EA70E00E94F91D89899A89FC0164
S11325402789308D888599850197820F931F9B83F6
S11325508A83198221C08981882F90E02981222FC2
S113256030E04E815F81240F351FF90140812989B4
S11325703A89820F931F4996FC0140838981882FF1
S113258090E02E813F81820F931FFC01808188237C
S113259039F089818F5F898389818830E0F201C0B5
S11325A0000089899A89FC0110A28E85843010F07C
S11325B083E08E8789899A892E85FC01268B8989F7
S11325C09A892E85FC0123A389899A89FC0114A286
S11325D089899A8902960E94F40689899A890C96B7
S11325E00E94F40689899A8929893A89FC013187EC
S11325F020878E85882F90E024E030E0281B390B5B
S113260089899A89FC013587248789899A89298946
S11326103A89FC01338B228B89899A89FC0116A2A1
S113262015A289899A89FC0117A210A611A612A6DF
S113263089899A89FC0113A64C855D852C813D818D
S11326408A819B81B9010E9424089C0189899A8905
S1132650FC01318320838F859889892B39F08F85FC
S1132660988929893A89FC01318320830000649682
S11326700FB6F894DEBF0FBECDBFDF91CF911F918F
S11326800F91EF90DF90CF90BF90AF909F908F907D
S11326900895CF93DF9300D0CDB7DEB79A838983B3
S11326A00FB6F8940F9280912A078F5F80932A07C0
S11326B08091DB069091DC06892B69F489819A81EB
S11326C09093DC068093DB0680912A078130C9F45D
S11326D00E946D1716C080912E07882391F4809173
S11326E0DB069091DC06FC01268989819A81FC0134
S11326F08689821730F089819A819093DC068093D1
S1132700DB06809132078F5F809332072091320776
S113271089819A81FC0121A389819A81FC0196898E
S113272080912D07891730F489819A81FC0186896B
S113273080932D0789819A81AC014E5F5F4F898117
S11327409A81FC018689282F30E0C901880F991FDE
S1132750880F991F880F991F820F931F8352994FD7
S1132760BA010E9406070F900FBE80912E0788239E
S113277071F08091DB069091DC06FC012689898149
S11327809A81FC018689281710F40E94020A00002D
S11327900F900F90DF91CF910895CF93DF9300D0E6
S11327A01F92CDB7DEB79B838A8319828A819B816E
S11327B0892B51F00E9425148A819B8160E00E943C
S11327C0B0180E94321489838981882311F40E94ED
S11327D0020A00000F900F900F90DF91CF9108959F
S11327E0EF92FF920F93CF93DF931F92CDB7DEB793
S11327F00F2EF5E3EF2EF7E0FF2EF02D00E020E0A2
S113280030E045E550E06AE471E08BE597E10E9431
S1132810F01189838981813081F4F8948FEF9FEFDF
S1132820909334078093330781E080932E071092AE
S11328302C0710922B070E94CD0900000F90DF9106
S1132840CF910F91FF90EF900895CF93DF93CDB781
S1132850DEB7809137078F5F809337070000DF91E1
S1132860CF910895CF93DF9300D000D0CDB7DEB7DA
S11328701A8219821B820FB6F8940F92809137073F
S113288081508093370780913707882309F077C0F8
S113289080912A07882309F472C049C080911C07DB
S11328A090911D07FC01868197819A838983898190
S11328B09A810C960E94CD0789819A8102960E9482
S11328C0CD0789819A81FC01968980912D0789170A
S11328D030F489819A81FC01868980932D0789814E
S11328E09A81AC014E5F5F4F89819A81FC01868990
S11328F0282F30E0C901880F991F880F991F880F6E
S1132900991F820F931F8352994FBA010E940607A1
S113291089819A81FC0126898091DB069091DC06ED
S1132920FC018689281718F081E080933007809194
S11329301707882309F0B2CF89819A81892B11F076
S11329400E94041880912F078C838C81882379F04E
S11329500E94C914882319F081E0809330078C8188
S113296081508C838C81882399F710922F07809152
S11329703007882321F081E08B830E94020A0F90A4
S11329800FBE8B810F900F900F900F90DF91CF911E
S11329900895CF93DF93CDB7DEB729970FB6F89498
S11329A0DEBF0FBECDBF198280913707882309F09F
S11329B0C8C080912B0790912C0701969B838A8332
S11329C08A819B8190932C0780932B078A819B811A
S11329D0892BD9F480911307909114079D838C83DC
S11329E0809115079091160790931407809313070D
S11329F08C819D81909316078093150780913107F0
S1132A008F5F809331070E9404188091330790915F
S1132A1034072A813B812817390708F478C080914C
S1132A20130790911407FC018081882339F48FEFF8
S1132A309FEF909334078093330769C08091130705
S1132A4090911407FC0185819681FC018681978110
S1132A509F838E838E819F81FC01828193819987DC
S1132A6088872A813B81888599852817390738F416
S1132A7088859985909334078093330748C08E8165
S1132A809F8102960E94CD078E819F81FC018489DB
S1132A909589892B29F08E819F810C960E94CD0700
S1132AA08E819F81FC01968980912D07891730F4CE
S1132AB08E819F81FC01868980932D078E819F8161
S1132AC0AC014E5F5F4F8E819F81FC018689282F68
S1132AD030E0C901880F991F880F991F880F991F2B
S1132AE0820F931F8352994FBA010E9406078E8169
S1132AF09F81FC0126898091DB069091DC06FC0114
S1132B008689281708F48BCF81E0898388CF809148
S1132B10DB069091DC06FC018689282F30E0C90190
S1132B20880F991F880F991F880F991F820F931F71
S1132B308352994FFC018081823040F081E0898387
S1132B4005C080912F078F5F80932F0780913007F6
S1132B50882311F081E08983898129960FB6F8943E
S1132B60DEBF0FBECDBFDF91CF910895CF93DF932A
S1132B7000D01F92CDB7DEB780913707882321F0AC
S1132B8081E08093300771C0109230078091DB069A
S1132B909091DC06FC0185A196A10E940606809115
S1132BA02D07898303C08981815089838981282FD6
S1132BB030E0C901880F991F880F991F880F991F4A
S1132BC0820F931F8352994FFC018081882359F30C
S1132BD08981282F30E0C901880F991F880F991F18
S1132BE0880F991F820F931F8352994F9B838A8367
S1132BF08A819B81FC0181819281FC012281338144
S1132C008A819B81FC01328321838A819B81FC011F
S1132C10218132818A819B8103962817390769F4BF
S1132C208A819B81FC0181819281FC012281338113
S1132C308A819B81FC01328321838A819B81FC01EF
S1132C4081819281FC01868197819093DC06809337
S1132C50DB06898180932D078091DB069091DC0649
S1132C60FC0185A196A10E94E10500000F900F9040
S1132C700F90DF91CF910895CF93DF9300D000D0D0
S1132C80CDB7DEB79A8389837C836B838091DB061F
S1132C909091DC069C01245F3F4F89819A81B901A0
S1132CA00E9455078B819C8161E00E94B01800004E
S1132CB00F900F900F900F90DF91CF910895CF93C5
S1132CC0DF9300D000D01F92CDB7DEB79D838C83F5
S1132CD08C819D81FC0185819681FC01868197818F
S1132CE09B838A838A819B810C960E94CD07809165
S1132CF03707882369F58A819B8102960E94CD0754
S1132D008A819B81FC01968980912D07891730F473
S1132D108A819B81FC01868980932D078A819B810E
S1132D20AC014E5F5F4F8A819B81FC018689282F0D
S1132D3030E0C901880F991F880F991F880F991FC8
S1132D40820F931F8352994FBA010E94060708C04D
S1132D508A819B810C96BC0187E197E00E9406075B
S1132D608A819B81FC0126898091DB069091DC0697
S1132D70FC018689821730F481E0898381E08093A5
S1132D80300701C0198289810F900F900F900F9026
S1132D900F90DF91CF910895CF93DF9300D0CDB7FB
S1132DA0DEB79A8389832091310789819A81FC0156
S1132DB0208320912B0730912C0789819A81FC0173
S1132DC03283218300000F900F90DF91CF910895FB
S1132DD0CF93DF93CDB7DEB727970FB6F894DEBF56
S1132DE00FBECDBF9D838C837F836E830FB6F89413
S1132DF00F9280912B0790912C079B838A838C815F
S1132E009D81FC01908180913107981769F08C8134
S1132E109D81FC01218132818A819B8182179307E4
S1132E2018F081E0898330C08C819D81FC0181810F
S1132E3092812A813B81281B390B8E819F81FC0161
S1132E408081918128173907E8F48E819F81FC01E4
S1132E50208131818C819D81FC01418152818A8153
S1132E609B81BA01681B790BCB01280F391F8E8116
S1132E709F81FC01318320838C819D810E94CC162B
S1132E80198202C081E089830F900FBE8981279641
S1132E900FB6F894DEBF0FBECDBFDF91CF9108957A
S1132EA0CF93DF93CDB7DEB781E080933007000086
S1132EB0DF91CF910895CF93DF9300D0CDB7DEB7E4
S1132EC09A8389830E94AB178091DD06823010F0CB
S1132ED00E94020A0E944A04F5CFCF93DF931F9207
S1132EE0CDB7DEB7198213C08981282F30E0C9011C
S1132EF0880F991F880F991F880F991F820F931F9E
S1132F008352994F0E94BE0689818F5F898389818C
S1132F10843050F381E097E00E94BE068AE097E097
S1132F200E94BE0687E197E00E94BE0680E297E019
S1132F300E94BE0681E097E09093140780931307E4
S1132F408AE097E0909316078093150700000F908E
S1132F50DF91CF910895CF93DF9300D01F92CDB727
S1132F60DEB72FC00E9425149091200781E0992399
S1132F7009F080E089830E9432148981882309F54D
S1132F800FB6F8940F928091250790912607FC01C3
S1132F90868197819B838A838A819B8102960E9482
S1132FA0CD0780912A07815080932A0780912907B1
S1132FB08150809329070F900FBE8A819B810E94C4
S1132FC0EC1780912907882369F600000F900F9071
S1132FD00F90DF91CF910895CF93DF9300D0CDB7B9
S1132FE0DEB79A83898389819A81FC018789908DD0
S1132FF00E94750B89819A810E94750B00000F90C5
S11330000F90DF91CF910895CF93DF9300D0CDB788
S1133010DEB78091130790911407FC018081882307
S113302039F48FEF9FEF909334078093330715C0E3
S11330308091130790911407FC0185819681FC010E
S1133040868197819A83898389819A81FC0182810F
S11330509381909334078093330700000F900F906F
S1133060DF91CF910895CF93DF9300D000D01F92CA
S1133070CDB7DEB79D838C838C819D819B838A83AE
S113308019828C819D81892B09F461C08A819B817D
S1133090FC0184A12FEF280F8A819B81FC0124A3CA
S11330A08A819B81FC0126898A819B81FC0183A101
S11330B0281709F44CC08A819B81FC0184A18823D0
S11330C009F045C08A819B8102960E94CD078A81BE
S11330D09B81FC0123A18A819B81FC01268B8A812F
S11330E09B81FC018689882F90E024E030E0281B36
S11330F0390B8A819B81FC01358724878A819B81D6
S1133100FC01968980912D07891730F48A819B816F
S1133110FC01868980932D078A819B81AC014E5FD7
S11331205F4F8A819B81FC018689282F30E0C90189
S1133130880F991F880F991F880F991F820F931F5B
S11331408352994FBA010E94060781E089838981DD
S11331500F900F900F900F900F90DF91CF910895E3
S1133160CF93DF93CDB7DEB727970FB6F894DEBFC2
S11331700FBECDBF9E838D836F8380912B0790916B
S11331802C079A8389838091DB069091DC06029652
S11331900E94CD0729813A818D819E81820F931FE0
S11331A09C838B838091DB069091DC062B813C8190
S11331B0FC01338322832B813C8189819A812817E6
S11331C0390778F48091DB069091DC069C012E5F30
S11331D03F4F8091150790911607B9010E9455073A
S11331E01DC08091DB069091DC069C012E5F3F4F51
S11331F08091130790911407B9010E94550780919B
S11332003307909134072B813C812817390730F418
S11332108B819C8190933407809333070000279619
S11332200FB6F894DEBF0FBECDBFDF91CF910895E6
S11332305058BB27AA270E9430190C940F1A0E94D9
S1133240011A38F00E94081A20F039F49F3F19F44B
S113325026F40C94FE190EF4E095E7FB0C94F8198F
S1133260E92F0E94201A58F3BA17620773078407DC
S1133270950720F079F4A6F50C94421A0EF4E09523
S11332800B2EBA2FA02D0B01B90190010C01CA011C
S1133290A0011124FF27591B99F0593F50F4503EC7
S11332A068F11A16F040A22F232F342F4427585FB9
S11332B0F3CF469537952795A795F0405395C9F7D1
S11332C07EF41F16BA0B620B730B840BBAF0915089
S11332D0A1F0FF0FBB1F661F771F881FC2F70EC028
S11332E0BA0F621F731F841F48F4879577956795FB
S11332F0B795F7959E3F08F0B0CF9395880F08F0E7
S11333009927EE0F9795879508950E948C196894D4
S1133310B1110C94431A08950E94281A88F09F57FB
S113332098F0B92F9927B751B0F0E1F0660F771FE5
S1133330881F991F1AF0BA95C9F714C0B13091F0DB
S11333400E94421AB1E008950C94421A672F782F14
S11333508827B85F39F0B93FCCF3869577956795A0
S1133360B395D9F73EF490958095709561957F4F0C
S11333708F4F9F4F0895E89409C097FB3EF49095B2
S11333808095709561957F4F8F4F9F4F9923A9F03A
S1133390F92F96E9BB279395F695879577956795C9
S11333A0B795F111F8CFFAF4BB0F11F460FF1BC00D
S11333B06F5F7F4F8F4F9F4F16C0882311F096E9A0
S11333C011C0772321F09EE8872F762F05C066234E
S11333D071F096E8862F70E060E02AF09A95660F07
S11333E0771F881FDAF7880F9695879597F90895C0
S11333F097F99F6780E870E060E008959FEF80ECA4
S1133400089500240A941616170618060906089546
S113341000240A9412161306140605060895092EAC
S11334200394000C11F4882352F0BB0F40F4BF2B1B
S113343011F460FF04C06F5F7F4F8F4F9F4F08955B
S113344057FD9058440F551F59F05F3F71F0479551
S1133450880F97FB991F61F09F3F79F08795089536
S1133460121613061406551FF2CF4695F1DF08C055
S1133470161617061806991FF1CF86957105610572
S113348008940895E894BB2766277727CB0197F91A
S11334900895FA01EE0FFF1F309621053105A1F1C1
S11334A06115710561F48038BFE39B0749F16894A5
S11334B09038810561F08038BFEF9B0741F0992374
S11334C04AF5FF3FE1053105210519F1E894089417
S11334D0E795D901AA2329F4AB2FBE2FF85FD0F3C7
S11334E010C0FF5F70F4A695E0F7F73950F019F0BB
S11334F0FF3A38F49F779F930DD00F9007FC9058B4
S1133500089546F00C94FE1960E070E080E89FE3B3
S113351008954FE79F775F934F933F932F930E94B4
S1133520441B2F913F914F915F910E94C01B0C94BB
S1133530A11A29F416F00C94F8190C94421A0C945C
S1133540FE190E94281AA8F39638A0F707F80F92DC
S1133550E8942BE33AEA48EB5FE70E94D61B0F920C
S11335600F920F924DB75EB70F920E948C1BECE73F
S1133570F0E00E94D31A4F915F91EF91FF91E5958E
S1133580EE1FFF1F49F0FE57E0684427EE0F441F6B
S1133590FA95E1F74195550B0E94061B0F9007FE23
S11335A00C94FA1A0895DF93CF931F930F93FF920D
S11335B0EF92DF927B018C01689406C0DA2EEF0152
S11335C00E94D31BFE01E894A59125913591459164
S11335D05591A6F3EF010E943019FE019701A8014D
S11335E0DA9469F7DF90EF90FF900F911F91CF91DC
S11335F0DF9108959B01AC0160E070E080E89FE3F7
S11336000C942D1C0C94F8190C949F1C0E94281ADD
S1133610D8F39923C9F3940F511DA3F3915050404B
S113362094F059F0882332F0660F771F881F915069
S11336305040C1F79E3F51052CF7880F911D969578
S1133640879597F908955F3FACF0983E9CF0BB27AF
S1133650869577956795B79508F4B1609395C1F70A
S1133660BB0F58F711F460FFE8CF6F5F7F4F8F4FA8
S11336709F4FE3CF0C94431A16F00C949F1C0C94A8
S1133680FE1968940C94F8190E94281AA8F3992337
S1133690C1F3AEF3DF93CF931F930F93FF92C92F20
S11336A0DD2788232AF02197660F771F881FDAF712
S11336B020E030E040E85FEB9FE3883920F0803E73
S11336C038F021968F770E941919E4EAF0E004C0DB
S11336D00E941919E1EDF0E00E94D31A8B01BE019A
S11336E0EC01FB2E6F5771097595771F880B990BA9
S11336F00E94BD1928E132E741E35FE30E94D31B36
S1133700AF2D9801AE01FF900F911F91CF91DF91E2
S11337100E9430190C940F1AFA01DC01AA0FBB1F86
S11337209B01AC01BF5728F4222733274427507844
S113373020C0B75190F4AB2F0024469537952795B8
S1133740011CA395D2F3002071F0220F331F441FF4
S1133750B395DAF30ED00C94181961307105A0E812
S11337608A07B94630F49B01AC016627772788277E
S11337709078309621F020833183428353830895D7
S11337800E94D31B0C940F1A0E94011A38F00E9455
S1133790081A20F0952311F00C94F8190C94FE19D2
S11337A011240C94431A0E94201A70F3959FC1F3BC
S11337B0950F50E0551F629FF001729FBB27F00DDB
S11337C0B11D639FAA27F00DB11DAA1F649F662730
S11337D0B00DA11D661F829F2227B00DA11D621F7F
S11337E0739FB00DA11D621F839FA00D611D221F39
S11337F0749F3327A00D611D231F849F600D211D1D
S1133800822F762F6A2F11249F5750409AF0F1F09F
S113381088234AF0EE0FFF1FBB1F661F771F881F08
S113382091505040A9F79E3F510580F00C94F8192F
S11338300C94431A5F3FE4F3983ED4F3869577954E
S11338406795B795F795E7959F5FC1F7FE2B880FAE
S1133850911D9695879597F908950E94411C0C94A3
S11338600F1A0E94081A58F00E94011A40F029F415
S11338705F3F29F00C94F81951110C94431A0C94DD
S1133880FE190E94201A68F39923B1F3552391F38A
S1133890951B550BBB27AA2762177307840738F0BB
S11338A09F5F5F4F220F331F441FAA1FA9F335D018
S11338B00E2E3AF0E0E832D091505040E695001CCC
S11338C0CAF72BD0FE2F29D0660F771F881FBB1F86
S11338D0261737074807AB07B0E809F0BB0B802D64
S11338E0BF01FF2793585F4F3AF09E3F510578F090
S11338F00C94F8190C94431A5F3FE4F3983ED4F304
S1133900869577956795B795F7959F5FC9F7880F63
S1133910911D9695879597F90895E1E0660F771FB5
S1133920881FBB1F621773078407BA0720F0621B46
S1133930730B840BBA0BEE1F88F7E09508959F3F35
S113394031F0915020F4879577956795B795880F56
S1133950911D9695879597F90895A1E21A2EAA1BB1
S1133960BB1BFD010DC0AA1FBB1FEE1FFF1FA2172B
S1133970B307E407F50720F0A21BB30BE40BF50B28
S1133980661F771F881F991F1A9469F760957095B1
S1133990809590959B01AC01BD01CF0108950F93D3
S11339A01F93CF93DF938230910510F482E090E06F
S11339B0E0913A07F0913B0720E030E0A0E0B0E06E
S11339C0309719F1408151810281138148175907B9
S11339D0C8F08417950769F4109731F012960C9388
S11339E0129713961C9327C000933A0710933B0732
S11339F022C02115310519F04217530718F49A0112
S1133A00BD01EF01DF01F801DBCF21153105F9F02C
S1133A10281B390B2430310580F48A819B81611580
S1133A20710521F0FB019383828304C090933B07CB
S1133A3080933A07FE01329644C0FE01E20FF31F61
S1133A408193919322503109398328833AC020917C
S1133A50380730913907232B41F42091020130912A
S1133A6003013093390720933807209100013091E6
S1133A7001012115310541F42DB73EB740910401F0
S1133A8050910501241B350BE0913807F09139075B
S1133A90E217F307A0F42E1B3F0B2817390778F021
S1133AA0AC014E5F5F4F2417350748F04E0F5F1F80
S1133AB050933907409338078193919302C0E0E013
S1133AC0F0E0CF01DF91CF911F910F910895CF9333
S1133AD0DF93009709F481C0FC01329713821282AC
S1133AE0A0913A07B0913B07109781F4208131816E
S1133AF0820F931F2091380730913907281739070F
S1133B0051F5F0933907E093380767C0ED0120E0E1
S1133B1030E0CE17DF0740F44A815B819E014115F6
S1133B205105F1F0EA01F5CFD383C283408151817D
S1133B30840F951FC817D90759F488819981840F78
S1133B40951F0296918380838A819B8193838283CC
S1133B502115310529F4F0933B07E0933A073DC062
S1133B60E901FB83EA8349915991C40FD51FEC17EE
S1133B70FD0761F480819181840F951F0296E9010C
S1133B8099838883828193819B838A83E0E0F0E038
S1133B9012968D919C911397009719F0FD01DC0109
S1133BA0F7CF8D919C9111979D012E5F3F4F820F0E
S1133BB0931F20913807309139072817390769F482
S1133BC0309729F410923B0710923A0702C01382EF
S1133BD01282B0933907A0933807DF91CF910895EB
S1133BE0FB01DC0102C001900D9241505040D8F716
S1133BF00895DC0101C06D9341505040E0F70895F1
S1073C00F894FFCF62
S1133C0400003C072000C600CE0047414D45204F2C
S1133C145645520A0044454144210A006D6F7665B5
S1133C240052656164206A6F79737469636B004739
S1133C34616D652070726F63657373696E67004D9F
S1133C44616B65206672616D650049444C450000F2
S9030000FC
