:100000000C943E000C945B000C945B000C945B0021
:100010000C945B000C945B000C945B000C945B00F4
:100020000C945B000C945B000C945B000C945B00E4
:100030000C945B000C94B8030C945B000C945B0074
:100040000C9405010C945B000C945B000C945B0019
:100050000C94AE040C94EC040C945B000C945B00C8
:100060000C945B000C945B000C945B000C945B00A4
:100070000C9434050C9472050C945B0011241FBE83
:10008000CFEFD8E0DEBFCDBF11E0A0E0B1E0E2EB02
:10009000F7E102C005900D92A035B107D9F725E030
:1000A000A0E5B1E001C01D92AE3EB207E1F70E94AB
:1000B000BC000C94D70B0C940000379B06C064E086
:1000C0008AE091E00E942E0117C0369B06C066E0D0
:1000D0008EE091E00E942E010FC0309B06C066E0CA
:1000E00084E191E00E942E0107C0319B05C067E0CA
:1000F0008AE191E00E942E0184EF91E00E9435098F
:10010000DCCF5A9A08955D9A5D985C9A5C985A98EB
:100110000895809582B985B1836085B985B1937062
:100120009095892385B90895CF93C0915001C1114D
:100130000CC00E94810080E090E00E9489000E9433
:10014000830081E08093500114C0EC2FF0E0EE0FAB
:10015000FF1FE15DFE4F808191810E9489000E9416
:100160008300CE3020F4CF5FC093500102C01092C4
:100170005001CF91089508950E9437015E98E12CB7
:10018000F12C00E020E030E045E550E061E271E074
:100190008DE590E00E94B60684E990E00E94F300AD
:1001A00078940E94CB07FFCFCF93DF9300D0CDB7D9
:1001B000DEB76A838091990190919A01009771F05E
:1001C000198220E0AE014F5F5F4FBE016E5F7F4F2F
:1001D0000E941906898181110E9403030F900F90DC
:1001E000DF91CF91089590939801809397018AE0D1
:1001F00087BD84B5826084BDEEE6F0E080818260D8
:10020000808385B5856085BD08951F920F920FB6D6
:100210000F9211242F933F934F935F936F937F938C
:100220008F939F93AF93BF93EF93FF93E0919701C9
:10023000F0919801309709F00995FF91EF91BF91E6
:10024000AF919F918F917F916F915F914F913F916E
:100250002F910F900FBE0F901F901895462FBC0145
:1002600080919B0190919C010E946B0408958F9254
:100270009F92AF92BF92CF92DF92EF920F9384E75B
:1002800091E00E94900181E591E00E9490010F2E83
:10029000F4ED8F2EF0E09F2EF02D0F2EF1E5AF2E16
:1002A000F1E0BF2EF02D0F2EF4E7CF2EF1E0DF2E80
:1002B000F02DE12C00E023E040E052EC61E070E042
:1002C00080E00E94F10390939C0180939B0188B190
:1002D000836C88B95B9A8AB184678AB95E9A81B166
:1002E0008FEF81B984B1836084B984B18C6384B9A0
:1002F0000F91EF90DF90CF90BF90AF909F908F9035
:10030000089595B1937C95B925B134E0839FC001E0
:100310001124822B85B9089585B1837C85B9089510
:10032000FC0110A211A212A20895FC0182A188234F
:10033000D9F081A1DF01A80FB11D8C91DB018C9355
:1003400021A130E02F5F3F4F2F713078332334F4F9
:1003500021503109206E3F6F2F5F3F4F21A382A1B3
:10036000815082A380E0089581E00895FC0142A1BC
:100370004032B8F420A130E0E20FF31F60832F5F1A
:100380003F4F2F713078332334F421503109206EE0
:100390003F6F2F5F3F4FFC0120A34F5F42A380E0E0
:1003A000089582E00895FC010396928381832FEFE4
:1003B0003FEF3483238396838583908787831082DE
:1003C0000895FC01118610860895CF93DF939C0158
:1003D000FB01DC011196CD91DC911297D383C2838E
:1003E0008C819D81958384838C819D81DC01139612
:1003F0007C936E9312977D836C8331872087F901FC
:1004000080818F5F8083DF91CF910895CF93DF93B9
:10041000EB01488159814F3F2FEF520721F4FC0136
:10042000A781B0850DC0DC01139601C0DF011296D3
:10043000ED91FC9113972081318142175307B0F75A
:100440001296ED91FC911397FB83EA83D583C483C5
:10045000BD83AC831396DC93CE93129799878887DC
:10046000FC0120812F5F2083DF91CF910895CF93EE
:10047000DF93FC01A085B185C281D3818481958100
:100480009D838C83C481D581828193819B838A8360
:1004900011968D919C911297E817F90731F4848198
:1004A000958112969C938E931197118610868C914C
:1004B00081508C93DF91CF91089531E1FC0130831D
:1004C000319722E220833197A3E3A08331976083A1
:1004D0003197708331971082319760E8608331974C
:1004E0001082319762E06083319763E060833197D7
:1004F00064E06083319765E06083319766E06083F4
:10050000319767E06083319768E06083319769E0F5
:100510006083319760E1608331973083319732E1B6
:100520003083319733E13083319734E13083319731
:1005300035E13083319736E13083319737E13083CD
:10054000319738E13083319739E13083319730E2A8
:100550003083319731E2308331972083319723E222
:1005600020833197408331975083319726E220834F
:10057000319727E22083319728E22083319729E2BF
:100580002083319720E32083319721E320838697CE
:1005900008951092890085EE809388008BE0809307
:1005A0008100EFE6F0E0808182608083A091E80521
:1005B000B091E905CD91CDBFDD91DEBFFF91EF9107
:1005C000DF91CF91BF91AF919F918F917F916F916B
:1005D0005F914F913F912F911F910F91FF90EF905D
:1005E000DF90CF90BF90AF909F908F907F906F9053
:1005F0005F904F903F902F901F900F900FBE0F90E5
:10060000089581E008950F920FB6F8940F921F920B
:1006100011242F923F924F925F926F927F928F920E
:100620009F92AF92BF92CF92DF92EF92FF920F9381
:100630001F932F933F934F935F936F937F938F936A
:100640009F93AF93BF93CF93DF93EF93FF93A091CB
:10065000E805B091E9050DB60D920EB60D920E9417
:100660008809A091E805B091E905CD91CDBFDD9154
:10067000DEBFFF91EF91DF91CF91BF91AF919F913D
:100680008F917F916F915F914F913F912F911F912A
:100690000F91FF90EF90DF90CF90BF90AF909F9021
:1006A0008F907F906F905F904F903F902F901F9012
:1006B0000F900FBE0F9008950F920FB6F8940F92FF
:1006C0001F9211242F923F924F925F926F927F92CE
:1006D0008F929F92AF92BF92CF92DF92EF92FF9252
:1006E0000F931F932F933F934F935F936F937F933A
:1006F0008F939F93AF93BF93CF93DF93EF93FF932A
:10070000A091E805B091E9050DB60D920EB60D92D7
:100710000E94FB0781110E948809A091E805B09111
:10072000E905CD91CDBFDD91DEBFFF91EF91DF9166
:10073000CF91BF91AF919F918F917F916F915F9179
:100740004F913F912F911F910F91FF90EF90DF906C
:10075000CF90BF90AF909F908F907F906F905F9061
:100760004F903F902F901F900F900FBE0F900895C5
:100770000E945C031895CF93DF93EC010E94F5076C
:1007800080919D0190919E01892B31F482EA91E044
:1007900090939E0180939D0120919F013091A00133
:1007A000C9018C0F9D1F873E43E0940770F4281702
:1007B000390770F4C0919D01D0919E01C20FD31FE3
:1007C0009093A00180939F0105C0C0E0D0E002C0DB
:1007D000C0E0D0E00E94B608CE01DF91CF9108952D
:1007E00008954F925F926F927F928F929F92AF92F5
:1007F000BF92CF92DF92FF920F931F93CF93DF931D
:10080000CDB7DEB7F82E2A013B0188E090E00E94C8
:10081000A60A8C018F2D90E0880F991FFC01E757E5
:10082000FA4F11830083FC01EA5FFE4F80819181C2
:10083000D80111969C938E931396BC92AE92129708
:100840001596DC92CE92149717969C928E921697DC
:10085000FFB6F894ED91FC911197369780818260F4
:100860008083CD90DC90D301C201880F991FAA1F0D
:10087000BB1F880F991FAA1FBB1F9C01AD01220F30
:10088000331F441F551F60E070E081EE90E00E942E
:10089000840A2150F60132972083D801ED91FC9112
:1008A0001197359788E98083ED91FC91349786E024
:1008B0008083FFBEC801DF91CF911F910F91FF9000
:1008C000DF90CF90BF90AF909F908F907F906F9070
:1008D0005F904F900895EF92FF920F931F93CF93E5
:1008E000DF93FC01A281B381109779F0E42FF0E04F
:1008F00092965C9120E230E0251B31092E173F07CC
:100900001CF17C01411104C016C04230F8F4F9CF4B
:10091000EB014150042F10E00F5F1F4F060F171F10
:100920006991D70112968D919C9113970E94B601FF
:10093000C017D107A9F7D701ED91FC9135978081B8
:100940008062808380E003C082E001C082E0DF91AA
:10095000CF911F910F91FF90EF9008951F920F92EA
:100960000FB60F9211242F933F934F935F936F9382
:100970007F938F939F93AF93BF93CF93EF93FF9307
:10098000E0918905F0918A053097A1F0C091C600E9
:100990006C2F848195810E94B60180918905909188
:1009A0008A05DC011696ED91FC911797309711F0AE
:1009B0006C2F0995FF91EF91CF91BF91AF919F91CE
:1009C0008F917F916F915F914F913F912F910F90F8
:1009D0000FBE0F901F9018951F920F920FB60F9297
:1009E00011242F933F934F935F936F937F938F9334
:1009F0009F93AF93BF93EF93FF93CF93DF931F9298
:100A0000CDB7DEB7E0918905F0918A05309799F06E
:100A1000BE016F5F7F4F828193810E94950181119A
:100A200004C089818093C6000BC0E1ECF0E08081B6
:100A30008F7D808305C0E1ECF0E080818F7D808335
:100A40000F90DF91CF91FF91EF91BF91AF919F9167
:100A50008F917F916F915F914F913F912F910F9067
:100A60000FBE0F901F9018951F920F920FB60F9206
:100A700011242F933F934F935F936F937F938F93A3
:100A80009F93AF93BF93CF93EF93FF93E0918B0529
:100A9000F0918C053097A1F0C091CE006C2F84812D
:100AA00095810E94B60180918B0590918C05DC01A7
:100AB0001696ED91FC911797309711F06C2F0995D0
:100AC000FF91EF91CF91BF91AF919F918F917F91C6
:100AD0006F915F914F913F912F910F900FBE0F90AB
:100AE0001F9018951F920F920FB60F9211242F93FB
:100AF0003F934F935F936F937F938F939F93AF93A6
:100B0000BF93EF93FF93CF93DF931F92CDB7DEB7E1
:100B1000E0918B05F0918C05309799F0BE016F5FE5
:100B20007F4F828193810E949501811104C0898148
:100B30008093CE000BC0E9ECF0E080818F7D808354
:100B400005C0E9ECF0E080818F7D80830F90DF911C
:100B5000CF91FF91EF91BF91AF919F918F917F9135
:100B60006F915F914F913F912F910F900FBE0F901A
:100B70001F9018950F931F93CF93DF93EC01042FD1
:100B80001A8D4C8D41110CC088819981892B09F0F7
:100B900042C08A819B810E94440A1B821A8242C001
:100BA000011117C050E08C819D810E94C70B2C8DD4
:100BB0008C819D81820F911D9D838C832A813B8135
:100BC0008217930750F1888199819D838C8380E0FF
:100BD00029C050E08E819F810E94C70B8C8D90E0D0
:100BE0009195819591092E813F81280F391F3F836F
:100BF0002E83488159812417350730F42A813B819F
:100C0000820F931F9F838E83023049F4112349F092
:100C1000115080E007C080E005C080E003C080E0A4
:100C200001C080E01F5F1A8FDF91CF911F910F915C
:100C30000895EF92FF920F931F93CF93DF938A0152
:100C4000FC01528D338D531710F02230F1F4422FF6
:100C50007801EC011E8D0E94BA051F3F81F489893D
:100C60008823A9F0CE0141960E94FC09882389F0CF
:100C7000E114F10481F081E0F70180830DC0FF24CD
:100C8000F394F10EFE8E81E007C080E005C081E0A4
:100C900003C081E001C081E0DF91CF911F910F91EE
:100CA000FF90EF900895E091B005F091B10580813B
:100CB000811107C08FEF9FEF90939105809390056E
:100CC0000895E091B005F091B1050580F681E02D21
:100CD0000680F781E02D8281938190939105809326
:100CE000900508950F931F93CF93DF93EC0100912C
:100CF0009805109199058091E8059091E905029673
:100D00000E943702C00FD11FE091E805F091E9057C
:100D1000D383C283C017D10768F46091E80570914E
:100D2000E9058091AE059091AF056E5F7F4F0E94FF
:100D3000060217C06091E8057091E9058091B00541
:100D40009091B1056E5F7F4F0E94060280919005E1
:100D500090919105C817D90720F4D0939105C093BD
:100D60009005DF91CF911F910F9108954F925F925F
:100D70006F927F928F929F92AF92BF92CF92DF92AB
:100D8000EF92FF920F93CF93DF934C016B015A01C7
:100D90002901CA010E94BB033C01892B09F4EAC066
:100DA0008CE290E00E94BB03EC01892BB1F0788EBD
:100DB0006F8AA50165EA70E0C3010E94D00B81E053
:100DC000A81AB1088F89988DA80EB91ED6018C91EA
:100DD000898F8C91811105C018C0C3010E94F00356
:100DE000C9C0AE01465E5F4FF6013196B8E0CB0E4A
:100DF000D11CCF012191DA012D93AD01DC018C9141
:100E0000882319F0EC15FD05A1F718A2043008F0AD
:100E100003E00E8B0BA31CA26E01B2E0CB0ED11C23
:100E2000C6010E94E101CE010C960E94E101D98722
:100E3000C88784E090E0801B91099D878C87DB8BBD
:100E4000CA8B1EA21DA21FA218A619A61AA61BA60F
:100E5000A201B401C5010E945D0299838883E11457
:100E6000F10419F0F701D183C0830FB6F8940F9203
:100E700080919A058F5F80939A058091E805909103
:100E8000E905892BA9F5D093E905C093E805809180
:100E90009A058130E9F584EC95E00E94D3018DEC50
:100EA00095E00E94D30186ED95E00E94D3018FED7D
:100EB00095E00E94D3018BEB95E00E94D30182EB79
:100EC00095E00E94D30185EA95E00E94D3018CE968
:100ED00095E00E94D3018BEB95E09093B105809350
:100EE000B00582EB95E09093AF058093AE0510C0FE
:100EF0008091960581110CC0E091E805F091E9051B
:100F000096898E89891720F0D093E905C093E8056A
:100F1000809192058F5F8093920589A38E8990912D
:100F20009705981710F48093970590E09C01220F85
:100F3000331F220F331F220F331F820F931FB6015F
:100F40008C539A4F0E94E5010F900FBE8091960539
:100F5000882361F0E091E805F091E90596898E8992
:100F6000981730F40E94030381E005C081E003C0BC
:100F700081E001C08FEFDF91CF910F91FF90EF9053
:100F8000DF90CF90BF90AF909F908F907F906F90A9
:100F90005F904F900895EF92FF920F930F2EFEE80F
:100FA000EF2EF5E0FF2EF02D00E020E030E045E5EB
:100FB00050E06BE471E089E499E00E94B60681306C
:100FC00081F4F8948FEF9FEF9093910580939005B3
:100FD00081E08093960510929905109298050E94E1
:100FE000C9020F91FF90EF90089580918D058F5F5A
:100FF00080938D050895CF92DF92EF92FF920F9329
:101000001F93CF93DF9380918D05811199C0E0905C
:101010009805F09099058FEFE81AF80AF092990573
:10102000E0929805E114F104B9F48091B005909133
:10103000B1052091AE053091AF053093B1052093F5
:10104000B0059093AF058093AE05809193058F5FB7
:10105000809393050E94530680919005909191058D
:10106000E816F90610F4D12C53C0D12CCC24C3942B
:10107000E091B005F091B1058081811107C08FEF3B
:101080009FEF909391058093900542C0E091B00549
:10109000F091B1050580F681E02DC681D7818A8166
:1010A0009B81E816F90628F49093910580939005AA
:1010B0002FC08E010E5F1F4FC8010E9437028C891E
:1010C0009D89892B21F0CE010C960E9437028E89D2
:1010D00090919705981710F48093970590E09C01E4
:1010E000220F331F220F331F220F331F820F931F34
:1010F000B8018C539A4F0E94E501E091E805F09108
:10110000E9059E898689981708F4B2CFDC2CB0CF08
:10111000E091E805F091E905868990E0FC01EE0F89
:10112000FF1FEE0FFF1FEE0FFF1F8E0F9F1FFC0113
:10113000EC53FA4F8081823048F0DD24D39406C00E
:10114000809195058F5F80939505D12C80919405B2
:10115000882311F0DD24D3948D2DDF91CF911F9141
:101160000F91FF90EF90DF90CF900895DF92EF9274
:10117000FF920F931F93CF93DF930FB6F8940F92C4
:1011800080918D05815080938D0580918D05811111
:101190005FC080919A05811133C05DC0D70115965B
:1011A000ED91FC911697C681D781CE010C960E94D5
:1011B00037028E010E5F1F4FC8010E9437028E89D1
:1011C00090919705981710F48093970590E09C01F3
:1011D000220F331F220F331F220F331F820F931F43
:1011E000B8018C539A4F0E94E501E091E805F09117
:1011F000E9059E898689981768F0D09294050AC0FF
:10120000C0E0D0E00F2EF5EAEF2EF5E0FF2EF02D36
:10121000DD24D394F70180818111C0CFCD2B11F053
:101220000E945306C0919505CC2351F0D1E00E9455
:10123000FB078111D0939405C150C9F71092950511
:1012400080919405882331F00E94030381E003C05C
:1012500080E001C080E00F900FBEDF91CF911F9121
:101260000F91FF90EF90DF900895CF93DF93EC0103
:10127000892B51F00E94F50760E0CE010E947206B2
:101280000E94B608811102C00E940303DF91CF9132
:1012900008950CE915E00F2EF4ECEF2EF5E0FF2E8B
:1012A000F02D29C00E94F507D801CC910E94B60804
:1012B000CC2309F10FB6F8940F92D8011596ED9151
:1012C000FC911697C681D781CE0102960E94370203
:1012D00080919A05815080939A0580919B05815059
:1012E00080939B050F900FBE8F89988D0E94F0030D
:1012F000CE010E94F00380919B058111D3CFF701AD
:101300008081823010F00E9403030E94BB00F3CF63
:1013100080918D05882321F081E0809394050895C4
:1013200010929405E091E805F091E90585A10E94ED
:101330008C0120919705822F90E0FC01EE0FFF1F9A
:10134000EE0FFF1FEE0FFF1FE80FF91FEC53FA4FD0
:101350003081311111C02150822F90E0FC01EE0F3D
:10136000FF1FEE0FFF1FEE0FFF1FE80FF91FEC53DB
:10137000FA4F3081332379F3AC01440F551F440FEA
:10138000551F440F551F480F591FDA01AC53BA4F70
:101390001196ED91FC9112970280F381E02D129647
:1013A000FC93EE93119749535A4FE417F50729F42C
:1013B00042815381FD0152834183FC01EE0FFF1FE7
:1013C000EE0FFF1FEE0FFF1F8E0F9F1FFC01EC5350
:1013D000FA4F0180F281E02D868197819093E90593
:1013E0008093E80520939705E091E805F091E905E1
:1013F00085A10E94810108950F931F93CF93DF93DE
:10140000DC011596ED91FC911697C681D7818E016E
:10141000045F1F4FC8010E94370280918D05811122
:101420001CC00A501109C8010E9437028E89909190
:101430009705981710F48093970590E09C01220F70
:10144000331F220F331F220F331F820F931FB80148
:101450008C539A4F0E94E50105C0B80185EA95E0DA
:101460000E94E501E091E805F091E9059E898689F1
:10147000891720F481E08093940501C080E0DF911A
:10148000CF911F910F9108950F931F93CF93DF93E7
:10149000FC01892B79F184A1815084A3268993A131
:1014A000291751F181112AC0EF018F010E5F1F4FE3
:1014B000C8010E9437028BA18E8B24E030E0281BEC
:1014C00031093D872C8790919705981710F48093E8
:1014D000970590E09C01220F331F220F331F220F2C
:1014E000331F820F931FB8018C539A4F0E94E5015E
:1014F00081E005C080E003C080E001C080E0DF91B2
:10150000CF911F910F910895A1E21A2EAA1BBB1B28
:10151000FD010DC0AA1FBB1FEE1FFF1FA217B307BF
:10152000E407F50720F0A21BB30BE40BF50B661FD5
:10153000771F881F991F1A9469F760957095809599
:1015400090959B01AC01BD01CF0108950F931F93AE
:10155000CF93DF938230910510F482E090E0E09128
:10156000EC05F091ED0520E030E0A0E0B0E0309730
:1015700019F1408151810281138148175907C8F040
:101580008417950769F4109731F012960C9312970F
:1015900013961C9327C00093EC051093ED0522C011
:1015A0002115310519F04217530718F49A01BD01AE
:1015B000EF01DF01F801DBCF21153105F9F0281B20
:1015C000390B2430310580F48A819B8161157105C6
:1015D00021F0FB019383828304C09093ED058093F7
:1015E000EC05FE01329644C0FE01E20FF31F819329
:1015F000919322503109398328833AC02091EA051A
:101600003091EB05232B41F420910201309103012D
:101610003093EB052093EA05209100013091010100
:101620002115310541F42DB73EB740910401509189
:101630000501241B350BE091EA05F091EB05E2175B
:10164000F307A0F42E1B3F0B2817390778F0AC01E5
:101650004E5F5F4F2417350748F04E0F5F1F5093C2
:10166000EB054093EA058193919302C0E0E0F0E03E
:10167000CF01DF91CF911F910F910895CF93DF9309
:10168000009709F481C0FC01329713821282A09165
:10169000EC05B091ED05109781F420813181820F26
:1016A000931F2091EA053091EB052817390751F572
:1016B000F093EB05E093EA0567C0ED0120E030E030
:1016C000CE17DF0740F44A815B819E014115510529
:1016D000F1F0EA01F5CFD383C28340815181840FB9
:1016E000951FC817D90759F488819981840F951FD0
:1016F0000296918380838A819B81938382832115C3
:10170000310529F4F093ED05E093EC053DC0E901C6
:10171000FB83EA8349915991C40FD51FEC17FD074C
:1017200061F480819181840F951F0296E90199836C
:101730008883828193819B838A83E0E0F0E0129624
:101740008D919C911397009719F0FD01DC01F7CF63
:101750008D919C9111979D012E5F3F4F820F931F9A
:101760002091EA053091EB052817390769F4309785
:1017700029F41092ED051092EC0502C0138212823A
:10178000B093EB05A093EA05DF91CF910895FB019B
:10179000DC0102C001900D9241505040D8F70895ED
:1017A000DC0101C06D9341505040E0F70895F8947A
:0217B000FFCF69
:1017B2000000EE052000C600CE0055700A004C6500
:1017C20066740A00446F776E0A0052696768740A89
:1017D2000052656164206A6F79737469636B0000FB
:1017E20000000000000000000000000000000000F7
:1017F200000000000000000000000049444C4500C9
:00000001FF
